:100000000C945C000C9479000C9479000C946705B6
:100010000C942A040C9479000C9479000C947900C7
:100020000C9479000C9479000C9479000C9479006C
:100030000C9479000C9479000C9479000C9479005C
:100040000C94E0030C9479000C9479000C947900E2
:100050000C9479000C9479000C9479000C9479003C
:100060000C94B5050C9479000000000024002700D2
:100070002A0000000000250028002B0004040404CE
:100080000404040402020202020203030303030342
:10009000010204081020408001020408102001021F
:1000A00004081020000000080002010000030407FB
:1000B000000000000000000011241FBECFEFD8E0B8
:1000C000DEBFCDBF11E0A0E0B1E0ECEFFDE002C08B
:1000D00005900D92A830B107D9F722E0A8E0B1E071
:1000E00001C01D92AC32B207E1F70E9457060C9492
:1000F000FC060C94000090E0FC01EC55FF4F2491AD
:10010000FC01E057FF4F3491FC01E458FF4FE491AC
:10011000EE23C9F0222339F0233001F1A8F4213075
:1001200019F1223029F1F0E0EE0FFF1FEE58FF4FDA
:10013000A591B4918FB7F894EC91611126C03095D8
:100140003E233C938FBF08952730A9F02830C9F093
:10015000243049F7809180008F7D03C0809180001A
:100160008F7780938000DFCF84B58F7784BDDBCF1E
:1001700084B58F7DFBCF8091B0008F778093B000E6
:10018000D2CF8091B0008F7DF9CF3E2BDACFCF93C5
:10019000DF9390E0FC01E057FF4F249184589F4F7C
:1001A000FC0184918823D1F090E0880F991FFC0115
:1001B000E859FF4FA591B491FC01EE58FF4FC5914E
:1001C000D49161110EC09FB7F8948C91E22FE09505
:1001D0008E238C932881E223E8839FBFDF91CF9108
:1001E00008958FB7F894EC91E22BEC938FBFF6CF84
:1001F0003FB7F8948091280290912902A0912A0299
:10020000B0912B0226B5A89B05C02F3F19F001968F
:10021000A11DB11D3FBFBA2FA92F982F8827BC0160
:10022000CD01620F711D811D911D43E0660F771F87
:10023000881F991F4A95D1F708951092150181E002
:100240008093140110920F0161E082E10E947B0013
:1002500061E083E10E947B00E9EBF0E080818E7F2A
:10026000808380818D7F808380E28093B80085E4E5
:100270008093BC000895CF931AB860E08EE00E948E
:10028000C70060E088E00E94C70061E08FE00E9444
:10029000C70060E089E00E94C70060E080E10E9442
:1002A000C70061E08FE00E947B008091680083605E
:1002B0008093680080916B00826080936B008091D6
:1002C0006C00846080936C00CFB7F89480910D012E
:1002D000811126C0E6E8F0E08491EAE9F0E094912B
:1002E000E82FF0E0EE0FFF1FE859FF4FA591B49102
:1002F000EC91E92309F442C061E08AE00E94C70062
:100300008CB580618CBD8CB580648CBD61E08DE066
:100310000E94C70061E08BE00E94C70080910D0140
:100320008F5F80930D01CFBF61E08AE00E947B0068
:1003300061E081E10E947B0061E08AE00E94C700E9
:1003400061E081E10E94C7000E941D0110920E0130
:1003500080EA96E8A1E0B0E080931701909318013D
:10036000A0931901B0931A0181E08093160180E2F5
:100370008093B80010922102CF91089561E08AE045
:100380000E947B00B9CFCF93DF9391E090930E0151
:100390008823B9F0C091B800D091BA008091BC0018
:1003A0008A7B8093BC0060E082E10E947B0060E079
:1003B00083E10E947B000E941D01D093BA00C0938C
:1003C000B800DF91CF910895CF92DF92EF92FF9224
:1003D0000F931F93CF93DF938091210287FD09C074
:1003E000DF91CF911F910F91FF90EF90DF90CF9011
:1003F00008958091210285FD75C08091210286FDBE
:1004000006C0809121028F7780932102E9CFD0919D
:100410001E02C0911D028DE191E090931C0180931A
:100420001B010E94F8006B017C010DC08091170137
:1004300090911801A0911901B0911A01892B8A2B72
:100440008B2B09F0E3C0809115018111EFCF82E081
:100450008093150181E0809314018FEF8093130145
:1004600010921201D093110110921001809110018D
:10047000CC0FC82BC093100180910F01811137C19F
:1004800085EE8093BC000E94F8006B017C010DC0DA
:100490008091170190911801A0911901B0911A0152
:1004A000892B8A2B8B2B09F0CBC0809115018230D0
:1004B00079F38091130190E08F3F59F080911301FF
:1004C00092E0803231F08091130194E0803309F49E
:1004D00093E080910E0110920E01882309F4CFC0A1
:1004E00085E05DC0D0911E02C0911D028DE191E0BA
:1004F00090931C0180931B010E94F8006B017C010A
:100500000DC08091170190911801A0911901B0912F
:100510001A01892B8A2B8B2B09F049C08091150178
:100520008111EFCF81E080931501809314019FEF3B
:1005300090931301109212019D0F909311018093DB
:10054000100180911001CC0FC82BC0931001809135
:100550000F0181119BC085EE8093BC000E94F800C2
:100560006B017C010CC08091170190911801A09142
:100570001901B0911A01892B8A2B8B2B91F580914F
:100580001501813081F3809112018D1710F4D09103
:10059000120180911E028D1368C080912102809308
:1005A0002102809121028F778093210219CF0E942E
:1005B000F800009117011091180120911901309154
:1005C0001A016C197D098E099F090617170728075C
:1005D000390708F0A3CF809116010E94C301D0E033
:1005E000D8CF0E94F80000911701109118012091B6
:1005F000190130911A016C197D098E099F0906179E
:1006000017072807390708F0BACFE5CF0E94F8008E
:1006100000911701109118012091190130911A01D0
:100620006C197D098E099F090617170728073907D6
:1006300008F009CF809116010E94C30195E049CFCF
:100640000E94F800009117011091180120911901E2
:1006500030911A016C197D098E099F090617170739
:100660002807390708F021CFE5CF80910E011092BD
:100670000E01882339F080912102856090CF9093FC
:100680002102BFCE80912102846089CF10920F0198
:100690000E94F8006B017C0104C08091BC0083FFC4
:1006A00024C0809110018093BB008091170190912C
:1006B0001801A0911901B0911A01892B8A2B8B2B5B
:1006C00061F30E94F8000091170110911801209128
:1006D000190130911A016C197D098E099F090617BD
:1006E000170728073907C8F676CF85EC35CF109263
:1006F0000F010E94F8006B017C0104C08091BC00D6
:1007000083FF24C0809110018093BB00809117016A
:1007100090911801A0911901B0911A01892B8A2B8F
:100720008B2B61F30E94F8000091170110911801C2
:100730002091190130911A016C197D098E099F09C8
:100740000617170728073907C8F674CF85EC99CE26
:1007500085ED8093BC008091170190911801A091C4
:100760001901B0911A010796A11DB11D23E0B6959C
:10077000A795979587952A95D1F72091BC0024FDE0
:1007800003C010921501089540911701509118016E
:100790006091190170911A01452B462B472B69F383
:1007A0000097A105B10541F02AE12A95F1F700C0B3
:1007B0000197A109B109E1CF809116010C94C30101
:1007C0001F920F920FB60F9211242F933F938F9386
:1007D0009F93AF93BF938091240290912502A091A3
:1007E0002602B09127023091230226E0230F2D37F5
:1007F00058F50296A11DB11D209323028093240277
:1008000090932502A0932602B0932702809128029C
:1008100090912902A0912A02B0912B020196A11D6C
:10082000B11D8093280290932902A0932A02B093CD
:100830002B02BF91AF919F918F913F912F910F907C
:100840000FBE0F901F90189529E8230F0396A11D46
:10085000B11DD2CF1F920F920FB60F921124CF92DB
:10086000DF92EF92FF921F932F933F934F935F93EB
:100870006F937F938F939F93AF93BF93EF93FF9368
:10088000CF93DF93CDB7DEB72897DEBFCDBF86B15C
:1008900043B14170440F8170482B19B1411180C0A0
:1008A000812F8770A1E0B0E002C0AA0FBB1F8A951C
:1008B000E2F724E234EF0E94E606613029E0720795
:1008C0002DE3820791050CF095C0212F30E035957E
:1008D0002795359527953595279523703327223011
:1008E000310509F495C02330310509F4B1C0213038
:1008F000310509F48FC0611529E072072DE38207E5
:10090000910509F4A7C021E050E8C52E54E8D52E82
:100910005EE1E52EF12C6C157D058E059F0508F036
:100920009BC0F694E794D794C7942F5F263099F72D
:10093000436090E080E715FD80E5482B4CBD9DBDF0
:1009400016FB662760F98AE00E947B00612F661F14
:100950006627661F81E10E947B004198329BFECF93
:10096000419AD99A28960FB6F894DEBF0FBECDBF34
:10097000DF91CF91FF91EF91BF91AF919F918F91B7
:100980007F916F915F914F913F912F911F91FF90B8
:10099000EF90DF90CF900F900FBE0F901F901895A3
:1009A000413069F18091210287FDD7CF4230A1F11A
:1009B0008091210286FF49C080911E02882309F49C
:1009C00044C0E091080181E08E0F80930801F0E0BF
:1009D000E35EFE4F10839091080180911E029813F0
:1009E000BCCF80911D02882309F43EC08091210272
:1009F000806828C060E079E08DE390E066CF1EBD9E
:100A000000000DB407FEFDCF8EB580932002A5CF68
:100A100048E071CF44E06FCF10922102812F8F7791
:100A200080931D0280910C0180931E021092080198
:100A300080911E02882309F490CF8091210217FD36
:100A400011C0806A8093210288CF10930C0185CF5A
:100A50004CE051CF91E06ECF922F909591702695FA
:100A6000422B68CF8064EECF88E0E0E0F1E0DE0169
:100A7000119601900D928A95E1F7E0911D0181E0B8
:100A800090E08C0F9D1F8E0F911DFC01208130E0A6
:100A900050E040E0C12C82E1D82E8AE7E82EF12C0C
:100AA000C701B6010E94C706C701B6010E94A5068C
:100AB000DA01C9014097A109B109B695A7959795A3
:100AC00087958093B800809121028F7BBBCF1F92C6
:100AD0000F920FB60F9211242F938F939F93EF9342
:100AE000FF9386B1E3B1E170EE0F8170E82BE23045
:100AF000B9F1E330B9F0F0E0E15EFD4F80818BB9F0
:100B00008FEF8AB94198199BFECF1AB8419AD89AAB
:100B1000FF91EF919F918F912F910F900FBE0F90AA
:100B20001F9018958091210285FF1DC080912102A0
:100B300087FD19C0E091080181E08E0F80930801C4
:100B4000F0E0E35EFE4F80812091080190911E024B
:100B50002913D5CF909121029F7D90932102CFCF71
:100B600080912102CCCF8FEFCACF1F920F920FB688
:100B70000F9211242F933F934F935F936F937F9323
:100B80008F939F93AF93BF93EF93FF938091B9009F
:100B9000887F883209F442C000F58031B9F1B0F4A1
:100BA000882309F481C0883089F1FF91EF91BF91CA
:100BB000AF919F918F917F916F915F914F913F91F5
:100BC0002F910F900FBE0F901F901895883131F123
:100BD000803259F78093130116C0803409F443C062
:100BE00060F48033B9F3883301F78093130185EC07
:100BF0008093BC0010921501D8CF803521F1883543
:100C0000D1F1883491F60E94A803CFCF80911001D2
:100C10008093BB0085EC8093BC00C7CF90911201FC
:100C2000809111019817B8F580911B0190911C01DA
:100C3000E091120121E02E0F20931201E80FF92F0D
:100C4000F11D8081E5CF20911B0130911C01E091C5
:100C5000120181E08E0F809312018091BB00E20FA0
:100C6000F32FF11D8083909112018091110198174B
:100C700088F285E8D0CF20911B0130911C01E091D2
:100C8000120181E08E0F809312018091BB00E20F70
:100C9000F32FF11D8083809114018111B4CF81E085
:100CA00080930F0184EAA4CF10921301ACCF789403
:100CB00084B5826084BD84B5816084BD85B5826061
:100CC00085BD85B5816085BD80916E008160809312
:100CD0006E0010928100809181008260809381007B
:100CE000809181008160809381008091800081608B
:100CF000809380008091B10084608093B1008091E6
:100D0000B00081608093B00080917A00846080930D
:100D10007A0080917A00826080937A0080917A00D4
:100D20008E7F80937A0080917A00806880937A0029
:100D30001092C1000E943B01C0E0D0E00E94E4019B
:100D40002097E1F30E940000F9CFA1E21A2EAA1B1E
:100D5000BB1BFD010DC0AA1FBB1FEE1FFF1FA2176B
:100D6000B307E407F50720F0A21BB30BE40BF50B68
:100D7000661F771F881F991F1A9469F760957095F1
:100D8000809590959B01AC01BD01CF010895052E82
:100D900097FB1EF400940E94DE0657FD07D00E94C8
:100DA000A50607FC03D04EF40C94DE065095409542
:100DB000309521953F4F4F4F5F4F08959095809507
:100DC000709561957F4F8F4F9F4F08950E94ED065C
:100DD000B7FF0895821B930B0895A29FB001B39FA4
:100DE000C001A39F700D811D1124911DB29F700D34
:0C0DF000811D1124911D0895F894FFCF7F
:080DFC00A080504028201410D3
:00000001FF
