:100000000C945C000C9479000C9479000C942104FD
:100010000C94FE030C9479000C9479000C94EC037E
:100020000C9479000C9479000C948E030C945F036B
:100030000C9479000C9479000C9479000C9479005C
:100040000C9415030C9479000C9479000C947900AD
:100050000C9479000C9479000C9479000C9479003C
:100060000C9479000C947900000000002400270013
:100070002A0000000000250028002B0004040404CE
:100080000404040402020202020203030303030342
:10009000010204081020408001020408102001021F
:1000A00004081020000000080002010000030407FB
:1000B000000000000000000011241FBECFEFD8E0B8
:1000C000DEBFCDBF11E0A0E0B1E0EEE1F9E002C09B
:1000D00005900D92A632B107D9F721E0A6E2B1E072
:1000E00001C01D92A234B207E1F70E944F040C94A4
:1000F0008D040C94000090E0FC01EC55FF4F24911E
:10010000FC01E057FF4F3491FC01E458FF4FE491AC
:10011000EE23C9F0222339F0233001F1A8F4213075
:1001200019F1223029F1F0E0EE0FFF1FEE58FF4FDA
:10013000A591B4918FB7F894EC91611126C03095D8
:100140003E233C938FBF08952730A9F02830C9F093
:10015000243049F7809180008F7D03C0809180001A
:100160008F7780938000DFCF84B58F7784BDDBCF1E
:1001700084B58F7DFBCF8091B0008F778093B000E6
:10018000D2CF8091B0008F7DF9CF3E2BDACFCF93C5
:10019000DF9390E0FC01E057FF4F249184589F4F7C
:1001A000FC0184918823D1F090E0880F991FFC0115
:1001B000E859FF4FA591B491FC01EE58FF4FC5914E
:1001C000D49161110EC09FB7F8948C91E22FE09505
:1001D0008E238C932881E223E8839FBFDF91CF9108
:1001E00008958FB7F894EC91E22BEC938FBFF6CF84
:1001F0008823B1F0439A92E097BB94E39093040173
:100200009091B200209104012150330B92171306F4
:1002100064F4909104019093B300809303010895D6
:10022000439892E097BB93E4E9CF92E090937000FB
:1002300080930301089580913801C1E0D0E01FEF61
:1002400062C0A99B1FC0882341F08091300181705A
:100250009091030189130E94F80087B590912E01B7
:10026000890F87BDA99A80913001909131019695AF
:1002700087959093310180933001809138018150AE
:100280008093380190912D019F3F09F44FC0AA9BA4
:1002900038C05091020188B590912E01890F88BD18
:1002A000AA9A40912F0181E090E0511102C090E0A4
:1002B00080E0642F6150770B02C0880F991F6A9508
:1002C000E2F720912B0130912C0136952795822B56
:1002D000932B90932C0180932B0180912D018150C1
:1002E00080932D01811139C0F8948091360180FDF1
:1002F00068C08091360180618093360110932D0192
:100300007894809138018F3F09F09BCFF8948091C9
:10031000360187FD29C07894809138018F3F09F01C
:1003200090CF90912D019F3F09F0B1CF90910201A4
:100330009111E9CF96B580912E018695890F88BDE0
:10034000AA9A10922C0110922B0180912F018F5F9D
:1003500080932D018F3FA9F29ACF4813D2CF552316
:1003600081F210932D01CDCF209135018091340180
:10037000AE0102C0440F551F8A95E2F7CA010197EA
:1003800030E0822393232091320130913301822B7C
:10039000932B9093310180933001809136018F77B8
:1003A0008093360180912F01809338018091030161
:1003B000811130C086B590912E01890F87BDA99A11
:1003C000AACF80912A01882309F498CF8091340123
:1003D000AE0102C0440F551F8A95E2F720912B0110
:1003E00030912C018FEF840F82238093370180910D
:1003F000320190913301B901682379238617970759
:1004000069F08091360188608093360180913601D1
:100410008E7F72CF80E00E94F800CCCF80912901BE
:10042000813009F1823091F7E09137016091370115
:10043000E695E695E695F0E0EB5FFE4F808190E073
:10044000677002C0959587956A95E2F781702423BD
:10045000352391E0232B09F490E08917B9F28091BC
:1004600036018460D1CFE091370160913701E69584
:10047000E695E695F0E0EB5FFE4F808190E06770D7
:1004800002C0959587956A95E2F780959095DECFA5
:1004900061E08BE00E94C70061E08DE00E94C70030
:1004A00060E08EE00E94C70061E08FE00E94C7001C
:1004B00061E081E10E94C70061E082E10E94C70023
:1004C00061E08CE00E94C7001AB861E08FE00E94F2
:1004D0007B0082E48093B00083E08093B10084E3EA
:1004E00080930401809104018093B30061E081E175
:1004F0000E947B001092800082EC80938100109219
:10050000820080ED97E0909389008093880080E2DC
:1005100080936F0061E08CE00E94C70060E08CE097
:100520000E947B00EEE6F0E080818E7F808314BC29
:1005300084E085BD16BCE8E6F0E0808183608083BE
:10054000EBE6F0E0808182608083ECE6F0E0808181
:100550008460808381E08093360198E690932E0139
:100560009FEF9093380190932D0198E09093340180
:10057000109229018093280189E080932F0180E067
:1005800091E0909333018093320108958823B1F074
:100590001092270180912601843678F480912601FB
:1005A0008F5F80932601809126018436F1F0B19A05
:1005B00080916F00826080936F0008958091270181
:1005C0008330D8F7809127018F5F80932701809136
:1005D0002701833091F71092260180912A01811121
:1005E0000FC080916F008D7FE6CF61E08CE00E94AC
:1005F0007B0081E080932A01449A80930201089550
:1006000060E08CE00E947B00449A81E080930201CC
:1006100010922A0180913601837E80933601809169
:100620003601816080933601DCCF1F920F920FB6A6
:100630000F9211242F933F938F939F93AF93BF9368
:1006400080913E0190913F01A0914001B091410104
:1006500030913D0126E0230F2D3758F50296A11D5C
:10066000B11D20933D0180933E0190933F01A093E3
:100670004001B09341018091390190913A01A091DC
:100680003B01B0913C010196A11DB11D8093390140
:1006900090933A01A0933B01B0933C01BF91AF917D
:1006A0009F918F913F912F910F900FBE0F901F90B0
:1006B000189529E8230F0396A11DB11DD2CF1F92D3
:1006C0000F920FB60F9211242F933F934F935F9386
:1006D0006F937F938F939F93AF93BF93EF93FF930A
:1006E000109285001092840080E286BB10928700F1
:1006F0001092860080E00E94C602FF91EF91BF91A8
:10070000AF919F918F917F916F915F914F913F91A9
:100710002F910F900FBE0F901F9018951F920F9260
:100720000FB60F9211242F933F934F935F936F93C4
:100730007F938F939F93AF93BF93CF93DF93EF9369
:10074000FF93109285001092840082E086BB809116
:100750008600909187008D3421E09207B8F1D1E0B6
:10076000873D9140C8F4C0910001809101018C1730
:1007700011F0CD1313C081E00E94C60280912A01BE
:10078000882339F0C11126C04498C0930201C0915A
:100790000001C093010105C0D0E0E5CF80E00E94D8
:1007A000C602D0930001FF91EF91DF91CF91BF91ED
:1007B000AF919F918F917F916F915F914F913F91F9
:1007C0002F910F900FBE0F901F90189580E00E9400
:1007D000C602E9CF449AD9CF1F920F920FB60F925B
:1007E00011248F93809104018093B30010927000C4
:1007F0008F910F900FBE0F901F9018951F920F9220
:100800000FB60F9211248F939F9386B1817099B187
:100810004198329BFECF419A882359F0809136014E
:1008200087FD07C0909335018091360180688093E1
:100830003601D99A9F918F910F900FBE0F901F9004
:1008400018951F920F920FB60F9211248F939F93BA
:10085000EF93FF9386B18170E82FF0E0EA5CFE4FE2
:1008600090819BB99FEF9AB94198199BFECF1AB816
:10087000419A882351F080913601837E809336011E
:1008800080913601816080933601D89AFF91EF9173
:100890009F918F910F900FBE0F901F901895789495
:1008A00084B5826084BD84B5816084BD85B5826075
:1008B00085BD85B5816085BDEEE6F0E08081816013
:1008C0008083E1E8F0E01082808182608083808113
:1008D00081608083E0E8F0E0808181608083E1EBEB
:1008E000F0E0808184608083E0EBF0E080818160D3
:1008F0008083EAE7F0E08081846080838081826089
:10090000808380818E7F8083808180688083109245
:0E091000C1000E9448020E941B01F894FFCF14
:10091E000101010134966969966996966969969600
:10092E0069966969966996966996696996966969EE
:06093E009669969669001F
:00000001FF
