:100000000C945C000C9479000C9479000C94A70675
:100010000C9462060C9479000C9479000C944206BE
:100020000C9479000C9479000C9457050C942505D8
:100030000C9479000C9479000C9479000C9479005C
:100040000C94DB040C9479000C9479000C947900E6
:100050000C9479000C9479000C9479000C9479003C
:100060000C9479000C947900000000002400270013
:100070002A0000000000250028002B0004040404CE
:100080000404040402020202020203030303030342
:10009000010204081020408001020408102001021F
:1000A00004081020000000080002010000030407FB
:1000B000000000000000000011241FBECFEFD8E0B8
:1000C000DEBFCDBF11E0A0E0B1E0EAE4FEE002C097
:1000D00005900D92A832B107D9F721E0A8E2B1E06E
:1000E00001C01D92A835B207E1F70E94D5060C9415
:1000F00023070C94000090E0FC01EC55FF4F249185
:10010000FC01E057FF4F3491FC01E458FF4FE491AC
:10011000EE23C9F0222339F0233001F1A8F4213075
:1001200019F1223029F1F0E0EE0FFF1FEE58FF4FDA
:10013000A591B4918FB7F894EC91611126C03095D8
:100140003E233C938FBF08952730A9F02830C9F093
:10015000243049F7809180008F7D03C0809180001A
:100160008F7780938000DFCF84B58F7784BDDBCF1E
:1001700084B58F7DFBCF8091B0008F778093B000E6
:10018000D2CF8091B0008F7DF9CF3E2BDACFCF93C5
:10019000DF9390E0FC01E057FF4F249184589F4F7C
:1001A000FC0184918823C9F090E0880F991FFC011D
:1001B000E859FF4FA591B491FC01EE58FF4FC5914E
:1001C000D49161110DC09FB7F8948C912095822332
:1001D0008C938881282328839FBFDF91CF91089536
:1001E000623051F49FB7F8943C91822F809583231D
:1001F0008C93E8812E2BEFCF8FB7F894EC912E2BB8
:100200002C938FBFEACF1F93CF93DF93182FEB016F
:1002100010924E0180914D018A3F80F480914D01F2
:100220008F5F80934D0180914D018A3F09F447C053
:10023000B19A80916F00826080936F0035991BC0E6
:100240001123E9F020914A0130914B01809148013E
:1002500090914901820F931F8C179D0718F1C817C1
:10026000D90748F4809148019091490101979093F2
:10027000490180934801DF91CF911F9108958091AA
:100280000401813049F18091480190914901209108
:10029000460130914701880F991F820F931F8C17D9
:1002A0009D07E8F68091480190914901019690934D
:1002B000490180934801DF91CF911F91089561E03A
:1002C0008CE00E947B0081E080934C0180930601CA
:1002D000449A80930501B2CF409146015091470165
:1002E0008091480190914901209148013091490144
:1002F000840F951F37FF02C02D5F3F4F359527951F
:1003000035952795A7CF823009F4A6C0833009F030
:1003100045C0809304018AEF90E09093320180936E
:10032000310181EA91E090934B0180934A0181E78A
:1003300092E09093300180932F0181E493E09093B9
:1003400047018093460182EE94E090932E018093C2
:100350002D0187E68093030181E0809302018AE109
:1003600080933B018FEF8093450180933A0188E0B1
:10037000809341011092330182E080932C018AE046
:1003800080933C0180E093E09093400180933F0193
:1003900089E08093360180E091E041C081E0809364
:1003A00004012AEF30E0309332012093310121EA39
:1003B00031E030934B0120934A012EED31E0309330
:1003C000300120932F012CE132E03093470120933C
:1003D000460128EE33E030932E0120932D0193E364
:1003E0009093030193E09093020198E690933B0170
:1003F0009FEF9093450190933A0198E090934101CB
:100400001092330180932C0129E020933C0180E07D
:1004100091E09093400180933F01209336019093A7
:100420003501809334011092490110924801809166
:100430002D0190912E0190938900809388008091E6
:1004400003018093B300809181008F7B80938100B2
:1004500083E08093B1000895809304012AEF30E097
:10046000309332012093310121EA31E030934B0186
:1004700020934A0121E732E03093300120932F018D
:1004800021E433E0309347012093460122EE34E02B
:1004900030932E0120932D0193E39093030193E079
:1004A0009093020198E690933B019FEF9093450152
:1004B00090933A0198E090934101109233015DCFFF
:1004C00061E08BE00E94C70061E08DE00E94C70000
:1004D00060E08EE00E94C70061E08FE00E94C700EC
:1004E00061E081E10E94C70061E082E10E94C700F3
:1004F00062E08AE00E94C70062E083E10E94C700D8
:1005000061E08CE00E94C7001AB861E08FE00E94B1
:100510007B0082E48093B00083E08093B10083E3AA
:1005200080930301809103018093B30061E081E136
:100530000E947B001092800082EC809381001092D8
:10054000820088EE93E0909389008093880080E297
:1005500080936F0061E08CE00E94C70060E08CE057
:100560000E947B00EEE6F0E080818E7F808314BCE9
:1005700084E085BD16BCE8E6F0E08081836080837E
:10058000EBE6F0E0808182608083ECE6F0E0808141
:100590008460808381E0809343010C948301909177
:1005A00004019330E1F090910001981711F1882334
:1005B00039F1439A92E097BB93E3909303019091B2
:1005C000B200209103012150330B9217130694F4CB
:1005D000909103019093B3008093000108958111DD
:1005E00020C08091B100811114C080E88093B100D7
:1005F0004398089592E090937000809300010895CD
:10060000439892E097BB909104019130A9F097E64E
:10061000D4CF8091B2008111FCCF1092B1004398E9
:10062000E8CF1092B20083E88093B10082E087BBEC
:1006300080937000439A089592E4BFCF8091450162
:100640008F3F09F4BDC0A99B1CC08111D4C087B5E0
:1006500090913B01890F87BDA99A80913D019091AE
:100660003E019695879590933E0180933D01809140
:10067000450181508093450190910401933009F424
:10068000AFC080913A018F3F09F467C09091040197
:10069000933049F095B392FB992790F990933901E3
:1006A0008F3F09F459C080913901882309F454C05F
:1006B00050910501809148019091490148B52091E0
:1006C0003B0130E097FD0396959587959595879525
:1006D000820F931F840F88BDAA9A10923901339A12
:1006E0004091360180913701909138019695879518
:1006F000252F30E0E42FE150FF0B02C0220F331F03
:10070000EA95E2F7822B932B90933801809337017F
:1007100080913A01815080933A01811158C0F89438
:100720008091430180FD6DC0809143018061809381
:1007300043018FEF80933A017894089580913901B5
:10074000811113C080910401833031F085B382FBA5
:10075000882780F9809339010895809105018111DE
:10076000F1CF80910401833049F366B5409148018F
:100770005091490120913B01822F90E057FF02C028
:100780004D5F5F4F5595479555954795840F951F3C
:1007900097FD019695958795860F88BD1092380133
:1007A00010923701809136018F5F80933A01AA9AA7
:1007B00080910401833009F4C0C080913A016ACF6E
:1007C000F8948091430187FD48C078945ACF48132C
:1007D000C3CF552309F4C0CF8FEF80933A0108951A
:1007E0008F3F09F04ECF8091430187FD4ACF83E8C8
:1007F0008093B10046CF80913D0181700E94CF026D
:1008000026CF80914C01882309F493CF9091410128
:1008100021E030E0A90102C0440F551F9A95E2F78C
:10082000CA0140913701509138012FEF280F24233E
:10083000209344012091340130913501BA016223A3
:10084000732326173707A9F18091430188608093AD
:100850004301809143018E7F6ACF20914201309104
:10086000410181E090E002C0880F991F3A95E2F7BC
:10087000019730E08223932320913F013091400182
:10088000822B932B90933E0180933D0180914301F5
:100890008F778093430180913C018093450180E0F4
:1008A0000E94CF0286B590913B01890F87BDA99A1E
:1008B0008CCF20913301213011F1223051F6E0919B
:1008C000440160914401E695E695E695F0E0E95F24
:1008D000FE4F208130E0677002C0359527956A95FC
:1008E000E2F721708423952331E0892B09F430E06D
:1008F000231709F4AECF809143018460A8CFE09123
:10090000440160914401E695E695E695F0E0E95FE3
:10091000FE4F208130E0677002C0359527956A95BB
:10092000E2F72095309521704823592391E0452B1B
:1009300009F490E02913DFCF8CCF80913A01B0CE3B
:10094000962F882321F0BA01892F0C9403019091EE
:100950004E0180910201981740F490914E019F5FE3
:1009600090934E0190914E018913089510924D017C
:1009700080914C01811106C080916F008D7F809322
:100980006F00089560E08CE00E947B00449A81E053
:100990008093050110924C0180914301837E8093E6
:1009A000430180914301816080934301109249018A
:1009B00010924801E1CF1F920F920FB60F921124AF
:1009C0002F933F938F939F93AF93BF938091540145
:1009D00090915501A0915601B0915701309153016A
:1009E00026E0230F2D3758F50296A11DB11D209347
:1009F00053018093540190935501A0935601B093F5
:100A0000570180914F0190915001A0915101B091F7
:100A100052010196A11DB11D80934F019093500189
:100A2000A0935101B0935201BF91AF919F918F91CB
:100A30003F912F910F900FBE0F901F90189529E8AE
:100A4000230F0396A11DB11DD2CF1F920F920FB697
:100A50000F9211242F933F934F935F936F937F9344
:100A60008F939F93AF93BF93EF93FF931092850063
:100A70001092840080E286BB10928700109286005C
:100A800050E040E060E080E00E94A004FF91EF9120
:100A9000BF91AF919F918F917F916F915F914F9196
:100AA0003F912F910F900FBE0F901F9018951F929E
:100AB0000F920FB60F9211240F931F932F933F9312
:100AC0004F935F936F937F938F939F93AF93BF9356
:100AD000CF93DF93EF93FF931092850010928400E1
:100AE00082E086BBC0918600D09187008091310161
:100AF00090913201C817D90708F469C080910401A8
:100B0000833019F120912F013091300180914801FB
:100B100090914901820F931FBE01C817D90708F0B1
:100B200073C081E00E94030180912901833008F4A1
:100B300093C01092280180914C01882309F44DC084
:100B4000449A81E08093050148C08091810090E43F
:100B500089278093810000914801109149010F5825
:100B60001D4F80910101811169C0C017D10708F0A4
:100B700068C020912A0130912B01A9014C0F5D1F03
:100B80005695479580914C0181110BC0CE01821B77
:100B9000930B9C012D593F4F81E0273C310508F014
:100BA0006FC061E00E94A00480914C01882359F03D
:100BB000449A81E0C017D10708F060C08093050116
:100BC00081E08093390181E08093010106C050E00B
:100BD00040E060E080E00E94A00480E286BBFF91DC
:100BE000EF91DF91CF91BF91AF919F918F917F91C5
:100BF0006F915F914F913F912F911F910F910F90A6
:100C00000FBE0F901F90189580E00E940301809105
:100C10002801482F50E09091040122E030E092300A
:100C200019F142175307E4F01092290180914C0109
:100C3000882399F2449810920501CFCFC017D107AD
:100C4000B0F0BE0180E00E94030180914C01882336
:100C500009F4B9CF4498ADCF8F5F80932901BDCF00
:100C60008F5F80932801B9CF21E030E0DACF109276
:100C70000101D0932B01C0932A01AFCF80E09ECF1A
:100C800080E08FCF1F920F920FB60F9211248F9397
:100C900080910401833061F0809103018093B3005F
:100CA000109270008F910F900FBE0F901F901895AB
:100CB0001092B100109270008F910F900FBE0F90A4
:100CC0001F9018951F920F920FB60F9211242F9319
:100CD0003F934F935F936F937F938F939F93AF93C4
:100CE000BF93EF93FF9386B1817099B14198329B86
:100CF000FECF419A81111FC01A9B0BC0892F807CA7
:100D000029F083E095FF03C082E097FF81E00E9415
:100D10008301D99AFF91EF91BF91AF919F918F91EC
:100D20007F916F915F914F913F912F910F900FBEE7
:100D30000F901F9018958091430187FDEACF909303
:100D4000420180914301806880934301E2CF1F926A
:100D50000F920FB60F9211248F939F93EF93FF93EF
:100D600086B18170E82FF0E0ED5BFE4F90819BB97A
:100D70009FEF9AB94198199BFECF1AB8419A8823E0
:100D800051F080914301837E809343018091430120
:100D9000816080934301D89AFF91EF919F918F9149
:100DA0000F900FBE0F901F901895789484B58260B5
:100DB00084BD84B5816084BD85B5826085BD85B5FF
:100DC000816085BD80916E00816080936E0010927D
:100DD00081008091810082608093810080918100F8
:100DE0008160809381008091800081608093800089
:100DF0008091B10084608093B1008091B0008160E7
:100E00008093B00080917A00846080937A00809112
:100E10007A00826080937A0080917A008E7F80933E
:100E20007A0080917A00806880937A001092C100E5
:100E30000E946002C0E0D0E00E941E032097E1F310
:0A0E40000E940000F9CFF894FFCFE4
:100E4A0001010333010101966969966996966969F8
:100E5A009696699669699669969669966969969663
:080E6A0069699669969669001A
:00000001FF
