:020000040000FA
:100000000C94CC040C94F4040C94F4040C94F404B8
:100010000C94F4040C94F4040C94F4040C94F40480
:100020000C94F4040C94F4040C94F4040C94F40470
:100030000C94F4040C94F4040C94F4040C94F40460
:100040000C94622C0C94F4040C94302C0C940A2C18
:100050000C94F4040C94F4040C94F4040C94F40440
:100060000C94F4040C94F4046364696E6F707375FB
:1000700078585B00756E6B6E6F776E0053687567AE
:1000800061727420534138303020283822290035DD
:100090002E32352220484420656D756C6174696E7E
:1000A0006720416C746169722038382D44434444A0
:1000B00020283822206469736B2073797374656D0E
:1000C0002900352E32352220444420656D756C613F
:1000D00074696E6720416C746169722038382D4DE7
:1000E000445320284D696E696469736B207379737A
:1000F00074656D29006E6F6E6500202872656C61F5
:100100007469766520736F66742D736563746F729E
:100110002074696D696E6729002028666F726365B7
:10012000642073796E6320616674657220737465F0
:100130007029003A200020697320747970652000CE
:1001400044726976652000556E6B6E6F6E776E2017
:100150006572726F720056657269667920666169B0
:100160006C6564004E6F20747261636B2030207385
:1001700069676E616C206465746563746564004EC4
:100180006F20696E64657820686F6C6520646574A3
:100190006563746564004E6F206572726F7200450E
:1001A00072726F723A20006D73002052504D0068D9
:1001B0006172642D736563746F7265642C20000D29
:1001C0000A706C6561736520696E73657274206472
:1001D00069736B2E2E2E20002E2E2E20004D656171
:1001E000737572696E6720726F746174696F6E20C7
:1001F000706572696F6420666F72206472697665DB
:1002000020007820202020202020202020202020B6
:100210004578697420746F20636F6E74726F6C6CB4
:100220006572206D6F64650046205B642C5D6E20F6
:100230002020202020205365742064726976652078
:10024000666C61677320666F7220647269766520E0
:10025000642C2073657420636F6E74726F6C6C65B0
:100260007220666C6167732069662064206E6F740B
:1002700020676976656E0054205B6E5D202020202B
:1002800020202020205072696E74206F72207365C8
:10029000742074797065206F662063757272656E64
:1002A000742064726976650049205B302F315D20CF
:1002B0002020202020205072696E7420696E666FA5
:1002C000726D6174696F6E2061626F75742028634E
:1002D000757272656E742920647269766500732088
:1002E000312F3220202020202020202053656C65D3
:1002F000637420736964652031206F72203200645A
:1003000020302F3120202020202020202053656CF9
:100310006563742064726976652030206F722031C5
:1003200000302020202020202020202020202053AA
:1003300074657020746F20747261636B2030006F7D
:10034000205B6E5D2020202020202020205374651B
:1003500070206E202864656661756C7420312920D8
:10036000747261636B73206F75740069205B6E5DDE
:1003700020202020202020202053746570206E2013
:100380002864656661756C7420312920747261631C
:100390006B7320696E004D2020202020202020201B
:1003A000202020204D656173757265207370696E21
:1003B000646C6520726F746174696F6E006D205B90
:1003C000302F315D202020202020205475726E2097
:1003D0006472697665206D6F746F72206F6E206F26
:1003E00072206F6666206F722073686F7720637566
:1003F0007272656E74207374617475730056202078
:1004000020202020202020202020205265636569A4
:100410007665206469736B20696D61676520766914
:100420006120584D6F64656D20616E6420636F6D4F
:100430007061726520746F206469736B0057205B74
:10044000302F315D202020202020205265636569F7
:100450007665206469736B20696D616765207669D4
:100460006120584D6F64656D20616E6420777269FC
:100470007465206469736B2028313D616E6420636C
:100480006F6D706172652900422064202020202059
:1004900020202020202046696C6C206275666665ED
:1004A00072207769746820646563696D616C207679
:1004B000616C7565206400622020202020202020AF
:1004C00020202020205072696E7420627566666557
:1004D0007220636F6E74656E740077205B742C5DA0
:1004E000735B2C302F315D20577269746520627503
:1004F0006666657220636F6E74656E7420746F201B
:10050000747261636B2074202864656661756C7415
:100510002063757272656E742920736563746F72DF
:1005200020732028313D616E6420636F6D706172AD
:1005300065290072205B742C5D7320202020202010
:10054000205265616420747261636B20742028649A
:10055000656661756C742063757272656E742920AE
:10056000736563746F72207320696E746F20627597
:1005700066666572003D00252C20617667646966B9
:10058000663D003D2B00252C206D61783D003D2D02
:10059000002C206D696E3D006176673D0020726F12
:1005A000746174696F6E73293A2000526F746174BC
:1005B000696F6E20706572696F6420286D732C20DE
:1005C000000D0A706C6561736520696E73657274E5
:1005D000206469736B2E2E2E20004D656173757239
:1005E000696E67207370696E646C6520726F7461E8
:1005F00074696F6E2C20707265737320616E792040
:100600006B657920746F2073746F702E2E2E006EC0
:100610006F00796573004E756D626572206F66209C
:10062000536563746F7273203A20004E756D626576
:1006300072206F6620547261636B7320203A200031
:1006400053796E63206166746572207374657020DF
:1006500020203A200054797065202020202020207E
:10066000202020202020203A2000796573006E6F22
:100670000057726974652070726F74656374656485
:100680002020203A20007573005265616420636C5D
:1006900065617220202020202020203A20007573E0
:1006A0002000536563746F72207461696C20202090
:1006B000202020203A200075732000536563746F5A
:1006C00072206F666673657420202020203A200017
:1006D00075732000536563746F72206C656E677468
:1006E0006820202020203A20002052504D00526FD8
:1006F000746174696F6E20737065656420202020BA
:100700003A2000436F6E74726F6C6C657220666C79
:10071000616773203A200044726976652031206653
:100720006C616773202020203A200044726976654E
:10073000203020666C616773202020203A200075ED
:100740006E6B6E6F776E0043757272656E742054B7
:100750007261636B20202020203A20004375727262
:10076000656E7420447269766520202020203A202E
:10077000002069732073656C65637465642E005393
:10078000696465200053656C656374696E672073E6
:10079000696465200053656C656374696E672064E5
:1007A00072697665200053657474696E67206D6F99
:1007B000746F7220746F204155544F206D6F6465C3
:1007C0002E005475726E696E67206D6F746F7220A3
:1007D0004F46462E005475726E696E67206D6F74B9
:1007E0006F72204F4E2E0020286175746F2D6F663A
:1007F00066206D6F646529004D6F746F7220697398
:100800002072756E6E696E67004D6F746F7220692D
:1008100073204E4F542072756E6E696E670020779C
:100820006974682030780046696C6C696E67206274
:1008300075666665720042756666657220636F6EE6
:1008400074656E74733A004572726F723A20004696
:100850006F756E6420646174613A004578706563F9
:1008600074656420646174613A002C20536563747C
:100870006F723D000D0A0A547261636B3D000D0AF0
:100880005375636365737321002053656E6420693B
:100890006D6167652076696120584D6F64656D20D4
:1008A0006E6F772E2E2E0057726974696E67206105
:1008B0006E6420766572696679696E672064697313
:1008C0006B20696D6167652E00566572696679698E
:1008D0006E67206469736B20696D6167652E0057D0
:1008E000726974696E67206469736B20696D6167F2
:1008F000652E004F6B2E000D0A0D0A436F6D6D6162
:100900006E643A200049474E4F52494E47204452A8
:1009100049564520535741502053455454494E475A
:1009200020494E204D4F4E49544F52000D0A0A4562
:100930006E746572696E67206469736B206D6F6E8B
:1009400069746F722E0000000000240027002A0046
:1009500000000000250028002B0004040404040407
:10096000040402020202020203030303030301025E
:10097000040810204080010204081020010204082D
:10098000102000000008000201000003040700001E
:10099000000000000000EA2C11241FBECFEFD8E0B9
:1009A000DEBFCDBF27E0A6E4B1E001C01D92A335B4
:1009B000B207E1F711E0A0E0B1E0ECEFF5E602C02C
:1009C00005900D92A634B107D9F714E0CCECD4E031
:1009D00004C02197FE010E94D42DCB3CD107C9F75A
:1009E0000E94AC2C0C94FC320C9400009F92AF92AD
:1009F000BF92CF92DF92EF92FF920F931F93CF930C
:100A0000DF93FC01A0914E07B0E0A45BB84F8C913E
:100A100046E0813009F4B7C01092B20020914E0731
:100A200030E0220F331FD901AA55B94F285B384F48
:100A3000E90188819981880F991F2D913C91281B8C
:100A4000390B0024220F331F001C220F331F001C00
:100A5000232F302D2093B30082E087BB1092A50690
:100A600029E8942EDF01CA2E309168013068D32E18
:100A700030916B013160E32E3FEFF32E04E078E01C
:100A8000B59AB99961C0B59B1AC030918600B59AE4
:100A900002FD12C0990F632F611B132F691518F007
:100AA00000FD03C0EECF05609160715051F7919346
:100AB00078E0215041F73DC00B7F132FE2CF01FDBD
:100AC00023C0349907C0359B29C0319B46C02D985F
:100AD0000260D7CF319910C0309909C03D2DAE17B3
:100AE00009F03F773BB9FAB82D980260CCCFEBB84C
:100AF000FAB82D980260C7CFAE1729F03D913BB9E7
:100B0000FAB82D980260BFCF36B1307309F0B9CF73
:100B100030E03AB92D9AD99A0D7FB5CFD89BB1CF95
:100B2000D89A1B99AECFA0908400B0908500086041
:100B3000AACF3091840030937501309185003093B5
:100B4000760131E03093A50601FF07C036B130735E
:100B5000E9F730E01AB92D9AD99AEA2FEC19087002
:100B600000936C01A0926101B09262018E2FDF911F
:100B7000CF911F910F91FF90EF90DF90CF90BF909A
:100B8000AF909F9008954CE047CF0895AF92BF92E9
:100B9000CF92DF92EF92FF920F931F93CF93DF9349
:100BA0006C017B018B01040F151FEB015E01AE1878
:100BB000BF08C017D10759F06991D601ED91FC919A
:100BC0000190F081E02DC6010995892B79F7C501C7
:100BD000DF91CF911F910F91FF90EF90DF90CF9019
:100BE000BF90AF900895FC01538D448D252F30E0C8
:100BF000842F90E0821B930B541710F0CF9608952A
:100C000001970895FC01918D828D981761F0A28D56
:100C1000AE0FBF2FB11D5D968C91928D9F5F9F731C
:100C2000928F90E008958FEF9FEF0895FC01918DD2
:100C3000828D981731F0828DE80FF11D858D90E03F
:100C400008958FEF9FEF0895FC01918D228D892FDC
:100C500090E0805C9F4F821B91098F7399270895C4
:100C60008AEA96E00E94240621E0892B09F420E01C
:100C7000822F089580E090E0892B29F00E943006B1
:100C800081110C9400000895FC01A48DA80FB92FC8
:100C9000B11DA35ABF4F2C91848D90E001968F73A4
:100CA0009927848FA689B7892C93A089B1898C91C3
:100CB000837080648C93938D848D981306C0028812
:100CC000F389E02D80818F7D80830895EF92FF92DC
:100CD0000F931F93CF93DF93EC0181E0888F9B8D5F
:100CE0008C8D98131AC0E889F989808185FF15C019
:100CF0009FB7F894EE89FF896083E889F98980813C
:100D00008370806480839FBF81E090E0DF91CF910A
:100D10001F910F91FF90EF900895F62E0B8D10E02C
:100D20000F5F1F4F0F731127E02E8C8D8E110CC09B
:100D30000FB607FCFACFE889F989808185FFF5CFE6
:100D4000CE010E944406F1CFEB8DEC0FFD2FF11D7B
:100D5000E35AFF4FF0829FB7F8940B8FEA89FB8923
:100D600080818062CFCF0F931F93CF93DF938C014D
:100D7000D0E0C0E0F801EC0FFD1F6491662341F064
:100D80008AEA96E00E946606892B11F02196F2CF3E
:100D9000CE01DF91CF911F910F910895682F8AEABC
:100DA00096E00C946606CF93DF93EC01888D882340
:100DB000B9F0AA89BB89E889F9898C9185FD03C0BE
:100DC000808186FD0DC00FB607FCF7CF8C9185FFA3
:100DD000F2CF808185FFEDCFCE010E944406E9CF9E
:100DE000DF91CF91089590E0FC01EE57F64F2491EA
:100DF000FC01E259F64F3491FC01E65AF64FE491BA
:100E0000EE23C9F0222339F0233001F1A8F4213078
:100E100019F1223029F1F0E0EE0FFF1FE05BF64FF1
:100E2000A591B4918FB7F894EC91611126C03095DB
:100E30003E233C938FBF08952730A9F02830C9F096
:100E4000243049F7809180008F7D03C0809180001D
:100E50008F7780938000DFCF84B58F7784BDDBCF21
:100E600084B58F7DFBCF8091B0008F778093B000E9
:100E7000D2CF8091B0008F7DF9CF3E2BDACFCF93C8
:100E8000DF9390E0FC01E259F64F2491865A964F89
:100E9000FC0184918823D1F090E0880F991FFC0118
:100EA000EA5BF64FA591B491FC01E05BF64FC5916A
:100EB000D49161110EC09FB7F8948C91E22FE09508
:100EC0008E238C932881E223E8839FBFDF91CF910B
:100ED00008958FB7F894EC91E22BEC938FBFF6CF87
:100EE0003FB7F89480918A0190918B01A0918C0179
:100EF000B0918D0126B5A89B05C02F3F19F0019632
:100F0000A11DB11D3FBFBA2FA92F982F8827BC0163
:100F1000CD01620F711D811D911D42E0660F771F8B
:100F2000881F991F4A95D1F708958F929F92AF928B
:100F3000BF92CF92DF92EF92FF926B017C010E94F1
:100F400070074B015C01C114D104E104F104B9F054
:100F50000E947007681979098A099B09683E7340E5
:100F60008105910580F321E0C21AD108E108F1085A
:100F700088EE880E83E0981EA11CB11CE4CFFF9080
:100F8000EF90DF90CF90BF90AF909F908F9008959B
:100F90002FB7F89460918601709187018091880144
:100FA000909189012FBF0895CF93DF931F92CDB702
:100FB000DEB769838F569F4FDC01ED91FC9161E0B4
:100FC00070E0CE01019609950F90DF91CF910895C1
:100FD000CF93DF93EC0165E10E94D4072F81388520
:100FE0002F5F3F4F38872F8381E02A3031050CF087
:100FF00080E0DF91CF910895FC01808191818F3F46
:10100000980729F02FEF3FEF318320830895E157B0
:10101000FF4F0190F081E02DCB0109942F923F9278
:101020004F925F926F927F928F929F92AF92BF92F8
:10103000CF92DF92EF92FF920F931F93CF93DF93A4
:1010400000D01F92CDB7DEB79B838A834B0181E02E
:10105000AA81BB8112968C9381E090E0A0E0B0E081
:10106000EA81FB8183839483A583B68310861782EC
:10107000332433946F01FEE8CF0ED11CAA80BB80CD
:1010800029E8A20EB11C6A807B8063E9660E711CA0
:1010900068EE73E08A819B810E94FC07F82E84E051
:1010A000F81609F4D5C0A8E1FA1609F4EDC0B1E0CC
:1010B000FB12F3C068E57BE18A819B810E94FC07FB
:1010C0008C01E82E68E57BE18A819B810E94FC0708
:1010D000F601108299279801209530953327AA812F
:1010E000BB8112964C9182179307A1F5E42FE15032
:1010F000FF0B0E171F0671F5D601FC920A811B81AA
:10110000075F1F4F78010983212E68E57BE18A8103
:101110009B810E94FC078F3F980709F1F70181939B
:101120007F01AE16BF0689F781149104F9F068E5D6
:101130007BE18A819B810E94FC0790E0D8012D9180
:101140008D01920FEA16FB06C9F7891308C03EC04D
:10115000312C9ECFE41203C08217930779F28A8163
:101160009B810E94E807811193CF70C068E57BE105
:101170008A819B810E94FC07582E412C68E57BE107
:101180008A819B810E94FC07A201482BF80190E014
:1011900080E0AE16BF06B9F02191022E000C330B91
:1011A000322F22278227932728E030E0BC01880FC6
:1011B000991F77FF04C061E2862760E196272150DE
:1011C0003109A1F7E6CF4817590749F63320C1F195
:1011D000D301ED91FC91309701F566E08A819B8106
:1011E0000E94D407F6018081811110C0EA81FB8141
:1011F00082818F5F828383819481A581B6810196EC
:10120000A11DB11D83839483A583B683AA81BB816D
:1012100018961C921E9217973BCFD6018C91811184
:10122000DCCFAA81BB8113966D917D918D919C91AC
:10123000169720E830E04981522D09958111CDCFD4
:101240008A819B810E94E807811182CF80E006C0DD
:1012500066E08A819B810E94D40781E00F900F9005
:101260000F90DF91CF911F910F91FF90EF90DF9042
:10127000CF90BF90AF909F908F907F906F905F9036
:101280004F903F902F90089568E57BE18A819B8184
:101290000E94FC0766E0489759F068E18A819B81CB
:1012A0000E94D40768E18A819B810E94D40768E18B
:1012B0008A819B810E94D407C9CFAB01BC018AEA15
:1012C00096E00C94C6050F931F93CF93DF93EC0128
:1012D0000E94C8078B0106C08AEA96E00E94240695
:1012E000892B71F40E94C807601B710B6C177D0776
:1012F0009CF38FEF9FEFDF91CF911F910F91089596
:101300008AEA96E00E9402069927DF91CF911F9109
:101310000F910895882321F0109285001092840087
:1013200081E086BB85E091E002C0B0990BC01B9BB9
:10133000FCCF85E091E002C0B09908C01B99FCCFBA
:1013400081E00895815031F096BBF1CF815011F0CA
:1013500096BBF4CF80E00895FF920F931F93CF9335
:10136000DF93C82FD62F8A01109285001092840037
:1013700080914E0790E0AC01440F551FFA01E158EF
:10138000FE4F2081318136952795369527953093EC
:10139000890020938800FC01E358FE4F2081211131
:1013A00069C085589E4FFC01808181FF93C0CC238A
:1013B00009F490C082E08093810010928500109221
:1013C000840080914E0790E0880F991FFC01E1583E
:1013D000FE4F885B984F20813181FC018081918193
:1013E000820F931F880F991F909389008093880024
:1013F000C150F2E0FF2EF6BAB19BFECFC8010E94A9
:10140000F60480914E0790E02091A506C1117FC09F
:10141000222309F4A6C020918400309185004091D8
:10142000750150917601880F991FFC01E958FE4F14
:10143000808191819695879596958795241B350B8C
:10144000369527953695279536952795821B930BCC
:1014500090938900809388001092850010928400F8
:1014600083E0809381000CC081E00E948A09C15012
:10147000882351F1C111F8CF109285001092840099
:10148000DD23B9F02091880030918900E0914E076A
:10149000F0E0EE0FFF1FE85BF84F80819181969599
:1014A000879596958795820F931F909389008093D7
:1014B00088008091880090918900892B21F082E03A
:1014C00086BBB19BFECF81E0DF91CF911F910F9141
:1014D000FF90089500918800109189004A55594F56
:1014E000FA01A081B1812C2F30E00E947B2D9695CE
:1014F0008795779567959695879577956795F80180
:10150000E60FF71FF0938900E0938800B9CF2223FC
:10151000E1F02091750130917601880F991FDC016F
:10152000A958BE4FFC01E85BF84F8D919C9140811A
:101530005181840F951F880F991F820F931F9093DD
:10154000890080938800C15056CF20918800309147
:101550008900880F991FFC01EA55F94F808191811C
:10156000ECCF40918400509185002091880030910B
:101570008900880F991FFC01EA55F94F421B530B54
:101580005695479520813181241B350B885B984FF8
:10159000FC0180819181A901481B590BCA019695D4
:1015A00087959695879554CF1F93CF93DF9381E0CE
:1015B0000E948A09182F882341F180914E0790E0FC
:1015C000FC01E358FE4F2081222301F1880F991F6F
:1015D000FC01EA55F94F80819181EC01CC0FDD1FB0
:1015E000C80FD91FD295C295CF70CD27DF70CD27F8
:1015F00007C08091840090918500C817D90758F4DE
:1016000081E00E948A098111F4CF10E0812FDF91DF
:10161000CF911F91089581E00E948A098823A9F340
:101620008091840090918500C817D90748F3EECFC8
:101630000F931F93CF93DF93062F142F882309F462
:101640004DC0C0914E07D0E0FE01E358FE4F8081AF
:10165000811125C0662331F0FE01E558FE4F8081DF
:1016600081FD61C02091880030918900CC0FDD1F81
:10167000CA55D94F88819981880F991F820F931F6E
:101680009093890080938800112321F082E086BB2B
:10169000B19BFECFDF91CF911F910F91089581E013
:1016A0000E948A098823B1F3109285001092840069
:1016B000CC0FDD1FFE01E158FE4F80819181880F24
:1016C000991F90938900809388000023E9F220916C
:1016D000880030918900C85BD84FCCCF0E94D40AD3
:1016E0008823C1F2109285001092840080914E07E9
:1016F00090E0880F991FFC01E158FE4F2081318155
:10170000220F331F3093890020938800002309F4AF
:10171000BBCF2091880030918900885B984FFC01F5
:1017200080819181A9CF8091A506882309F49ACF61
:101730002091750130917601CC0FDD1FFE01E95833
:10174000FE4FC85BD84F8081918148815981840FB9
:10175000951F92CFCF93C82F8FE991E00E94B306D7
:101760008FE791E0C13071F086E991E0C13050F02F
:1017700084E691E0C23031F086E591E0C33011F0AB
:1017800087E491E0CF910C94B306CF92DF92EF9271
:10179000FF920F931F93CF93DF936A017B012091F8
:1017A0004E0730E0F901E45BF84F108190E2C91672
:1017B0009EE4D906E104F10408F07AC0113009F47E
:1017C000ACC001E05AE0C52E5BE8D52E52E0E52E14
:1017D000F12C23583E4F91E0F9019083C82FD0E0BF
:1017E000FE01ED55F94F208130E050E040E0C701A7
:1017F000B6010E949E2DC901AE01440F551FFA018A
:10180000EA55F94F91838083FE01EA5BFE4F008326
:10181000FE01E45BF84F2081213009F46FC031E212
:10182000C3163FEBD30632E0E306F10408F050C0E4
:1018300060E971E0B8ECEB2EF12CFA01E85BF84FAF
:10184000F182E082233009F451C0FA01E158FE4FE1
:101850001182108230E020E0C358DE4FE881E111B0
:1018600005C0FC01F695E7952E0F3F1FFA01E158E0
:10187000FE4F2530310510F425E030E03183208320
:10188000861B970B20E432E2113011F020E231E1A7
:1018900049585E4F821B930BFA0191838083DF913D
:1018A000CF911F910F91FF90EF90DF90CF9008950F
:1018B00023583E4FF901108201E0F1E2CF16FFEB11
:1018C000DF06F2E0EF06F10408F488CF00E086CFEF
:1018D00060E273E000E9E02EFF24F394FA01E85B94
:1018E000F84FF182E082233009F0AFCF28E631E0F3
:1018F000FA01E158FE4F31832083AECF24EF31E06F
:10190000FA01E85BF84F31832083FA01E158FE4F7A
:101910001182108268EE73E09DCF00E040E4C42E97
:101920004DE0D42E43E0E42EF12C53CF8130A9F0CA
:1019300080F0823031F0833041F48CE790E00C94F9
:10194000B3068FE890E00C94B30684E790E00C9423
:10195000B30685EF90E00C94B30682EC90E00C9413
:10196000B30698B1937F492F4860292F2460392FFF
:101970003C602C9887FD3BC098B928B986FF34C0DD
:1019800048B938B985FF2DC048B938B984FF26C099
:1019900048B938B983FF1FC048B938B982FF18C0A9
:1019A00048B938B981FF11C048B938B980FF0AC0B9
:1019B00048B938B9662321F035E03A95F1F70000CF
:1019C0002C9A089598B928B9F5CF98B928B9EECFCF
:1019D00098B928B9E7CF98B928B9E0CF98B928B90C
:1019E000D9CF98B928B9D2CF98B928B9CBCF48B9AF
:1019F00038B9C4CF8F929F92AF92BF92CF92DF92AD
:101A0000EF92FF920F931F93CF93DF93EC012091FE
:101A10004E0730E0F901EE0FFF1FE85BF84F8081C1
:101A20009181880F991F245B384FF9012081213063
:101A300009F42EC196958795969587956695669536
:101A4000F82EF61A299A80914707C82EE894C6F80E
:101A500060E08C2D0E94B10C69E8FE01DF01762F59
:101A60008F2D90E0639500E02FEF40916801426078
:101A70004E7F50916B0151602998D89950C0299A96
:101A800001FD66C0359927C0349B5CC0319917C0F1
:101A900030990BC04BB92AB92D98026000000000A4
:101AA00000000000000000006AC05BB92AB92D9850
:101AB00002600000000000000000000060C02BB9C0
:101AC0002AB92D980260000000000000000000000C
:101AD0000000000054C036B119B12D98026030FDED
:101AE0000EC031FF15C0772B29F01D937A950000A9
:101AF000000045C0000000000000000040C00000E1
:101B0000000000000000000000000000000037C0DE
:101B100000000000000000000000000030C0299A12
:101B2000D89A1B990BC0A0908400B09085000860E3
:101B300033E03A95F1F70000000021C035E03A9516
:101B4000F1F71DC034E03A95F1F70000000017C02E
:101B500016B1107371F410E01AB92D9AD99A0D7F4D
:101B60000000000000000000000000000000000075
:101B700006C034E03A95F1F70000000000C097FD80
:101B800002C0000001C0299801FD13C0299A3599AF
:101B900036C0349B23C036B1337031F44BB92AB907
:101BA0002D98026000003AC0000000000000000014
:101BB00035C0299A16B1107341F410E01AB92D9A64
:101BC000D99A0D7F0000000029C00000000000002D
:101BD0000000000000000000000020C00000000025
:101BE00000000000000000000000000017C000001E
:101BF0000000000000000000000000000FC0319B4A
:101C0000F6CF19B12D980260772B31F40000000057
:101C100000000000000002C01D937A95815041F041
:101C2000990F00000000000000000000000024CF19
:101C3000919188E0615011F000001ECF000000007B
:101C40002998000000000000299A01FF07C016B182
:101C50001073E9F710E01AB92D9AD99A0870009319
:101C60006C01A0926101B09262018C2D806480931E
:101C7000470760E0DF91CF911F910F91FF90EF90A8
:101C8000DF90CF90BF90AF909F908F900C94B10C4D
:101C90009695879596958795969587956695669579
:101CA0006695C82EC61A219880EC8093800080919A
:101CB000820080688093820010928000219A809137
:101CC00047078F7B8093470760E00E94B10C8090AC
:101CD00088009090890080918400909185000896FA
:101CE000909389008093880082E086BB80E4809393
:101CF000800069E8FE01DF01762F8C2D90E063956E
:101D00000091680102600E7FD02E00916B0101608E
:101D1000E02E0FEF202F00E0F02E01E04091880030
:101D200050918900B19B1EC030E83093820000FDC5
:101D300003C0016038E00DC0990F815021F49191EA
:101D400088E0615071F097FD02C030E102C038E0D8
:101D50000E7F430F5F1D5093890040938800B19A16
:101D6000E1CF3EC0D89B09C0D89A1B99DBCFA09089
:101D70008400B09085000860D5CF01FD29C0359959
:101D80001CC0349BCFCF319913C030990CC03D2D6E
:101D9000162F171B18F01B3008F031603BB92AB919
:101DA0002D980260BFCFEBB82AB92D980260BACF48
:101DB0002BB92AB92D980260B5CF36B119B12D983B
:101DC000026031FFAFCF772B11F01D937A95AACF28
:101DD00016B1107321F4FAB82D9AD99A0D7FA2CFBB
:101DE00001FF06C016B11073E9F7FAB82D9AD99A17
:101DF000087000936C01A0926101B0926201809121
:101E0000470780648093470760E00E94B10C1092FE
:101E100080009092890080928800DF91CF911F917D
:101E20000F91FF90EF90DF90CF90BF90AF909F9079
:101E30008F900895CF92DF92EF92FF920F931F93AE
:101E4000CF93DF93CDB7DEB7C958D1090FB6F89459
:101E5000DEBF0FBECDBF082F162FF89483E080930E
:101E600081000E94D40A811115C011E010928100F6
:101E70007894812FC757DF4F0FB6F894DEBF0FBE9F
:101E8000CDBFDF91CF911F910F91FF90EF90DF9029
:101E9000CF900895AE014F5F5F4F60E0802F0E94AA
:101EA000AC09882311F382E08093810010928500B1
:101EB000109284001092890010928800E0914E07E1
:101EC000F0E0ED55F94FE080F12C8FE8C82E81E06D
:101ED000D82E60E0C6010E94FA0C115039F289E850
:101EE000C80ED11C802F90E00196B7010E948A2D68
:101EF000082F41E060E00E94180B60E0C6010E94DC
:101F0000FA0C115009F4B2CFEACFCF93C82F8091C9
:101F1000470760E08F7D0E94B10C4298C1110FC04D
:101F20004398429A8091470761E080620E94B10C19
:101F30003AE13A95F1F700000000CF910895439AF5
:101F4000F0CFEF92FF920F931F93CF93DF93F92E71
:101F5000FF1CFF24FF1CEC0197FF04C0CC27DD27EA
:101F6000C81BD90B2197892BF9F000914E0710E07F
:101F7000F801E45BF84FE080065A1E4F8F2D0E9457
:101F8000850F81E0E816F1F0F80180818F3F21F0A4
:101F9000F11016C08F5F80836AE070E080E090E00F
:101FA0000E949507219750F76AE570E080E090E085
:101FB000DF91CF911F910F91FF90EF900C949507B7
:101FC0008150E9CF64E070E080E090E00E949507E6
:101FD0008F2D0E94850FD8CF282F3B9842982A9AA0
:101FE00090E080E00000000000000000880F3399BE
:101FF0008160429A42989F5F2913F4CF2A983B9AB6
:102000000895CF93DF9382E00E94EC0F80FD18C00B
:1020100080914E0790E0FC01E45BF84F2081233073
:1020200091F081E00E94EC0F80FD28C081E090E0FB
:102030000E94A10F8FEF9FEFDF91CF910C94A10F22
:10204000DF91CF9108958D589E4FFC018081C1E0B2
:10205000D0E001C0CC0F8A95EAF7D091470760E045
:102060008C2F8D2B0E94B10C8C2F80958D2380930B
:10207000470760E0DF91CF910C94B10C8FEF9FEF99
:102080000E94A10F81E090E0DF91CF910C94A10F0D
:10209000EF92FF920F931F93CF93E0904E07F12C96
:1020A000C1E58701045B184F08C063E070E080E081
:1020B00090E00E949507C150A1F081E00E94EC0FD2
:1020C00080FF16C081E00E94850FF8018081833077
:1020D00061F76AE070E080E090E00E949507C150EF
:1020E00061F780E0CF911F910F91FF90EF900895DD
:1020F000F701E65AFE4F108281E0CF911F910F91B8
:10210000FF90EF9008951F93CF93DF93182FC09106
:102110004E07D0E0C65ADE4F88818F3F61F0212FF5
:10212000281B330BC9010E94A10F188380E0DF91A7
:10213000CF911F9108950E944810882311F0888143
:10214000EECF82E0DF91CF911F910895FC010190C5
:102150000020E9F73197AF01481B590BBC018AEA0F
:1021600096E00C94C60588E191E00C94A610CF93FC
:10217000DF930E94B306EC010E94B3108C0F9D1FE9
:10218000DF91CF910895CF93DF930E94CE06EC01AB
:102190000E94B3108C0F9D1FDF91CF9108950E9474
:1021A000B31083E395E00E94B7108AED94E00E949B
:1021B000B71087EB94E00E94B71088E894E00E9483
:1021C000B7108DE394E00E94B7108DEF93E00E946A
:1021D000B7108DEB93E00E94B71086E993E00E9460
:1021E000B7108BE693E00E94B7108FE393E00E9454
:1021F000B71081E293E00E94B7108FEF92E00E9447
:10220000B7108EED92E00E94B71088EA92E00E942B
:10221000B71087E792E00E94B71088E292E00E9430
:10222000B71082E092E00E94B7100C94B3108F9226
:102230009F92AF92BF920F931F93CF93DF93CDB72F
:10224000DEB7A1970FB6F894DEBF0FBECDBF19A2BF
:10225000423008F44AE08E010F5D1F4F842E912C0E
:10226000B12CA12CA50194010E949E2DE62FB9014D
:10227000CA01EA30F4F4E05DD801EE938D01232B1E
:10228000242B252B79F790E080E0109719F0CD01F1
:102290000E94A610A1960FB6F894DEBF0FBECDBF68
:1022A000DF91CF911F910F91BF90AF909F908F9032
:1022B0000895E95CE1CFCF92DF92EF92FF92CF9346
:1022C000DF936B017C018DE20E94CE06EC01662754
:1022D0007727CB016C197D098E099F094AE00E947E
:1022E00017118C0F9D1FDF91CF91FF90EF90DF9022
:1022F000CF900895CF93DF93682F70E090E080E057
:102300004AE00E941711EC010E94B3108C0F9D1F30
:10231000DF91CF910895CF93DF93BC01990F880B84
:10232000990B97FF0AC00E945B11EC010E94B31049
:102330008C0F9D1FDF91CF9108954AE00E941711E5
:10234000F4CF8F929F92AF92BF92CF92DF92EF9293
:10235000FF92CF934B015C0128EE33E040E050E068
:102360000E949E2DCA01B9014AE00E9417118EE217
:102370000E94CE06C501B40124E630E040E050E002
:102380000E949E2D8AE0C82ED12CE12CF12CCA018E
:10239000B901A70196010E949E2D80E3860F0E943D
:1023A000CE06C501B401A70196010E949E2DC62F3D
:1023B000CA01B901A70196010E949E2D80E3860FF4
:1023C0000E94CE0680E38C0FCF91FF90EF90DF90BC
:1023D000CF90BF90AF909F908F900C94CE068F922D
:1023E0009F92AF92BF92CF92DF92EF92FF921F9394
:1023F000CF93DF93D0E0811101C0D2E08DED91E069
:102400000E94B30660914E0770E090E080E04AE0E1
:102410000E94171188ED91E00E94B306812C912C47
:10242000540113E01093810081E00E948A09C4E006
:10243000C12CD12C7601882309F449C081E00E9487
:102440008A09882309F443C0809184009091850013
:10245000C80ED91EE11CF11CC15081F710928100F9
:10246000C114D104E104F10491F1D23020F08C0CBC
:102470009D1CAE1CBF1CDF5FD630A1F6B694A7949E
:1024800097948794B694A79497948794C0914E0795
:10249000B501A4018C2F0E94C50BD0E0FE01E358CA
:1024A000FE4F80818823E1F08FEA91E00E94B3061D
:1024B000CA5BDE4F8881882331F168E671E080E0F5
:1024C00090E04AE00E9417118AEA91E00FC08FEB7A
:1024D00091E00E94B3068AEA96E00E94D306CCCF30
:1024E000C501B4010E94A11187EA91E0DF91CF916B
:1024F0001F91FF90EF90DF90CF90BF90AF909F9093
:102500008F900C94B7106CE271E080E090E0D9CF2E
:10251000CF93DF93C0914E07D0E0FE01ED57FE4F01
:10252000208181E090E001C0880F2A95EAF780952C
:102530009091470789238093470760E00E94B10C80
:10254000FE01E45BF84F80818330B1F064EF71E00D
:1025500080E090E00E94950782E00E94EC0FCC0F93
:10256000DD1FCA55D94F80FF0CC088819981892B06
:1025700061F0DF91CF91089563E270E080E090E038
:10258000E9CF198218820E94011081E0DF91CF917A
:102590000C94EF1181110C948812E0914E07F0E039
:1025A000ED57FE4F208181E090E0AC0102C0440F66
:1025B000551F2A95E2F780914707842B80934707A0
:1025C00060E00C94B10C8091470790E0B0E0A0E08F
:1025D000E0914E07F0E0ED57FE4F208104C0B69524
:1025E000A795979587952A95D2F780FD07C082E039
:1025F0000E94EC0F80FF06C080E008950E948812C0
:1026000081E008950E94011080E00E94EF1181E0B6
:1026100008950F931F93CF93DF93C82F80E491E029
:102620000E94B3066C2F70E090E080E04AE00E94C8
:10263000171186E391E00E94B306D0E08E01045B9F
:10264000184FF801608170E090E080E04AE00E945D
:10265000171183E391E00E94B306F80180810E9484
:10266000960CC558DE4FC881C0FD0CC0C1FF04C028
:102670008AEF90E00E94B306DF91CF911F910F91F6
:102680000C94B31089E191E00E94B306EFCF8F92D2
:102690009F92AF92BF92CF92DF92EF92FF920F93F1
:1026A0001F93CF93DF93CDB7DEB7C958D1090FB6CB
:1026B000F894DEBF0FBECDBF182F062FF89483E02D
:1026C000809381000E94D40A81111AC099249394A6
:1026D000109281007894892DC757DF4F0FB6F89478
:1026E000DEBF0FBECDBFDF91CF911F910F91FF9045
:1026F000EF90DF90CF90BF90AF909F908F90089514
:10270000AE014F5F5F4F61E0812F0E94AC098823CB
:10271000E9F282E08093810010928500109284009B
:102720001092890010928800912C9FE8E92E91E088
:10273000F92E22E0822ECE0101960E94F604C12ECF
:10274000D12C8FEFC81AD80AE0914E07F0E0ED5572
:10275000F94FA080B12C013041F0C601B5010E94B3
:102760008A2D40E061E00E94180B49E850E0BE016C
:102770006F5F7F4FC7010E94C52F0150892B71F4F5
:1027800089E8E80EF11CC601B5010E948A2D182FB8
:1027900086BAB19BFECF0111CECF9ACF49E850E067
:1027A000B7018FE891E00E94DB2F89E8FE013196A6
:1027B000A8E1B2E001900D928A95E1F710938E01A5
:1027C00000E083E0982EDCCF8F929F92AF92BF9271
:1027D000DF92EF92FF920F931F93CF93DF937C01D1
:1027E000812C912C540160E38AEA96E00E946606EF
:1027F00040E160E070E0CB010E9417118FE0881586
:1028000028F060E38AEA96E00E94660640E1C5018E
:10281000B4010E9417116AE38AEA96E00E946606F4
:102820008701D0E0C0E01BC0F801D1908F01FFE02C
:10283000FD1528F060E38AEA96E00E9466066D2D99
:1028400070E090E080E040E10E94171160E28AEAC7
:1028500096E00E9466062196C031D10559F0CE015E
:1028600087709927892B01F760E28AEA96E00E9437
:102870006606DACF60E28AEA96E00E946606870181
:10288000D0E0C0E014C0F801D1908F018D2D90E010
:102890000E94BE2F892B11F48EE2D82E6D2D8AEA6C
:1028A00096E00E9466062196C031D10559F0CE010E
:1028B00087709927892B39F760E28AEA96E00E94AF
:1028C0006606E1CF0E94B310F0E1EF0EF11C80E14B
:1028D000880E911CA11CB11CE0E98E169104A10484
:1028E000B10409F080CFDF91CF911F910F91FF903C
:1028F000EF90DF90BF90AF909F908F9008950F93CF
:102900001F93CF93DF93EC0188819981009759F051
:102910002A813B812617370730F081E0DF91CF9184
:102920001F910F9108958B016F5F7F4F0E94FF2EC3
:10293000009759F0998388831B830A832C813D81FA
:10294000232B59F7FC011082E8CF80E0E7CFCF932B
:10295000DF93EC0188819981009711F00E94762E17
:10296000198218821D821C821B821A82DF91CF91EC
:102970000895EF92FF920F931F93CF93DF93EC0193
:102980007B018A01BA010E947F1481110BC0CE0124
:102990000E94A714CE01DF91CF911F910F91FF905C
:1029A000EF9008951D830C83B701888199810E945F
:1029B000ED2FF0CFFB0101900020E9F73197AF0137
:1029C000461B570B0C94B914CF93DF93EC01FB011A
:1029D0008617970749F0608171816115710541F093
:1029E000448155810E94B914CE01DF91CF910895A1
:1029F0000E94A714F9CFFC0180819181009711F00A
:102A00000C94762E0895CF9310928000109281003E
:102A1000109282001092B0001092B10061E081E14A
:102A20000E94F30661E080E10E94F30660E08CE022
:102A30000E94F30660E08AE00E94F30661E089E00C
:102A40000E94F30660E08DE00E94F30661E081E100
:102A50000E943F0761E080E10E943F0761E08CE057
:102A60000E943F0761E089E00E943F0760E08BE041
:102A70000E943F0761E08AE00E943F0760E088E033
:102A80000E943F0760E08EE00E943F0760E08FE019
:102A90000E943F0761E08DE00E943F0760E082E115
:102AA0000E943F0760E083E10E943F071AB8CFEF22
:102AB000C093470760E08FEF0E94B10CC0936B0199
:102AC000C093680180916C00806180936C0080915C
:102AD0006C00806280936C0080916B0088608093B2
:102AE0006B0083E08BBB90E080E00E94232D863456
:102AF00031F481E090E00E94232D8434F1F066E40B
:102B000090E080E00E942B2D64E481E090E00E9440
:102B10002B2D63E482E090E00E942B2D60E083E0A7
:102B200090E00E942B2D60E084E090E00E942B2D2D
:102B300087E08093B100CF91089582E090E00E94F9
:102B4000232D8334E1F6F4CF0F931F93CF93DF93BC
:102B5000182F042FC82FD0E0FE01E45BF84F6083EC
:102B6000613029F160F0643050F480E2FE01ED55EF
:102B7000F94F80838DE4FE01E25BFE4F808384E0A9
:102B800090E00E94232D91E0113009F090E0901721
:102B900019F0869586958695C558DE4F877088838F
:102BA000812FDF91CF911F910F910C94091380E138
:102BB000FE01ED55F94F808383E2DDCFCF93DF93A4
:102BC000CDB7DEB7CA5CD1090FB6F894DEBF0FBE31
:102BD000CDBFE091BA06F091BB0682E08083E09120
:102BE000B606F091B7061082E091B806F091B906EA
:102BF00080E180831092C206E091BE06F091BF068C
:102C000086E08083E091BC06F091BD068081806102
:102C10008083E091BC06F091BD068081886080834E
:102C2000E091BC06F091BD06808180688083E091D0
:102C3000BC06F091BD0680818F7D808384E00E9478
:102C4000EC0F80FD02C00C94CD1E0E94B3108AEAE6
:102C500096E00E94D3068AEA96E00E94D306E091AD
:102C6000BC06F091BD0680818F7E8083E091BC061A
:102C7000F091BD068081877F8083E091BC06F09152
:102C8000BD0680818F778083E091BC06F091BD0600
:102C900080818F7D80838091C4068093C306F894E1
:102CA00061E08DE00E94F30688E00E94EC0F182F8F
:102CB0001095812F8470912F9170512F5870A52EEF
:102CC00013FF06C0212F2370213011F40C94412BE7
:102CD00081110C94C31ECC24C394D12CF12CE12C73
:102CE00000E0BB24B394992311F40C94BC1E63E060
:102CF000A1100C94A91E402F0E94A41563E011FF9F
:102D000062E0402F8B2D0E94A415F701ED58FE4F75
:102D100083E08083F701ED57FE4F81E08083F60169
:102D2000ED58FE4F82E08083F601ED57FE4F84E0C0
:102D30008083109272011092A7061092A60610923C
:102D4000A9061092A80610926F0110926E011092BF
:102D500071011092700110927D0110927E0110920B
:102D60004E0780914C07813009F0DEC780914707FC
:102D70008E7F8093470760E00E94B10C1AB893E001
:102D80009BBB16BC10926E0082E084BD95BD99EF8E
:102D900097BDA99A10926D0110926C0180938100E9
:102DA00099249A94AA24A394B12C93E0692EEE243A
:102DB000EA9422242394312C07E0F02E61C0D899A4
:102DC00005C080916C01882309F456C01B9B05C087
:102DD00080916C01882309F44AC080916C0188239A
:102DE00009F442C100916101109162018091840057
:102DF00090918500801B910B9093850080938400B7
:102E00008091720181113DC180914E0790E0FC01DB
:102E1000E358FE4F2081222309F462C1880F991FD5
:102E2000FC01EA55F94F408151819A01220F331F6D
:102E3000240F351F369527950217130708F09CC1FC
:102E400020915C01222371F081589E4FDC018D910D
:102E50009C91880F991F909389008093880081E04E
:102E600080936D0181E080935C0182E086BB80915C
:102E70006C018111F6C0D89AA99938C0B19981C066
:102E8000D99B9DCF349946C1359B99CF86B183702C
:102E9000D9B02D983599FECF2D9AD99A813009F461
:102EA000C8C1882309F444C2833009F088CF6D2D4E
:102EB00084E090E00E942B2D88E00E94EC0F80952A
:102EC00082FB112710F983FF04C08370813009F45D
:102ED00011E0412F60914C0780E00E94A415412F22
:102EE00060914D0781E00E94A41569CF8091650132
:102EF000882399F081508093650181110EC09091D3
:102F0000640181E0992309F481C10CF480E00E94FE
:102F1000850FF09265011092640180916901909192
:102F20006A01009779F0019790936A018093690193
:102F3000892B41F480916D01811162C130926A0147
:102F40002092690180916E0190916F01009741F08C
:102F5000019790936F0180936E01892B09F421C131
:102F60008091700190917101009741F001979093C9
:102F7000710180937001892B09F443C0A99AB19B18
:102F80007FCF80916D01833009F49FC208F0D7C0D4
:102F9000813009F487C2823089F5809168018168A7
:102FA0008093680160916B0120914E0730E0F90138
:102FB000ED55F94F808190E0880F991FAC01415089
:102FC00051096417150609F412C320916B012F5F94
:102FD00020936B0120916B012817190611F41092B0
:102FE0006B0180916B018091880090918900CC9653
:102FF000909389008093880060926D0182E086BB87
:10300000DBCE80918401A50102C0440F551F8A9533
:10301000E2F710914707142B1093470760E0812FC8
:103020000E94B10C80914D07833079F0809174013A
:10303000B50102C0660F771F8A95E2F7CB01812B9D
:103040008093470760E00E94B10C80914E07813069
:1030500009F094CF80916801846080936801A99AF7
:103060008ECF10926C0108CF0091840010918500E2
:10307000109285001092840080917201882309F4D7
:10308000C3CE8150809372018430D8F540915D01A8
:1030900050915E0160915F0170916001400F511F7E
:1030A000611D711D40935D0150935E0160935F014E
:1030B000709360018111D9CE80914E070E94C50B9B
:1030C0001092720182E08093810010925C01109254
:1030D000850010928400809172018111C6CE94CE39
:1030E000880F991FFC01E158FE4F80819181880F64
:1030F000991F909389008093880081E080936D01EF
:10310000B4CE10925D0110925E0110925F01109298
:103110006001ABCE86B18370823009F4F6C0813095
:1031200009F42FC2811156C2809168018BB99AB8F7
:103130002D983499FECF1AB82D9AD99A40CE843062
:1031400009F4F0C1853009F059CF10926D018091DA
:10315000680182FD53CF809168018460809368018B
:103160008091690190916A01892B09F047CF3092D3
:103170006A012092690142CF20916D01222371F0F2
:1031800081589E4FFC0180819181880F991F9093F7
:1031900089008093880082E080936D0110925C0129
:1031A00064CE80918301850102C0000F111F8A95B2
:1031B000E2F7C80110914707182B1093470760E00A
:1031C000812F0E94B10C80914C07833079F080915F
:1031D0007301950102C0220F331F8A95E2F7C901DE
:1031E000812B8093470760E00E94B10C80914E07CD
:1031F0008111B6CE80916801846080936801B0CE61
:10320000809168018B7F809368019CCE0E94EC0FB7
:1032100080FFC0C1809168018064809368018091C3
:1032200063018111C1C1809168018D7F8093680124
:1032300074CE8091680183FDC2CD8D2D837021F005
:103240008091680181FF5FC3D2FC99C2D3FE4AC05E
:1032500080914E0790E0FC01E45BF84F2081213023
:1032600009F440C020916801246020936801109205
:103270006A011092690120917201222351F010928B
:10328000720182E08093810010925C0180914E0770
:1032900090E04091470750E070E060E0FC01ED579E
:1032A000FE4F208104C076956795579547952A95DE
:1032B000D2F740FD17C0FC01EE0FFF1FDF01A2593E
:1032C000BE4F2D913C91232B69F4845B984FDC0118
:1032D0008C91833009F447C480E099E1E259FE4FB4
:1032E00091838083D7FE6BCD8091680182FD67CD8D
:1032F00020916D018DEF820F823008F4F5C380912B
:1033000068018E7F809368015ACD209166013091CB
:103310006701F901E157FE4F8081293831050CF032
:1033200060C12F5F3F4F3093670120936601FECE4F
:10333000D7FCE3C10D2D0F70D02E11E0101708F44B
:103340003ECD9091680180914E0793FDA4C2082F55
:1033500010E0D81609F433CDF801ED58FE4F808106
:10336000950102C0220F331F8A95E2F7C0904707EC
:10337000C22AC092470760E08C2D0E94B10C8C2DB0
:1033800090E0B0E0A0E0F801ED57FE4F208104C0CE
:10339000B695A795979587952A95D2F780FD10C089
:1033A000F801E45BF84F8081833009F43FC380E08B
:1033B00099E1000F111FF801E259FE4F91838083BC
:1033C000D0924E070D2D10E0F801E45BF84FD0804D
:1033D00031E08C2DD312F8C28E7F8093470760E0D6
:1033E0000E94B10CE0926801DD2029F08091680113
:1033F000857F8093680180917201882351F010923B
:10340000720182E08093810010925C0100914E076E
:1034100010E0C0904707F801ED58FE4F2081422E82
:103420008C2D90E0B0E0A0E0022E04C0B695A795E8
:10343000979587950A94D2F780FF98C1A50102C09D
:10344000440F551F2A95E2F7C155DF4F5983488332
:10345000CF5AD040C155DF4F7880CF5AD0408C2C06
:10346000D42ED094DC20F801E45BF84F80818330C7
:1034700009F4AFC2D092470760E08D2D0E94B10CD5
:1034800081E00E94EC0F80FD05C0809168018F7B78
:1034900080936801882D87298093470760E00E9408
:1034A000B10C8DCCE0926B018091690190916A0121
:1034B000019709F072CD809168018B7F809368013C
:1034C00010926A011092690168CD80916B01816050
:1034D00080936B012091680180914E0790E022FF5C
:1034E00094C0FC01EE0FFF1FEA55F94F2081318196
:1034F00083589E4FFC018081409188005091890043
:10350000882309F4F2C0C901880F991F280F391FB9
:10351000240F351F309389002093880085E0809325
:103520006D016CCD1092A5068091680182FFABC041
:1035300080914E0790E0FC01E358FE4F208121115D
:103540007BC0FC01E558FE4F208121FF89C02091FE
:10355000A506222309F484C02091750130917601DB
:10356000880F991FFC01E958FE4F80819181880FD7
:10357000991F820F931F909389008093880082E0A7
:10358000CECF8091680182FF02C08FEFCFCD8091B6
:103590006B01CCCD809168018F7B80936801809115
:1035A0006301882309F43FCEE0914E07F0E0ED5827
:1035B000FE4F8081950101C0220F8A95EAF7809124
:1035C0004707822B8093470760E00E94B10C10925E
:1035D000630129CE8330C9F684E090E00E94232D58
:1035E000A5CD909168019068909368019FCD235874
:1035F0003E4FD9012C912111E8CC80916B01816063
:1036000080936B0110926D01F9CC2091880030916C
:103610008900880F991FFC01E85BF84F8081918138
:103620008E519048880F991F820F931F90938900A5
:103630008093880084E073CF2091880030918900C6
:10364000880F991FFC01EA55F94F80819181880FFD
:10365000991F820F931F90938900809388005ECFFB
:103660002091880030918900880F991FDC01AA55AC
:10367000B94FFC01E85BF84F8D919C9140815181DD
:10368000841B950B74CF8FE891E00E94F60490E0C4
:103690009093670180936601893891052CF480919D
:1036A00068018F77809368018091B20020916E014C
:1036B00030916F0182958F7090E08217930730F4FC
:1036C000281B390B30936F0120936E0120917001FC
:1036D000309171018217930708F02ACF281B390B0C
:1036E000309371012093700123CFC9018E5190480E
:1036F000880F991F840F951F3ECF10926A01109278
:10370000690110926501E09268018091720188233D
:1037100039F01092720182E08093810010925C0176
:1037200080914E0790E04091470750E070E060E0E4
:10373000FC01ED57FE4F208104C0769567955795A3
:1037400047952A95D2F740FD3ACBFC01E45BF84F50
:103750002081233009F43AC120E039E1880F991F14
:10376000FC01E259FE4F3183208329CB81E00E9486
:10377000EC0F80FD24CB809168018F7BC3CD4090FE
:103780004E07512C8091680182FFACC02091470701
:10379000822F90E0B0E0A0E0F201ED58FE4F1081E2
:1037A000AC01BD01012E04C07695679557954795EC
:1037B0000A94D2F74170552766277727C155DF4F06
:1037C000488359836A837B83CF5AD040F201ED57F7
:1037D000FE4F0081C0907201002E04C0B695A795DF
:1037E000979587950A94D2F780FD45C1C155DF4F63
:1037F000688179818A819B81CF5AD040672B682B61
:10380000692B09F051C0C1102AC082E00E94EC0F60
:1038100080FDACC1F201E45BF84F8081833009F494
:1038200060C281E00E94EC0F80FD03C081E00E9435
:10383000850FF201EE0FFF1FEA55F94F118210823A
:1038400010926D018091680184608093680160929C
:10385000810095E09093720140904E07512CC20177
:10386000880F991FF201E45BF84F208140916901B4
:1038700050916A01452B29F4309168013B7F3093C8
:1038800068012130C1F182599E4FDC011D921C92CA
:1038900010926301DBCC082F10E0D8125DCDF80147
:1038A000E45BF84FD0809ECDC501012E01C0880F8A
:1038B0000A94EAF7809582238093470760E00E948C
:1038C000B10CCC2009F4A1CF10926D0125E230E0BB
:1038D00030936A012093690110925C01D89A40905C
:1038E0004E07512CF201E45BF84F2081C201880F92
:1038F000991F213041F682599E4FE0E0F9E1DC0149
:10390000ED93FC93C5CF882483946D2D6270C62EF1
:10391000D1FE812C2091470700914E0710E0F8015D
:10392000ED58FE4F3081822F90E0B0E0A0E0032EF2
:1039300004C0B695A795979587950A94D2F780FD10
:103940008AC010926301CC2029F081E00E94EC0F24
:1039500080FF03C0882D0E94850FF801E558FE4FB7
:10396000808180FF08C0F801E358FE4F80818111FB
:1039700002C010926D018091680182FF06C08091A3
:10398000690190916A01892B31F086E190E0909372
:103990006A0180936901F801E45BF84F808181300E
:1039A00009F447C0BAE0B09365019091630199238F
:1039B00019F0833009F449C11092640180916801C3
:1039C00086688093680140CC816007CD24E630E0B2
:1039D000C5CED092470760E08D2D0E94B10C80913A
:1039E0007201882309F4DBC010926D0165E270E07A
:1039F00070936A016093690110925C018D2D90E0D3
:103A0000B0E0A0E0042C04C0B695A79597958795E3
:103A10000A94D2F780FFAACEC50101C0880F4A944C
:103A2000EAF7782E8D2C8095D82224CD84E690E07C
:103A3000C0CC94E0909365018FEFC11081E080933A
:103A40006401F801EE0FFF1FE259FE4FA0E0B9E15B
:103A5000B183A083B3CFC50101C0880F3A95EAF7BF
:103A6000809582238093470760E00E94B10C81E03B
:103A70008093630168CFB50102C0660F771F1A9566
:103A8000E2F7CD54DF4F79836883C35BD040862E45
:103A90008094122F182160E0812F0E94B10CC50183
:103AA00001C0880F0A95EAF78095182310934707FD
:103AB00060E0812F0E94B10C85E290E090936A0152
:103AC00080936901CC2009F4D9C0C201880F991FE5
:103AD000F201E45BF84F2081233009F4F4C0109226
:103AE0006D0110925C01CDCE80914E0790E0FC01FB
:103AF000E358FE4F8080880F991FFC01EA55F94F6B
:103B000000811181243009F47FC080918800909158
:103B100089002091840030918500821B930B96953B
:103B200087956EE1681B8FE891E00E94FA0C811086
:103B30005AC02091880030918900C8018E51904868
:103B4000880F991F820F931F90938900809388009C
:103B500082E080936D0180916B01816080936B01A5
:103B600082E086BB2CC984E690E0B8CBC201880F06
:103B7000991FFC01EA55F94F20813181232B09F46B
:103B80005FCEC155DF4F088119812A813B81CF5A11
:103B9000D040012B022B032B09F464CE95CE82E09A
:103BA0000E94EC0F80FF55C0F801EE0FFF1FEA5591
:103BB000F94F80819181892B09F016CF10926D0108
:103BC000809168018460809368016092810055E073
:103BD00050937201D0904707E0914E07F0E0ED5806
:103BE000FE4F40800BCF2091880030918900C801A2
:103BF000880F991F820F931F9093890080938800EC
:103C0000F5E0F0936D01A7CF885B984FFC01C08071
:103C1000D18080918800909189002091840030911A
:103C20008500821B930B969587956C2D681B8FE8FA
:103C300091E00E94FA0C8110D6CF2091880030913B
:103C40008900C8018C199D097BCFEFE0E0936501E5
:103C5000B3CE60E0C155DF4F8881CF5AD0408C2968
:103C60000E94B10C60E08D2D0E94B10CF801EE0FA6
:103C7000FF1FEA55F94F11821082A0CF82E00E9407
:103C8000EC0F80FD45C0F201E45BF84F808183308A
:103C900009F44EC081E00E94EC0F80FF69C0F20180
:103CA000EE0FFF1FEA55F94F1182108210926D013D
:103CB000809168018460809368016092810095E042
:103CC000909372010CCEC155DF4F488159816A81B2
:103CD0007B81CF5AD040452B462B472B09F4D3CDBF
:103CE000FECEC50102C0880F991F1A95E2F78C011C
:103CF0001091470760E0812F802B0E94B10C802F2C
:103D0000809581238093470760E00E94B10C91CD9C
:103D1000C201880F991FFC01EA55F94F20813181BA
:103D2000232B09F0D5CEC2CF80914707816021C8EF
:103D300060E0CD54DF4F8881C35BD040812B0E946F
:103D4000B10C882D81238093470760E00E94B10C5D
:103D5000A6CF60E0402F0E94A41560E011FF02C0D2
:103D60000C94811661E0A1100C9481160C948016BD
:103D700081E00E94850F93CF62E0AA2011F40C9499
:103D80007B1661E0E7CFD12CC12CEE24E394F12C1B
:103D900001E0B12C81E00C9473168CE299E00E9452
:103DA000B71088E00E94EC0F182F1095012F0870B3
:103DB000F02E10FF02C00C94362B012F0270FF2052
:103DC00011F40C942C2B40E061E080E00E94A415DB
:103DD00001110C94292B61E040E081E00E94A415C0
:103DE00083E08093730181E08093830182E080937C
:103DF000740184E08093840187EF12FF0DC085E099
:103E000099E00E94B7102091730181E090E001C019
:103E1000880F2A95EAF7809510924E079FEF9093AE
:103E20005A0190935B01109147071823109347079D
:103E300060E0812F0E94B10C80914C07813011F01D
:103E40000C94252B812F8E7F8093470760E00E9482
:103E5000B10C10927D0110927E01109252011092CD
:103E60005301109254011092550110925601109274
:103E70005701109258011092590181E0809350012E
:103E8000809351018E010E551F4FC755DF4F198387
:103E90000883C95AD0400E5F1F4FC555DF4F1983A5
:103EA0000883CB5AD0409E012A553F4F69010C5FD1
:103EB0001F4FC355DF4F19830883CD5AD040E8E127
:103EC0002E2EE2E03E2E87EF98E00E94B306C45605
:103ED000DF4F19821882CC59D040C256DF4F198269
:103EE0001882CE59D040C056DF4F19821882C05A6E
:103EF000D04050E040E06AE171E0CE0184569F4F2F
:103F00000E94B91421C00E94BE2F892B09F0E2C083
:103F10008090520190905301A0905401B0905501AF
:103F200081149104A104B10409F0BBC08090560132
:103F300090905701A0905801B090590181149104BC
:103F4000A104B10409F0DCC28AEA96E00E940206EC
:103F50008C018D30910509F418C18A30910509F45E
:103F600014C18B31910509F409C18830910559F6C6
:103F7000C056DF4F88819981C05AD040892B41F2C9
:103F800068E08AEA96E00E94660660E28AEA96E0C5
:103F90000E94660668E08AEA96E00E946606C056BD
:103FA000DF4F08811981C05AD0401A8219821C82C1
:103FB0001B821E821D8250E040E06AE171E0CE016A
:103FC00001960E94B914C056DF4F88819981C05A6A
:103FD000D040009741F1015011098017910708F472
:103FE0008C01C456DF4FE881F981CC59D040E00FF5
:103FF000F11FF0801082C456DF4F68817981CC595F
:10400000D040CE0101966115710509F4E3C20E940A
:10401000DA14C456DF4F88819981CC59D040080FFB
:10402000191FD801FC92C456DF4F88819981CC5961
:10403000D04069817A81009799F06115710561F02E
:10404000C256DF4F48815981CE59D0402D813E81E3
:104050004217530708F0C1C20E94762E69817A8107
:10406000C456DF4F79836883CC59D0408B819C81C3
:10407000C256DF4F99838883CE59D0408D819E816F
:10408000C056DF4F99838883C05AD0401A82198264
:104090001C821B821E821D82CE0101960E94FB148F
:1040A00037CF0E94C80786169706A806B90608F0FB
:1040B0003DCF8091470782608093470760E00E9470
:1040C000B10C1092520110925301109254011092AF
:1040D00055012CCF1A8219821C821B821E821D82DE
:1040E000CA56DF4F0883C659D040C956DF4F1882E1
:1040F000C759D040BE016A567F4FCE0101960E943B
:10410000DA14CA56DF4F19821882C659D040C856F1
:10411000DF4F19821882C859D040C656DF4F198226
:104120001882CA59D040BE0164567F4FCE018A56CC
:104130009F4F0E94E414A980BA80A114B10409F42D
:10414000BEC1ED80FE80E114F10409F0A8C1BE01FA
:104150006A567F4FCE0184569F4F0E94E414CE01D1
:104160008A569F4F0E94FB14CE0101960E94FB14B9
:10417000602F8AEA96E00E946606CACE6AE171E084
:10418000CE0184569F4F0E94DA140E94B310C65588
:10419000DF4FB881CA5AD040BF93C755DF4FE8817F
:1041A000C95AD040EF93C455DF4FF881CC5AD04064
:1041B000FF93C555DF4FE880CB5AD040EF92DF9296
:1041C000CF92C255DF4FF880CE5AD040FF92C355F0
:1041D000DF4F0881CD5AD0400F932BE131E03F9360
:1041E0002F93C356DF4F8881CD59D0408F93C4564B
:1041F000DF4F8881CC59D0408F930E94F42F8C01DF
:104200000FB6F894DEBF0FBECDBF181619060CF01E
:1042100074C1C855DF4FB880C85AD0408B2D0B2CC5
:10422000000C990B0E94172D892B09F066C172E7CB
:10423000B71609F47EC137E7B31609F4D9C18AEA83
:104240008B0D823008F404C2F2E6BF1609F4AEC347
:1042500032E4E32EBE1409F4CDC3FDE6BF1609F423
:1042600072C3FDE4BF1609F452C029E6B21609F480
:10427000D1C3BFE6BB1609F41CC4F0E3BF1609F4B2
:1042800033C458E6E52EBE1409F48BC744E6F42E79
:10429000BF1409F44CC4F3E7BF1609F42AC4B9E407
:1042A000BB1611F40C94E22994E5E92EBE1411F426
:1042B0000C945929F6E4BF1609F4A2C7E0904E0702
:1042C000F12C18E7B11609F46FC7F701E05BFE4F58
:1042D0008081882391F08091470790E0B0E0A0E0D2
:1042E000F701ED57FE4F208104C0B695A79597952D
:1042F00087952A95D2F780FFA3C2CE0184569F4F9F
:104300000E94FB14E0CD8AEA96E00E9402068AEA47
:1043100096E00E942406892BB1F78AED95E00E9471
:10432000B710E0904707C154DF4FE882CF5BD04021
:1043300080914E0790E0FC01ED57FE4FF080CD5389
:10434000DF4FF882C35CD040845B984FDC018C91D6
:10435000833069F081E090E001C0880FFA94EAF7B9
:1043600080958E218093470760E00E94B10C83E026
:10437000809381000EC08AEA96E00E942406892B71
:1043800069F481EC95E00E94B3068AEA96E00E9407
:10439000D30681E00E948A09882369F3A0908400F3
:1043A000B0908500E0908400F0908500C054DF4F0D
:1043B000F982E882C05CD04008E8E01603E1F0062C
:1043C00008F00BC4E0904E07F12CF701E45BF84FC6
:1043D000808107E219E0813011F000ED13E0C15552
:1043E000DF4F19830883CF5AD04081E00E948A09A9
:1043F000882309F46ACF8091840090918500C1558B
:10440000DF4F08811981CF5AD0408017910768F398
:1044100081E00E948A09882309F457CF80918400A3
:1044200090918500C155DF4F08811981CF5AD04046
:104430000817190768F3A0908400B09085008AEAF5
:1044400096E00E942406892B09F4D6C38AEA96E0F6
:104450000E940206E0904E07F12CC154DF4F088104
:10446000CF5BD040802F90E0B0E0A0E0CD53DF4F95
:104470000880C35CD04004C0B695A79597958795F2
:104480000A94D2F780FF21CFF701E45BF84F8081D7
:10449000833009F41ACF80E00E94CA1297C0C65632
:1044A000DF4F88819981CA59D040E80EF91EB701C3
:1044B000CE018A569F4F0E947F14811106C0CE0103
:1044C0008A569F4F0E94A71442CECA56DF4F2881BA
:1044D0003981C659D040C656DF4F88819981CA5963
:1044E000D040B501820F931F0E94ED2FC656DF4FBB
:1044F000F982E882CA59D0402ACE0E94CF10FDCE60
:104500000E94C80786169706A806B90608F01CCDB3
:104510008091470780618093470760E00E94B10C5B
:1045200010925601109257011092580110925901A1
:104530000BCDE0904E07F12C0130110509F4C5CEEA
:10454000D601AD90BC900230110509F096C1B7FCC0
:10455000BCCEF701ED55F94F80818A151B0409F097
:104560000CF4B3CE0E94E312450159E8B52E63E086
:10457000E62E72E0F72E64E670E080E090E00E94A4
:104580009507EFE8F1E02B2D11922A95E9F7F894C1
:10459000E09281000E94D40A811134C410928100FB
:1045A000789481E00E94AA0B043011055CF0CE558E
:1045B000DF4F88819981C25AD0401816190614F429
:1045C0000C94172B8AEA96E00E940206E0904E07B0
:1045D000F12C7BCE0E94A7141CCD0E94ED2F8D8163
:1045E0009E81C056DF4F99838883C05AD04052CDF8
:1045F000E0904E07F12C0130110509F466CED6018A
:10460000AD90BC900230110509F062C1B7FC5DCEDF
:10461000F701ED55F94F80818A151B0409F00CF460
:1046200054CE0E94E31264E670E080E090E00E94C5
:10463000950780918F01806880938F0161E08A2DBA
:104640000E941A0F882309F47BC10E94AA0BBECFD7
:1046500010924C0110924B0110924A0110924901A4
:1046600010924801B7E582E0BB1609F4B2C180930D
:104670004D010E94E3120E944810882309F49FC153
:1046800080914D01813009F4EBC1823009F4FBC304
:10469000833009F4F5C389E898E00E94B7101092BE
:1046A0004A01109249014DE5E42E49E0F42ECE5620
:1046B000DF4FF982E882C259D04003E619E0C057C3
:1046C000DF4F19830883C059D04024E63BE2CC5623
:1046D000DF4F39832883C459D0404FEF5FEF5A83AF
:1046E000498300E810E063E4CE0101960E94D407FC
:1046F00089819A81019669F4C057DF4FE881F98179
:10470000C059D04088EE93E009959A838983019639
:1047100069F070E060E0CE0101960E940E088823E7
:1047200049F18EE798E00E94B71050CF015011096F
:10473000D1F600E810E065E1CE0101960E94D407B1
:1047400089819A81019671F4C057DF4FE881F98120
:10475000C059D04088EE93E009959A8389830196E9
:1047600009F45AC061E070E0CE0101960E940E0883
:104770008111D7CF0E94C8074B015C01B4EF8B0EAB
:10478000B1E09B1EA11CB11C06C08AEA96E00E9403
:10479000020697FF6CC10E94C807681579058A0553
:1047A0009B0598F38AEA96E00E94020697FDFACFED
:1047B0008DE00E94C31010914801812F0E94AA0B26
:1047C000133009F003CF84E798E00E94B306E0912C
:1047D0004E07F0E0E65AFE4F608170E090E080E026
:1047E0004AE00E9417118AE698E00E94B306809181
:1047F0008E010E947A118BE598E00E94B7108FE835
:1048000091E00E94E4138FE498E00E94B71088E1E1
:1048100092E00E94E413DAC00150110909F08BCF35
:10482000A9CF2115310509F447C72230310509F414
:1048300035C7F701E05BFE4F8081882309F45DCD29
:104840000E94C807F701E45BF84F2081233009F488
:10485000CCC008E813E120E030E0F701EE0FFF1FC5
:10486000EE0FFF1FEE5AFE4F060F171F281F391FAE
:10487000008311832283338340CDCC55DF4F888062
:104880009980C45AD040F701E25BFE4F80818A15BF
:104890001B0409F00CF419CD97FC17CDF701ED5569
:1048A000F94F80818815190409F00CF40ECD0E948F
:1048B000E312B7FC5ACE8A2D0E948310882309F494
:1048C00054CE0E94AA0B0330110509F47BCE6FCEA3
:1048D000CC55DF4F88809980C45AD040F701E25B05
:1048E000FE4F80818A151B0409F00CF4EECC97FC76
:1048F000ECCCF701ED55F94F80818815190409F0CA
:104900000CF4E3CC0E94E312B7FC05C08A2D0E9490
:10491000831081119ACE64E670E080E090E00E94FE
:10492000950780918F01806880938F0161E0882DC9
:104930000E941A0F811189CE0330110509F0A8C415
:1049400083EF98E0F0CEE0904E07F12C809147077E
:1049500090E0B0E0A0E0F701ED57FE4F208104C0E9
:10496000B695A795979587952A95D2F7817099273F
:10497000AA27BB270130110509F42DC2F6012081B9
:104980003181892B8A2B8B2B09F44BCF232B09F4F4
:104990009CCC85ED97E00E94B7100E948812E091B0
:1049A0004E07F0E0E05BFE4F1082A7CC86E398E074
:1049B0000E94B7108FE891E00E94E41307CE87E4CD
:1049C00098E00E94B30682E00E94AA0B0E94B310F6
:1049D000FDCD0130110509F448C0F60180819181B7
:1049E000892B09F442C083E042CE04E610E020E0C7
:1049F00030E033CF87E298E00E94B3060130110522
:104A000009F040C0EFE8F1E080E081938F5F8938E2
:104A1000E1F7DCCF0130110529F0D6010D911C9191
:104A200017FD0FC6E0904E07F12CF701E65AFE4F36
:104A300020812F3F89F030E0F701E25BFE4F80815B
:104A400090E0A901400F511F481759072CF0821B15
:104A5000930B8C0101501109C8010E94A10F35CCA4
:104A60008FED98E00E94B71016CE81E000CE0E9434
:104A7000C8074B015C01E4EF8E0EE1E09E1EA11C15
:104A8000B11C89CE8EE198E00E94B306D6016D91EB
:104A90007C91072E000C880B990B40E10E941711A6
:104AA000F6018081EFE8F1E081932E163F06E1F7F1
:104AB0008DCF0130110529F0F6010081118117FD1C
:104AC0006CC3E0904E07F12CF701E65AFE4F80814F
:104AD0008F3F29F090E0801791070CF48C01882714
:104AE0009927801B910BB9CF0E94481081116ECD80
:104AF0006ACFF09047070130110509F48CC5D60143
:104B00008D919C911F2D029709F083C51F771093FB
:104B1000470760E0812F0E94B10C85E897E00E9472
:104B2000B30681E317FF82E30E94C3104FCD01302B
:104B3000110509F44BCDD6018D919C9102970CF093
:104B400045CD85E997E00E94B306F6018081918109
:104B50000E948B1180E00E94CA12E0914E07F0E0A3
:104B6000ED58FE4F8081EE24E394F12C02C0EE0C50
:104B7000FF1C8A95E2F7C701F0904707F82A60E02A
:104B80008F2D0E94B10CD6010D911C9100934E0700
:104B90001127F801ED58FE4F8081E1E0F0E002C0FE
:104BA000EE0FFF1F8A95E2F7CF018095F822F09271
:104BB000470760E08F2D0E94B10CF801E45BF84FCD
:104BC0008081813009F022C58F2D8E7F8093470729
:104BD00060E00E94B10C780178CB0FEF1FEFC15558
:104BE000DF4F19830883CF5AD0408AEA96E00E94AB
:104BF0002406892B09F02ACCCD54DF4F1882198264
:104C00001A821B82C35BD040C954DF4F19821882BD
:104C1000C75BD0400FEF1FEFC754DF4F19830883E6
:104C2000C95BD040C653DF4F1882CA5CD040CE5318
:104C3000DF4F1882C25CD0408AEA96E00E942406C8
:104C4000892B09F003CCC054DF4FE880F980C05CA9
:104C5000D04008E8E01603E1F00608F488C080E0E0
:104C60000E948A09882309F4B1CCE0908400F09076
:104C70008500C853DF4FF982E882C85CD040C70185
:104C80008A199B09C954DF4F08811981C75BD0403D
:104C90000817190730F4C954DF4F99838883C75B1D
:104CA000D040C754DF4FE880F980C95BD0408E15F3
:104CB0009F0530F4C754DF4F99838883C95BD04088
:104CC000C653DF4FF880CA5CD040EF2DF0E0EE0F06
:104CD000FF1FE157FD4F0F2D0F5FC653DF4F0883B6
:104CE000CA5CD040CE53DF4F1881C25CD040112344
:104CF00009F42CC22081318191838083CD54DF4F10
:104D0000E880F9800A811B81C35BD040E80EF91E60
:104D1000011D111DE21AF30A01091109CD54DF4FDB
:104D2000E882F9820A831B83C35BD040C653DF4FFE
:104D30000881CA5CD040003409F4FDC1C653DF4F7E
:104D40008881CA5CD040837009F40DC1833009F4B6
:104D50009DC0C853DF4FA880B980C85CD0408AEAA4
:104D600096E00E942406892B09F46DCF6FCB009149
:104D700084001091850080E00E948A09882309F44C
:104D800025CC8091840090918500801B910BC155AA
:104D9000DF4FE880F980CF5AD0408E159F0538F359
:104DA00010C08091840090918500801B910BC155AB
:104DB000DF4F08811981CF5AD0400817190708F032
:104DC00054CF009184001091850080E00E948A09F0
:104DD0008111E7CFFBCB892B8A2B8B2B81F089E0CC
:104DE00098E00E94B306F701E05BFE4F80818823C4
:104DF00009F4ECCD87EE97E00E94B306E7CD88EF8B
:104E000097E0EFCF4FE851E061E0882D0E94AC09B8
:104E1000882309F4C3CBF09281008FE891E00E94CF
:104E2000F6041092810078948FE891E00E94E413D8
:104E3000043011050CF4C6CBCE55DF4F8881998123
:104E4000C25AD040181619060CF0BCCB68EE73E0BD
:104E500080E090E00E9495070E94B310CE55DF4F8E
:104E600088819981C25AD040181619060CF0AACB35
:104E70008AEA96E00E942406892B09F47CCBA2CB17
:104E800087EA98E0EFCD89EC98E0ECCD70E4872ECE
:104E9000912CA12CB12CE0E4EE2ECD54DF4F688193
:104EA00079818A819B81C35BD040A50194010E94D6
:104EB0009E2DCC53DF4F2883C45CD040CB53DF4FB3
:104EC0003883C55CD040CA53DF4F4883C65CD040AE
:104ED000C953DF4F5883C75CD040EFE8F2E08FEF53
:104EE0008E0D90E0880F991FBC016F567D4F412CAD
:104EF000512C320101911191C801B0E0A0E0C554DC
:104F0000DF4F88839983AA83BB83CB5BD040821712
:104F10009307A407B50708F0F9C079018A01E81AD8
:104F2000F90A0A0B1B0BC554DF4FE882F9820A838A
:104F30001B83CB5BD040C554DF4FE880F9800A81EA
:104F40001B81CB5BD0404E0C5F1C601E711E6E1728
:104F50007F0781F6C301B201A50194010E949E2D35
:104F600029013A01F6CE10E4812E912CA12CB12C0E
:104F7000CD54DF4F688179818A819B81C35BD040AA
:104F8000A50194010E949E2DC554DF4F28833983CB
:104F90004A835B83CB5BD0408BEA95E00E94B306EB
:104FA0004AE0C501B4010E9417118DE995E00E9405
:104FB000B30688E995E00E94B306C554DF4F8880A8
:104FC0009980AA80BB80CB5BD040AA24BB24C501BA
:104FD000B401660F771F881F991F660F771F881F00
:104FE000991F0E94A11181E995E00E94B306C75460
:104FF000DF4FE880F980C95BD040B70190E080E0E6
:10500000660F771F881F991F660F771F881F991FCC
:105010000E94A1118EE895E00E94B306C554DF4FAF
:10502000A881B981CB5BD040AE19BF0920EA36E830
:1050300041E050E00E94392DA50194010E949E2D6F
:10504000CA01B9010E94A11186E895E00E94B30649
:10505000C954DF4F08811981C75BD040B80190E087
:1050600080E0660F771F881F991F660F771F881FC4
:10507000991F0E94A11183E895E00E94B306D80110
:10508000C554DF4F28813981CB5BD040A21BB30BC5
:1050900020EA36E841E050E00E94392DA501940154
:1050A0000E949E2DCA01B9010E94A11187E795E0D7
:1050B0000E94B306C301B2010E94A11185E795E0E9
:1050C0000E94B306A8EEB3E0A30192010E94392D1D
:1050D000CC53DF4F2881C45CD040CB53DF4F3881A5
:1050E000C55CD040CA53DF4F4881C65CD040C9532D
:1050F000DF4F5881C75CD0400E949E2DCA01B90184
:105100000E94A11185E20E94C31023CEC554DF4F37
:1051100088819981AA81BB81CB5BD040821B930B94
:10512000A40BB50BC554DF4F88839983AA83BB8337
:10513000CB5BD04000CF80E4882E912CA12CB12CE9
:10514000C653DF4F1882CA5CD04012CF9183808350
:10515000CD54DF4FE880F9800A811B81C35BD040CA
:10516000E80EF91E011D111DCD54DF4FE882F982B2
:105170000A831B83C35BD040C653DF4F0881CA5CE0
:10518000D040003409F436C2802F837009F00DC17D
:10519000802E912CB12CA12CEBCE119501951109EB
:1051A00090CC0E94CF1012CACE0184569F4F0E940D
:1051B000FB14F701ED58FE4F8081CC24C394D12C11
:1051C000960102C0220F331F8A95E2F7109147071C
:1051D000122B60E0812F0E94B10CF701ED57FE4FBA
:1051E0008081A60102C0440F551F8A95E2F7CA01CB
:1051F000812B8093470760E00E94B10C0C94251628
:1052000084E090E00E94232DF82E0230110509F46D
:10521000A9C00330110509F46FC08BE297E00E942A
:10522000B3068F2D877090E00E948B1187E197E085
:105230000E94B3068F2D90E095958795959587955B
:1052400095958795877099270E948B1183E097E049
:105250000E94B3068F2D829586958695837090E087
:105260000E948B110130110509F4B0C96F2D84E043
:1052700090E00E942B2D40E060914C0780E00E945E
:10528000A41540E060914D0781E00E94A4159EC9DD
:10529000CE55DF4F88819981C25AD040892B09F4BD
:1052A0004FCB61E0882D0E944713882309F448CB37
:1052B000CCC980914E070130110509F498C140E036
:1052C000D6016C910E94A415F6018081918101970D
:1052D00009F089C1809147078E7F8093470760E07E
:1052E0000E94B10CE0914E07F0E0EE0FFF1FEA556F
:1052F000F94F118210826ACBF6018081918100976B
:1053000009F040C0CC55DF4F8881C45AD040877027
:10531000FF2DF87FFF2EF82A8BE297E00E94B3065C
:105320008F2D877090E00E948B1187E197E00E949B
:10533000B3068F2D90E095958795959587959595D2
:105340008795877099270E948B1183E097E00E94D0
:10535000B3068F2D829586958695837090E00E9486
:105360008B1184CFD6018D919C91002496958795C1
:105370000794969587950794982F802DBF2DBF731E
:10538000FB2EC9CF019741F6CC55DF4F888199811B
:10539000C45AD040880F991F880F991F880F991FF2
:1053A00088730F2D077CF02EB6CF833009F0D1CC57
:1053B000C653DF4FE880CA5CD0408E2C912CB12CB4
:1053C000A12C6BCDA0904E070130110511F0F60114
:1053D000A080B12C4501880C991CF401EA55F94FC5
:1053E00080819181892B09F0E5C08091470790E089
:1053F000B0E0A0E0E0914E07F0E0ED57FE4F2081D5
:1054000004C0B695A795979587952A95D2F7AC01D4
:10541000BD014095509560957095F42FF170FF2E69
:1054200080FFC4C00E9488128F2D0E94CA120E9461
:10543000B3100130110541F48CE597E00E94B306EA
:1054400080914E070E947A1185E596E00E94B3068E
:10545000F501E45BF84F80810E94960C0E94B31026
:1054600080E496E00E94B306F501E558FE4F808186
:1054700080FDB6C08FE096E00E94B7108BE296E008
:105480000E94B306F501E25BFE4F80810E947A1113
:1054900086E196E00E94B306F501ED55F94F808153
:1054A0000E947A118EEE96E00E94B306F501EA5B47
:1054B000FE4F808181118FC06CE271E080E090E04E
:1054C0004AE00E94171189EE96E00E94B71084ED21
:1054D00096E00E94B306F401EA55F94F60817181AC
:1054E00090E080E04AE00E94171180ED96E00E9473
:1054F000B306F501E358FE4F8081882309F468C0A4
:1055000086E291E00E94A6100E94B3108BEB96E019
:105510000E94B306F401E158FE4F6081718190E072
:1055200080E04AE00E94171187EB96E00E94B710D6
:1055300082EA96E00E94B306F401E958FE4F6081CA
:10554000718190E080E04AE00E9417118EE996E0B8
:105550000E94B71089E896E00E94B306F401E85B68
:10556000F84F6081718190E080E04AE00E9417115D
:1055700086E896E00E94B71081E796E00E94B306A5
:1055800083E00E94EC0F80FD20C08AE696E00E9436
:10559000B71087E497E00E94B306F501E65AFE4F84
:1055A00080818F3F69F00E947A1110CA80E00E94CA
:1055B000EF113ACF82E00E94EC0F80FF16CF37CF79
:1055C0008FE397E00E94B71001CA8EE696E0DFCF26
:1055D00086E391E097CF68E671E080E090E070CFDD
:1055E00082E196E049CF80914707816076CE0E94A4
:1055F0000913ECC900E4802E912CA12CB12C11E0F0
:10560000CE53DF4F1883C25CD0409ACD8F2D81607E
:10561000DDCA10687CCA8FE797E00E94B30681E379
:10562000F7FE82E30E94CE0681E797E07CC868EE31
:1056300073E080E090E00E9495070E94B3100C9404
:10564000E222119501951109EDC9812F81600C9419
:10565000241F63E00C94EC1E40E062E080E00E94B6
:10566000A4150111F6CF62E00C94EC1E40E063E05B
:1056700080E00E94A41511FDECCF0023A1F30C944F
:10568000EB1E61E0911160E0D12CC12CEE24E3947B
:10569000F12CB12C01E081E00C94AA1E86EA97E07F
:1056A0000E94B710E0904E07F12CF701E05BFE4F2F
:1056B00081E080830C946B2182EC97E00E94B7100C
:1056C00080E00E94CA126BC9AF92BF92CF92DF9264
:1056D000EF92FF920F931F93CF93C0914801C11196
:1056E00017C080914E0790E0DC01AD55B94F6C9129
:1056F000062F10E0E0904901F0904A01825B9E4F36
:10570000FC018081689FC0011124E816F9066CF045
:1057100081E0C11180E0CF911F910F91FF90EF9038
:10572000DF90CF90BF90AF9008956901BA01A0902B
:105730004B01B0904C01A901C50181579E4F0E94B9
:10574000D22FCA0CDB1CD0924C01C0924B01F8E462
:10575000CF16F4E0DF06E4F2D0904D01D0FC4DC04E
:10576000C0914801D1FC35C061E070E080E090E07C
:105770000E949507C111CCCF8091490190914A01B7
:10578000089690934A018093490120914E0730E09A
:10579000F901ED55F94F4081642F70E0225B3E4FD7
:1057A000F9012081429F9001112482179307E4F0B0
:1057B00040914B0150914C014854544050934C013E
:1057C00040934B0167ED75E08FE891E00E94DB2F7D
:1057D0009FCFC701B8010E948A2D68E00E9447133D
:1057E000C82F80934801C6CF0E948A2D862F0E9421
:1057F0008310C82F80934801DBCFC701B8010E94F6
:105800008A2D68E00E941A0FC82F809348018111E9
:10581000ABCFA6CF1F920F920FB60F9211242F93EA
:105820003F934F935F936F937F938F939F93AF9328
:10583000BF93EF93FF938AEA96E00E944406FF919C
:10584000EF91BF91AF919F918F917F916F915F91F8
:105850004F913F912F910F900FBE0F901F90189571
:105860001F920F920FB60F9211242F938F939F9335
:10587000EF93FF93E091BA06F091BB068081E0912F
:10588000C006F091C10682FD1BC090818091C306C5
:105890008F5F8F732091C406821741F0E091C30699
:1058A000F0E0E655F94F958F8093C306FF91EF9195
:1058B0009F918F912F910F900FBE0F901F90189571
:1058C0008081F4CF1F920F920FB60F9211242F9365
:1058D0003F938F939F93AF93BF9380918601909155
:1058E0008701A0918801B09189013091850123E061
:1058F000230F2D3758F50196A11DB11D2093850169
:105900008093860190938701A0938801B0938901C9
:1059100080918A0190918B01A0918C01B0918D01B1
:105920000196A11DB11D80938A0190938B01A093D4
:105930008C01B0938D01BF91AF919F918F913F9159
:105940002F910F900FBE0F901F90189526E8230FF0
:105950000296A11DB11DD2CF789484B5826084BD1A
:1059600084B5816084BD85B5826085BD85B5816063
:1059700085BDEEE6F0E0808181608083E1E8F0E0C3
:105980001082808182608083808181608083E0E8F2
:10599000F0E0808181608083E1EBF0E080818460D1
:1059A0008083E0EBF0E0808181608083EAE7F0E0D3
:1059B0008081846080838081826080838081816037
:1059C00080838081806880831092C1000E940315CB
:1059D0000E94DE15EAEAF6E01382128288EE93E076
:1059E000A0E0B0E084839583A683B7838AE091E04A
:1059F0009183808385EC90E09587848784EC90E0A8
:105A00009787868780EC90E0918B808B81EC90E08B
:105A1000938B828B82EC90E0958B848B86EC90E06C
:105A2000978B868B118E128E138E148E0895911182
:105A30000C94202D803219F089508550C8F70895B4
:105A4000992788270895F999FECF92BD81BDF89ACC
:105A5000992780B50895262FF999FECF1FBA92BDD8
:105A600081BD20BD0FB6F894FA9AF99A0FBE01963F
:105A700008950E947B2DA59F900DB49F900DA49F2B
:105A8000800D911D112408952F923F924F925F92A5
:105A90006F927F928F929F92AF92BF92CF92DF923E
:105AA000EF92FF920F931F93CF93DF93CDB7DEB7A3
:105AB000CA1BDB0B0FB6F894DEBF0FBECDBF099437
:105AC0002A88398848885F846E847D848C849B848E
:105AD000AA84B984C884DF80EE80FD800C811B819C
