:020000040000FA
:100000000C94CC040C94F4040C94F4040C94F404B8
:100010000C94F4040C94F4040C94F4040C94F40480
:100020000C94F4040C94F4040C94F4040C94F40470
:100030000C94F4040C94F4040C94F4040C94F40460
:100040000C946E2C0C94F4040C943C2C0C94162CF4
:100050000C94F4040C94F4040C94F4040C94F40440
:100060000C94F4040C94F4046364696E6F707375FB
:1000700078585B00756E6B6E6F776E0053687567AE
:1000800061727420534138303020283822290035DD
:100090002E32352220484420656D756C6174696E7E
:1000A0006720416C746169722038382D44434444A0
:1000B00020283822206469736B2073797374656D0E
:1000C0002900352E32352220444420656D756C613F
:1000D00074696E6720416C746169722038382D4DE7
:1000E000445320284D696E696469736B207379737A
:1000F00074656D29006E6F6E6500202872656C61F5
:100100007469766520736F66742D736563746F729E
:100110002074696D696E6729002028666F726365B7
:10012000642073796E6320616674657220737465F0
:100130007029003A200020697320747970652000CE
:1001400044726976652000556E6B6E6F6E776E2017
:100150006572726F720056657269667920666169B0
:100160006C6564004E6F20747261636B2030207385
:1001700069676E616C206465746563746564004EC4
:100180006F20696E64657820686F6C6520646574A3
:100190006563746564004E6F206572726F7200450E
:1001A00072726F723A20006D73002052504D0068D9
:1001B0006172642D736563746F7265642C20000D29
:1001C0000A706C6561736520696E73657274206472
:1001D00069736B2E2E2E20002E2E2E20004D656171
:1001E000737572696E6720726F746174696F6E20C7
:1001F000706572696F6420666F72206472697665DB
:1002000020007820202020202020202020202020B6
:100210004578697420746F20636F6E74726F6C6CB4
:100220006572206D6F64650046205B642C5D6E20F6
:100230002020202020205365742064726976652078
:10024000666C61677320666F7220647269766520E0
:10025000642C2073657420636F6E74726F6C6C65B0
:100260007220666C6167732069662064206E6F740B
:1002700020676976656E0054205B6E5D202020202B
:1002800020202020205072696E74206F72207365C8
:10029000742074797065206F662063757272656E64
:1002A000742064726976650049205B302F315D20CF
:1002B0002020202020205072696E7420696E666FA5
:1002C000726D6174696F6E2061626F75742028634E
:1002D000757272656E742920647269766500732088
:1002E000312F3220202020202020202053656C65D3
:1002F000637420736964652031206F72203200645A
:1003000020302F3120202020202020202053656CF9
:100310006563742064726976652030206F722031C5
:1003200000302020202020202020202020202053AA
:1003300074657020746F20747261636B2030006F7D
:10034000205B6E5D2020202020202020205374651B
:1003500070206E202864656661756C7420312920D8
:10036000747261636B73206F75740069205B6E5DDE
:1003700020202020202020202053746570206E2013
:100380002864656661756C7420312920747261631C
:100390006B7320696E004D2020202020202020201B
:1003A000202020204D656173757265207370696E21
:1003B000646C6520726F746174696F6E006D205B90
:1003C000302F315D202020202020205475726E2097
:1003D0006472697665206D6F746F72206F6E206F26
:1003E00072206F6666206F722073686F7720637566
:1003F0007272656E74207374617475730056202078
:1004000020202020202020202020205265636569A4
:100410007665206469736B20696D61676520766914
:100420006120584D6F64656D20616E6420636F6D4F
:100430007061726520746F206469736B0057205B74
:10044000302F315D202020202020205265636569F7
:100450007665206469736B20696D616765207669D4
:100460006120584D6F64656D20616E6420777269FC
:100470007465206469736B2028313D616E6420636C
:100480006F6D706172652900422064202020202059
:1004900020202020202046696C6C206275666665ED
:1004A00072207769746820646563696D616C207679
:1004B000616C7565206400622020202020202020AF
:1004C00020202020205072696E7420627566666557
:1004D0007220636F6E74656E740077205B742C5DA0
:1004E000735B2C302F315D20577269746520627503
:1004F0006666657220636F6E74656E7420746F201B
:10050000747261636B2074202864656661756C7415
:100510002063757272656E742920736563746F72DF
:1005200020732028313D616E6420636F6D706172AD
:1005300065290072205B742C5D7320202020202010
:10054000205265616420747261636B20742028649A
:10055000656661756C742063757272656E742920AE
:10056000736563746F72207320696E746F20627597
:1005700066666572003D00252C20617667646966B9
:10058000663D003D2B00252C206D61783D003D2D02
:10059000002C206D696E3D006176673D0020726F12
:1005A000746174696F6E73293A2000526F746174BC
:1005B000696F6E20706572696F6420286D732C20DE
:1005C000000D0A706C6561736520696E73657274E5
:1005D000206469736B2E2E2E20004D656173757239
:1005E000696E67207370696E646C6520726F7461E8
:1005F00074696F6E2C20707265737320616E792040
:100600006B657920746F2073746F702E2E2E006EC0
:100610006F00796573004E756D626572206F66209C
:10062000536563746F7273203A20004E756D626576
:1006300072206F6620547261636B7320203A200031
:1006400053796E63206166746572207374657020DF
:1006500020203A200054797065202020202020207E
:10066000202020202020203A2000796573006E6F22
:100670000057726974652070726F74656374656485
:100680002020203A20007573005265616420636C5D
:1006900065617220202020202020203A20007573E0
:1006A0002000536563746F72207461696C20202090
:1006B000202020203A200075732000536563746F5A
:1006C00072206F666673657420202020203A200017
:1006D00075732000536563746F72206C656E677468
:1006E0006820202020203A20002052504D00526FD8
:1006F000746174696F6E20737065656420202020BA
:100700003A2000436F6E74726F6C6C657220666C79
:10071000616773203A200044726976652031206653
:100720006C616773202020203A200044726976654E
:10073000203020666C616773202020203A200075ED
:100740006E6B6E6F776E0043757272656E742054B7
:100750007261636B20202020203A20004375727262
:10076000656E7420447269766520202020203A202E
:10077000002069732073656C65637465642E005393
:10078000696465200053656C656374696E672073E6
:10079000696465200053656C656374696E672064E5
:1007A00072697665200053657474696E67206D6F99
:1007B000746F7220746F204155544F206D6F6465C3
:1007C0002E005475726E696E67206D6F746F7220A3
:1007D0004F46462E005475726E696E67206D6F74B9
:1007E0006F72204F4E2E0020286175746F2D6F663A
:1007F00066206D6F646529004D6F746F7220697398
:100800002072756E6E696E67004D6F746F7220692D
:1008100073204E4F542072756E6E696E670020779C
:100820006974682030780046696C6C696E67206274
:1008300075666665720042756666657220636F6EE6
:1008400074656E74733A004572726F723A20004696
:100850006F756E6420646174613A004578706563F9
:1008600074656420646174613A002C20536563747C
:100870006F723D000D0A0A547261636B3D000D0AF0
:100880005375636365737321002053656E6420693B
:100890006D6167652076696120584D6F64656D20D4
:1008A0006E6F772E2E2E0057726974696E67206105
:1008B0006E6420766572696679696E672064697313
:1008C0006B20696D6167652E00566572696679698E
:1008D0006E67206469736B20696D6167652E0057D0
:1008E000726974696E67206469736B20696D6167F2
:1008F000652E004F6B2E000D0A0D0A436F6D6D6162
:100900006E643A200049474E4F52494E47204452A8
:1009100049564520535741502053455454494E475A
:1009200020494E204D4F4E49544F52000D0A0A4562
:100930006E746572696E67206469736B206D6F6E8B
:1009400069746F722E0000000000240027002A0046
:1009500000000000250028002B0004040404040407
:10096000040402020202020203030303030301025E
:10097000040810204080010204081020010204082D
:10098000102000000008000201000003040700001E
:10099000000000000000F62C11241FBECFEFD8E0AD
:1009A000DEBFCDBF27E0A6E4B1E001C01D92A335B4
:1009B000B207E1F711E0A0E0B1E0E4E1F6E602C041
:1009C00005900D92A634B107D9F714E0CCECD4E031
:1009D00004C02197FE010E94E02DCB3CD107C9F74E
:1009E0000E94B82C0C9408330C9400009F92AF9294
:1009F000BF92CF92DF92EF92FF920F931F93CF930C
:100A0000DF93FC01A0914E07B0E0A45BB84F8C913E
:100A100046E0813009F4BAC087E08093B1001092BB
:100A2000B20020914E0730E0220F331FD901AA55A2
:100A3000B94F285B384FE90188819981880F991F48
:100A40002D913C91281B390B0024220F331F001CD1
:100A5000220F331F001C232F302D2093B30082E080
:100A600087BB1092A50629E8942EDF01CA2E30918B
:100A700068013068D32E30916B013160E32E3FEF77
:100A8000F32E04E078E0B59AB99961C0B59B1AC01D
:100A900030918600B59A02FD12C0990F632F611B39
:100AA000132F691518F000FD03C0EECF05609160AB
:100AB000715051F7919378E0215041F73DC00B7F81
:100AC000132FE2CF01FD23C0349907C0359B29C005
:100AD000319B46C029980260D7CF319910C0309918
:100AE00009C03D2DAE1709F03F773BB9FAB82998F8
:100AF0000260CCCFEBB8FAB829980260C7CFAE1726
:100B000029F03D913BB9FAB829980260BFCF36B1C0
:100B1000307309F0B9CF30E03AB9299AD99A0D7FEC
:100B2000B5CFD89BB1CFD89A1D99AECFA0908400F5
:100B3000B09085000860AACF309184003093750191
:100B4000309185003093760131E03093A50601FFA6
:100B500007C036B13073E9F730E01AB9299AD99A4B
:100B6000EA2FEC19087000936C01A0926101B09219
:100B700062018E2FDF91CF911F910F91FF90EF9027
:100B8000DF90CF90BF90AF909F9008954CE044CFFE
:100B90000895AF92BF92CF92DF92EF92FF920F93A0
:100BA0001F93CF93DF936C017B018B01040F151F03
:100BB000EB015E01AE18BF08C017D10759F069916B
:100BC000D601ED91FC910190F081E02DC6010995CF
:100BD000892B79F7C501DF91CF911F910F91FF907C
:100BE000EF90DF90CF90BF90AF900895FC01538DB0
:100BF000448D252F30E0842F90E0821B930B5417F7
:100C000010F0CF96089501970895FC01918D828D83
:100C1000981761F0A28DAE0FBF2FB11D5D968C911C
:100C2000928D9F5F9F73928F90E008958FEF9FEF5B
:100C30000895FC01918D828D981731F0828DE80F17
:100C4000F11D858D90E008958FEF9FEF0895FC01D1
:100C5000918D228D892F90E0805C9F4F821B91099E
:100C60008F73992708958AEA96E00E94270621E06B
:100C7000892B09F420E0822F089580E090E0892BF1
:100C800029F00E94330681110C9400000895FC01A4
:100C9000A48DA80FB92FB11DA35ABF4F2C91848DDD
:100CA00090E001968F739927848FA689B7892C933A
:100CB000A089B1898C91837080648C93938D848D8D
:100CC000981306C00288F389E02D80818F7D808390
:100CD0000895EF92FF920F931F93CF93DF93EC0150
:100CE00081E0888F9B8D8C8D98131AC0E889F989D3
:100CF000808185FF15C09FB7F894EE89FF896083D6
:100D0000E889F98980818370806480839FBF81E056
:100D100090E0DF91CF911F910F91FF90EF90089598
:100D2000F62E0B8D10E00F5F1F4F0F731127E02E73
:100D30008C8D8E110CC00FB607FCFACFE889F989AB
:100D4000808185FFF5CFCE010E944706F1CFEB8D64
:100D5000EC0FFD2FF11DE35AFF4FF0829FB7F8947F
:100D60000B8FEA89FB8980818062CFCF0F931F931D
:100D7000CF93DF938C01D0E0C0E0F801EC0FFD1FB2
:100D80006491662341F08AEA96E00E946906892B05
:100D900011F02196F2CFCE01DF91CF911F910F91EB
:100DA0000895682F8AEA96E00C946906CF93DF9342
:100DB000EC01888D8823B9F0AA89BB89E889F98973
:100DC0008C9185FD03C0808186FD0DC00FB607FCA8
:100DD000F7CF8C9185FFF2CF808185FFEDCFCE01DB
:100DE0000E944706E9CFDF91CF91089590E0FC0182
:100DF000EE57F64F2491FC01E259F64F3491FC0175
:100E0000E65AF64FE491EE23C9F0222339F023305D
:100E100001F1A8F4213019F1223029F1F0E0EE0FB0
:100E2000FF1FE05BF64FA591B4918FB7F894EC915A
:100E3000611126C030953E233C938FBF0895273023
:100E4000A9F02830C9F0243049F7809180008F7DC7
:100E500003C0809180008F7780938000DFCF84B5BE
:100E60008F7784BDDBCF84B58F7DFBCF8091B000C1
:100E70008F778093B000D2CF8091B0008F7DF9CF73
:100E80003E2BDACFCF93DF9390E0FC01E259F64F8F
:100E90002491865A964FFC0184918823D1F090E0EA
:100EA000880F991FFC01EA5BF64FA591B491FC01F4
:100EB000E05BF64FC591D49161110EC09FB7F894D5
:100EC0008C91E22FE0958E238C932881E223E88396
:100ED0009FBFDF91CF9108958FB7F894EC91E22BEB
:100EE000EC938FBFF6CF3FB7F89480918A01909131
:100EF0008B01A0918C01B0918D0126B5A89B05C0F6
:100F00002F3F19F00196A11DB11D3FBFBA2FA92F88
:100F1000982F8827BC01CD01620F711D811D911D85
:100F200042E0660F771F881F991F4A95D1F70895F1
:100F30008F929F92AF92BF92CF92DF92EF92FF92E9
:100F40006B017C010E9473074B015C01C114D10449
:100F5000E104F104B9F00E947307681979098A095C
:100F60009B09683E73408105910580F321E0C21A18
:100F7000D108E108F10888EE880E83E0981EA11CD4
:100F8000B11CE4CFFF90EF90DF90CF90BF90AF9077
:100F90009F908F9008952FB7F8946091860170917B
:100FA000870180918801909189012FBF0895CF9387
:100FB000DF931F92CDB7DEB769838F569F4FDC0159
:100FC000ED91FC9161E070E0CE01019609950F90E2
:100FD000DF91CF910895CF93DF93EC0165E10E94FB
:100FE000D7072F8138852F5F3F4F38872F8381E0C8
:100FF0002A3031050CF080E0DF91CF910895FC019B
:10100000808191818F3F980729F02FEF3FEF318347
:1010100020830895E157FF4F0190F081E02DCB012F
:1010200009942F923F924F925F926F927F928F928C
:101030009F92AF92BF92CF92DF92EF92FF920F9367
:101040001F93CF93DF9300D01F92CDB7DEB79B8362
:101050008A834B0181E0AA81BB8112968C9381E047
:1010600090E0A0E0B0E0EA81FB8183839483A583D4
:10107000B68310861782332433946F01FEE8CF0EB7
:10108000D11CAA80BB8029E8A20EB11C6A807B809B
:1010900063E9660E711C68EE73E08A819B810E9491
:1010A000FF07F82E84E0F81609F4D5C0A8E1FA1677
:1010B00009F4EDC0B1E0FB12F3C068E57BE18A8181
:1010C0009B810E94FF078C01E82E68E57BE18A8105
:1010D0009B810E94FF07F6011082992798012095B5
:1010E00030953327AA81BB8112964C9182179307C2
:1010F000A1F5E42FE150FF0B0E171F0671F5D60185
:10110000FC920A811B81075F1F4F78010983212E02
:1011100068E57BE18A819B810E94FF078F3F9807EA
:1011200009F1F70181937F01AE16BF0689F781149B
:101130009104F9F068E57BE18A819B810E94FF07B9
:1011400090E0D8012D918D01920FEA16FB06C9F7A8
:10115000891308C03EC0312C9ECFE41203C0821711
:10116000930779F28A819B810E94EB07811193CFCB
:1011700070C068E57BE18A819B810E94FF07582E41
:10118000412C68E57BE18A819B810E94FF07A201D7
:10119000482BF80190E080E0AE16BF06B9F021912F
:1011A000022E000C330B322F22278227932728E0B0
:1011B00030E0BC01880F991F77FF04C061E28627E9
:1011C00060E1962721503109A1F7E6CF481759076A
:1011D00049F63320C1F1D301ED91FC91309701F52F
:1011E00066E08A819B810E94D707F6018081811188
:1011F00010C0EA81FB8182818F5F82838381948129
:10120000A581B6810196A11DB11D83839483A58319
:10121000B683AA81BB8118961C921E9217973BCF6A
:10122000D6018C918111DCCFAA81BB8113966D917F
:101230007D918D919C91169720E830E04981522D47
:1012400009958111CDCF8A819B810E94EB07811185
:1012500082CF80E006C066E08A819B810E94D7072A
:1012600081E00F900F900F90DF91CF911F910F9120
:10127000FF90EF90DF90CF90BF90AF909F908F90B6
:101280007F906F905F904F903F902F90089568E50A
:101290007BE18A819B810E94FF0766E0489759F0B5
:1012A00068E18A819B810E94D70768E18A819B81DE
:1012B0000E94D70768E18A819B810E94D707C9CF26
:1012C000AB01BC018AEA96E00C94C9050F931F9309
:1012D000CF93DF93EC010E94CB078B0106C08AEA13
:1012E00096E00E942706892B71F40E94CB07601BB1
:1012F000710B6C177D079CF38FEF9FEFDF91CF9100
:101300001F910F9108958AEA96E00E940506992799
:10131000DF91CF911F910F910895882321F01092B2
:1013200085001092840081E086BB85E091E002C0D8
:10133000B0990BC01D9BFCCF85E091E002C0B09935
:1013400008C01D99FCCF81E00895815031F096BB13
:10135000F1CF815011F096BBF4CF80E00895FF9259
:101360000F931F93CF93DF93C82FD62F8A0110922C
:1013700085001092840080914E0790E0AC01440FEC
:10138000551FFA01E158FE4F20813181369527958E
:10139000369527953093890020938800FC01E35807
:1013A000FE4F2081211169C085589E4FFC0180812C
:1013B00081FF93C0CC2309F490C082E08093810028
:1013C000109285001092840080914E0790E0880F63
:1013D000991FFC01E158FE4F885B984F20813181B5
:1013E000FC0180819181820F931F880F991F909338
:1013F000890080938800C150F2E0FF2EF6BAB19BBD
:10140000FECFC8010E94F60480914E0790E0209123
:10141000A506C1117FC0222309F4A6C02091840033
:10142000309185004091750150917601880F991F88
:10143000FC01E958FE4F808191819695879596959C
:101440008795241B350B3695279536952795369528
:101450002795821B930B90938900809388001092AC
:1014600085001092840083E0809381000CC081E0AD
:101470000E948D09C150882351F1C111F8CF1092FB
:10148000850010928400DD23B9F02091880030910E
:101490008900E0914E07F0E0EE0FFF1FE85BF84F88
:1014A000808191819695879596958795820F931F58
:1014B00090938900809388008091880090918900A2
:1014C000892B21F082E086BBB19BFECF81E0DF91CA
:1014D000CF911F910F91FF90089500918800109176
:1014E00089004A55594FFA01A081B1812C2F30E073
:1014F0000E94872D96958795779567959695879500
:1015000077956795F801E60FF71FF0938900E09350
:101510008800B9CF2223E1F0209175013091760146
:10152000880F991FDC01A958BE4FFC01E85BF84FFA
:101530008D919C9140815181840F951F880F991F37
:10154000820F931F9093890080938800C15056CFDB
:101550002091880030918900880F991FFC01EA557D
:10156000F94F80819181ECCF4091840050918500AA
:101570002091880030918900880F991FFC01EA555D
:10158000F94F421B530B5695479520813181241BFF
:10159000350B885B984FFC0180819181A901481B24
:1015A000590BCA01969587959695879554CF1F93A9
:1015B000CF93DF9381E00E948D09182F882341F19A
:1015C00080914E0790E0FC01E358FE4F20812223DA
:1015D00001F1880F991FFC01EA55F94F8081918133
:1015E000EC01CC0FDD1FC80FD91FD295C295CF706B
:1015F000CD27DF70CD2707C08091840090918500B2
:10160000C817D90758F481E00E948D098111F4CFE1
:1016100010E0812FDF91CF911F91089581E00E940A
:101620008D098823A9F38091840090918500C817C3
:10163000D90748F3EECF0F931F93CF93DF93062F75
:10164000142F882309F44DC0C0914E07D0E0FE014D
:10165000E358FE4F8081811125C0662331F0FE01E1
:10166000E558FE4F808181FD61C020918800309156
:101670008900CC0FDD1FCA55D94F88819981880F09
:10168000991F820F931F90938900809388001123E4
:1016900021F082E086BBB19BFECFDF91CF911F91FD
:1016A0000F91089581E00E948D098823B1F3109273
:1016B000850010928400CC0FDD1FFE01E158FE4F23
:1016C00080819181880F991F909389008093880071
:1016D0000023E9F22091880030918900C85BD84F3F
:1016E000CCCF0E94D70A8823C1F2109285001092B5
:1016F000840080914E0790E0880F991FFC01E1580B
:10170000FE4F20813181220F331F309389002093B7
:101710008800002309F4BBCF209188003091890014
:10172000885B984FFC0180819181A9CF8091A506AB
:10173000882309F49ACF2091750130917601CC0F5E
:10174000DD1FFE01E958FE4FC85BD84F80819181B3
:1017500048815981840F951F92CFCF93C82F8FE96D
:1017600091E00E94B6068FE791E0C13071F086E902
:1017700091E0C13050F084E691E0C23031F086E56E
:1017800091E0C33011F087E491E0CF910C94B6065C
:10179000CF92DF92EF92FF920F931F93CF93DF933D
:1017A0006A017B0120914E0730E0F901E45BF84FBC
:1017B000108190E2C9169EE4D906E104F10408F014
:1017C0007AC0113009F4ACC001E05AE0C52E5BE8E4
:1017D000D52E52E0E52EF12C23583E4F91E0F90131
:1017E0009083C82FD0E0FE01ED55F94F208130E005
:1017F00050E040E0C701B6010E94AA2DC901AE0128
:10180000440F551FFA01EA55F94F91838083FE0179
:10181000EA5BFE4F0083FE01E45BF84F208121303C
:1018200009F46FC031E2C3163FEBD30632E0E306A2
:10183000F10408F050C060E971E0B8ECEB2EF12C37
:10184000FA01E85BF84FF182E082233009F451C0DD
:10185000FA01E158FE4F1182108230E020E0C358B7
:10186000DE4FE881E11105C0FC01F695E7952E0FEA
:101870003F1FFA01E158FE4F2530310510F425E0F5
:1018800030E031832083861B970B20E432E2113055
:1018900011F020E231E149585E4F821B930BFA01AF
:1018A00091838083DF91CF911F910F91FF90EF90F3
:1018B000DF90CF90089523583E4FF901108201E048
:1018C000F1E2CF16FFEBDF06F2E0EF06F10408F4D9
:1018D00088CF00E086CF60E273E000E9E02EFF24CD
:1018E000F394FA01E85BF84FF182E082233009F0CB
:1018F000AFCF28E631E0FA01E158FE4F3183208373
:10190000AECF24EF31E0FA01E85BF84F318320835A
:10191000FA01E158FE4F1182108268EE73E09DCF0C
:1019200000E040E4C42E4DE0D42E43E0E42EF12C40
:1019300053CF8130A9F080F0823031F0833041F410
:101940008CE790E00C94B6068FE890E00C94B60615
:1019500084E790E00C94B60685EF90E00C94B60610
:1019600082EC90E00C94B60698B1937F492F4860C2
:10197000292F2460392F3C602C9887FD3BC098B9F3
:1019800028B986FF34C048B938B985FF2DC048B999
:1019900038B984FF26C048B938B983FF1FC048B999
:1019A00038B982FF18C048B938B981FF11C048B9A9
:1019B00038B980FF0AC048B938B9662321F035E04C
:1019C0003A95F1F700002C9A089598B928B9F5CF07
:1019D00098B928B9EECF98B928B9E7CF98B928B9FE
:1019E000E0CF98B928B9D9CF98B928B9D2CF98B94A
:1019F00028B9CBCF48B938B9C4CFAF92BF92CF92F4
:101A0000DF92EF92FF920F931F93CF93DF93EC013E
:101A100020914E0730E0F901EE0FFF1FE85BF84F11
:101A200080819181880F991F245B384FF9012081B3
:101A3000213009F42CC196958795969587956695E2
:101A40006695F82EF61A299A80914707C82EE894D1
:101A5000C6F860E08C2D0E94B40C69E8FE01DF013D
:101A6000762F8F2D90E0639500E02FEF4091680175
:101A700042604E7F50916B0151602B98D89950C0B5
:101A80002B9A01FD66C0359927C0349B5CC0319903
:101A900017C030990BC04BB92AB9299802600000D1
:101AA000000000000000000000006AC05BB92AB915
:101AB000299802600000000000000000000060C0E3
:101AC0002BB92AB92998026000000000000000002C
:101AD00000000000000054C036B119B1299802601E
:101AE00030FD0EC031FF15C0772B29F01D937A957C
:101AF0000000000045C0000000000000000040C0E1
:101B000000000000000000000000000000000000D5
:101B100037C000000000000000000000000030C0DE
:101B20002B9AD89A1D990BC0A0908400B090850084
:101B3000086033E03A95F1F70000000021C035E07D
:101B40003A95F1F71DC034E03A95F1F70000000036
:101B500017C016B1107371F410E01AB9299AD99A06
:101B60000D7F0000000000000000000000000000E9
:101B7000000006C034E03A95F1F70000000000C014
:101B800097FD02C0000001C02B9801FD13C02B9AE5
:101B9000359936C0349B23C036B1337031F44BB91C
:101BA0002AB92998026000003AC000000000000035
:101BB000000035C02B9A16B1107341F410E01AB929
:101BC000299AD99A0D7F0000000029C0000000006A
:101BD00000000000000000000000000020C0000025
:101BE000000000000000000000000000000017C01E
:101BF00000000000000000000000000000000FC016
:101C0000319BF6CF19B129980260772B31F400008F
:101C1000000000000000000002C01D937A95815072
:101C200041F0990F000000000000000000000000DB
:101C300024CF919188E0615011F000001ECF000088
:101C400000002B980000000000002B9A01FF07C045
:101C500016B11073E9F710E01AB9299AD99A0870E9
:101C600000936C01A0926101B09262018C2D80649E
:101C70008093470760E0DF91CF911F910F91FF9014
:101C8000EF90DF90CF90BF90AF900C94B40C9695EE
:101C900087959695879596958795669566956695A9
:101CA000C82EC61A239880EC8093B0008091B100B2
:101CB00080688093B1001092B000239A809147070A
:101CC0008F7B8093470760E00E94B40C1092B200B3
:101CD00088E08093B30082E087BB90E49093B000EB
:101CE0008093B10059E8FE01DF01752F8C2D90E043
:101CF00053950091680102600E7FD02E00916B0118
:101D00000160E02E0FEF202F00E0F02E01E0409167
:101D1000B300B99B1BC032E83093B10000FD03C093
:101D2000016038E00DC0990F815021F4919188E055
:101D3000515059F097FD02C030E102C038E00E7FEB
:101D4000430F4093B300B99AE4CF3EC0D89B09C07B
:101D5000D89A1D99DECFA0908400B09085000860CD
:101D6000D8CF01FD29C035991CC0349BD2CF319901
:101D700013C030990CC03D2D152F171B18F01B30C8
:101D800008F031603BB92AB929980260C2CFEBB89C
:101D90002AB929980260BDCF2BB92AB929980260C7
:101DA000B8CF36B119B12998026031FFB2CF772B85
:101DB00011F01D937A95ADCF16B1107321F4FAB8D6
:101DC000299AD99A0D7FA5CF01FF06C016B11073CD
:101DD000E9F7FAB8299AD99A087000936C01A09291
:101DE0006101B09262018091470780648093470748
:101DF00060E00E94B40C1092B000DF91CF911F916F
:101E00000F91FF90EF90DF90CF90BF90AF9008952B
:101E1000CF92DF92EF92FF920F931F93CF93DF93B6
:101E2000CDB7DEB7C958D1090FB6F894DEBF0FBEE3
:101E3000CDBF082F162FF89483E0809381000E9475
:101E4000D70A811115C011E0109281007894812F7A
:101E5000C757DF4F0FB6F894DEBF0FBECDBFDF917F
:101E6000CF911F910F91FF90EF90DF90CF90089549
:101E7000AE014F5F5F4F60E0802F0E94AF09882363
:101E800011F382E08093810010928500109284000B
:101E90001092890010928800E0914E07F0E0ED5515
:101EA000F94FE080F12C8FE8C82E81E0D82E60E059
:101EB000C6010E94FD0C115039F289E8C80ED11CF0
:101EC000802F90E00196B7010E94962D082F41E0E7
:101ED00060E00E941B0B60E0C6010E94FD0C1150E7
:101EE00009F4B2CFEACFCF93C82F8091470760E0C3
:101EF0008F7D0E94B40C4298C1110FC04398429A42
:101F00008091470761E080620E94B40C3AE13A9503
:101F1000F1F700000000CF910895439AF0CFEF92BF
:101F2000FF920F931F93CF93DF93F92EFF1CFF2493
:101F3000FF1CEC0197FF04C0CC27DD27C81BD90B81
:101F40002197892BF9F000914E0710E0F801E45B2E
:101F5000F84FE080065A1E4F8F2D0E94730F81E0CC
:101F6000E816F1F0F80180818F3F21F0F11016C0E2
:101F70008F5F80836AE070E080E090E00E949807C5
:101F8000219750F76AE570E080E090E0DF91CF9113
:101F90001F910F91FF90EF900C9498078150E9CF1B
:101FA00064E070E080E090E00E9498078F2D0E942E
:101FB000730FD8CF282F3B9842982A9A90E080E060
:101FC0000000000000000000880F33998160429AF1
:101FD00042989F5F2913F4CF2A983B9A0895CF9394
:101FE000DF9382E00E94DA0F80FD18C080914E07D7
:101FF00090E0FC01E45BF84F2081233091F081E018
:102000000E94DA0F80FD28C081E090E00E948F0FCF
:102010008FEF9FEFDF91CF910C948F0FDF91CF91D6
:1020200008958D589E4FFC018081C1E0D0E001C031
:10203000CC0F8A95EAF7D091470760E08C2F8D2B63
:102040000E94B40C8C2F80958D238093470760E00D
:10205000DF91CF910C94B40C8FEF9FEF0E948F0F04
:1020600081E090E0DF91CF910C948F0FEF92FF927F
:102070000F931F93CF93E0904E07F12CC1E587019A
:10208000045B184F08C063E070E080E090E00E94BD
:102090009807C150A1F081E00E94DA0F80FF16C0BE
:1020A00081E00E94730FF8018081833061F76AE05C
:1020B00070E080E090E00E949807C15061F780E0F6
:1020C000CF911F910F91FF90EF900895F701E65A7D
:1020D000FE4F108281E0CF911F910F91FF90EF9002
:1020E00008951F93CF93DF93182FC0914E07D0E030
:1020F000C65ADE4F88818F3F61F0212F281B330B9A
:10210000C9010E948F0F188380E0DF91CF911F914A
:1021100008950E943610882311F08881EECF82E066
:10212000DF91CF911F910895FC0101900020E9F704
:102130003197AF01481B590BBC018AEA96E00C9419
:10214000C90588E191E00C949410CF93DF930E942D
:10215000B606EC010E94A1108C0F9D1FDF91CF915C
:102160000895CF93DF930E94D106EC010E94A11045
:102170008C0F9D1FDF91CF9108950E94A11083E3E2
:1021800095E00E94A5108AED94E00E94A51087EBCF
:1021900094E00E94A51088E894E00E94A5108DE3C9
:1021A00094E00E94A5108DEF93E00E94A5108DEBA6
:1021B00093E00E94A51086E993E00E94A5108BE6AB
:1021C00093E00E94A5108FE393E00E94A51081E2A6
:1021D00093E00E94A5108FEF92E00E94A5108EED73
:1021E00092E00E94A51088EA92E00E94A51087E77D
:1021F00092E00E94A51088E292E00E94A51082E081
:1022000092E00E94A5100C94A1108F929F92AF9221
:10221000BF920F931F93CF93DF93CDB7DEB7A197F4
:102220000FB6F894DEBF0FBECDBF19A2423008F43E
:102230004AE08E010F5D1F4F842E912CB12CA12CF2
:10224000A50194010E94AA2DE62FB901CA01EA3026
:10225000F4F4E05DD801EE938D01232B242B252B84
:1022600079F790E080E0109719F0CD010E9494106A
:10227000A1960FB6F894DEBF0FBECDBFDF91CF9110
:102280001F910F91BF90AF909F908F900895E95C40
:10229000E1CFCF92DF92EF92FF92CF93DF936B016A
:1022A0007C018DE20E94D106EC0166277727CB01E5
:1022B0006C197D098E099F094AE00E9405118C0F57
:1022C0009D1FDF91CF91FF90EF90DF90CF90089509
:1022D000CF93DF93682F70E090E080E04AE00E94A7
:1022E0000511EC010E94A1108C0F9D1FDF91CF9171
:1022F0000895CF93DF93BC01990F880B990B97FF3B
:102300000AC00E944911EC010E94A1108C0F9D1F70
:10231000DF91CF9108954AE00E940511F4CF8F928A
:102320009F92AF92BF92CF92DF92EF92FF92CF93A4
:102330004B015C0128EE33E040E050E00E94AA2D02
:10234000CA01B9014AE00E9405118EE20E94D1063D
:10235000C501B40124E630E040E050E00E94AA2D1F
:102360008AE0C82ED12CE12CF12CCA01B901A701B9
:1023700096010E94AA2D80E3860F0E94D106C50116
:10238000B401A70196010E94AA2DC62FCA01B90166
:10239000A70196010E94AA2D80E3860F0E94D10614
:1023A00080E38C0FCF91FF90EF90DF90CF90BF90A4
:1023B000AF909F908F900C94D1068F929F92AF9286
:1023C000BF92CF92DF92EF92FF921F93CF93DF9352
:1023D000D0E0811101C0D2E08DED91E00E94B606FF
:1023E00060914E0770E090E080E04AE00E940511A5
:1023F00088ED91E00E94B606812C912C540113E0E7
:102400001093810081E00E948D09C4E0C12CD12C81
:102410007601882309F449C081E00E948D09882350
:1024200009F443C08091840090918500C80ED91EA4
:10243000E11CF11CC15081F710928100C114D1043C
:10244000E104F10491F1D23020F08C0C9D1CAE1C03
:10245000BF1CDF5FD630A1F6B694A79497948794FB
:10246000B694A79497948794C0914E07B501A401A0
:102470008C2F0E94C80BD0E0FE01E358FE4F8081F4
:102480008823E1F08FEA91E00E94B606CA5BDE4F36
:102490008881882331F168E671E080E090E04AE0CD
:1024A0000E9405118AEA91E00FC08FEB91E00E9433
:1024B000B6068AEA96E00E94D606CCCFC501B401E2
:1024C0000E948F1187EA91E0DF91CF911F91FF90D9
:1024D000EF90DF90CF90BF90AF909F908F900C9433
:1024E000A5106CE271E080E090E0D9CFCF93DF934C
:1024F000C0914E07D0E0FE01ED57FE4F208181E0F4
:1025000090E001C0880F2A95EAF7809590914707DF
:1025100089238093470760E00E94B40CFE01E45BCE
:10252000F84F80818330B1F064EF71E080E090E09B
:102530000E94980782E00E94DA0FCC0FDD1FCA5577
:10254000D94F80FF0CC088819981892B61F0DF9180
:10255000CF91089563E270E080E090E0E9CF1982C6
:1025600018820E94EF0F81E0DF91CF910C94DD1172
:1025700081110C947612E0914E07F0E0ED57FE4F7A
:10258000208181E090E0AC0102C0440F551F2A95E4
:10259000E2F780914707842B8093470760E00C9413
:1025A000B40C8091470790E0B0E0A0E0E0914E07C6
:1025B000F0E0ED57FE4F208104C0B695A7959795A2
:1025C00087952A95D2F780FD07C082E00E94DA0F36
:1025D00080FF06C080E008950E94761281E0089591
:1025E0000E94EF0F80E00E94DD1181E008950F93BB
:1025F0001F93CF93DF93C82F80E491E00E94B6062B
:102600006C2F70E090E080E04AE00E94051186E3C4
:1026100091E00E94B606D0E08E01045B184FF801ED
:10262000608170E090E080E04AE00E94051183E361
:1026300091E00E94B606F80180810E94990CC5586D
:10264000DE4FC881C0FD0CC0C1FF04C08AEF90E01E
:102650000E94B606DF91CF911F910F910C94A110AB
:1026600089E191E00E94B606EFCF8F929F92AF92E0
:10267000BF92CF92DF92EF92FF920F931F93CF936F
:10268000DF93CDB7DEB7C958D1090FB6F894DEBFD6
:102690000FBECDBF182F062FF89483E080938100E2
:1026A0000E94D70A81111AC0992493941092810034
:1026B0007894892DC757DF4F0FB6F894DEBF0FBE51
:1026C000CDBFDF91CF911F910F91FF90EF90DF90E1
:1026D000CF90BF90AF909F908F900895AE014F5FC5
:1026E0005F4F61E0812F0E94AF098823E9F282E009
:1026F00080938100109285001092840010928900CE
:1027000010928800912C9FE8E92E91E0F92E22E0AA
:10271000822ECE0101960E94F604C12ED12C8FEF9D
:10272000C81AD80AE0914E07F0E0ED55F94FA080A5
:10273000B12C013041F0C601B5010E94962D40E058
:1027400061E00E941B0B49E850E0BE016F5F7F4FC4
:10275000C7010E94D12F0150892B71F489E8E80E3E
:10276000F11CC601B5010E94962D182F86BAB19BA7
:10277000FECF0111CECF9ACF49E850E0B7018FE8E4
:1027800091E00E94E72F89E8FE013196A8E1B2E0CE
:1027900001900D928A95E1F710938E0100E083E09D
:1027A000982EDCCF8F929F92AF92BF92DF92EF92E2
:1027B000FF920F931F93CF93DF937C01812C912C79
:1027C000540160E38AEA96E00E94690640E160E015
:1027D00070E0CB010E9405118FE0881528F060E3BE
:1027E0008AEA96E00E94690640E1C501B4010E94B0
:1027F00005116AE38AEA96E00E9469068701D0E043
:10280000C0E01BC0F801D1908F01FFE0FD1528F05A
:1028100060E38AEA96E00E9469066D2D70E090E020
:1028200080E040E10E94051160E28AEA96E00E94A1
:1028300069062196C031D10559F0CE0187709927DC
:10284000892B01F760E28AEA96E00E946906DACFF6
:1028500060E28AEA96E00E9469068701D0E0C0E063
:1028600014C0F801D1908F018D2D90E00E94CA2FE5
:10287000892B11F48EE2D82E6D2D8AEA96E00E9403
:1028800069062196C031D10559F0CE01877099278C
:10289000892B39F760E28AEA96E00E946906E1CF67
:1028A0000E94A110F0E1EF0EF11C80E1880E911C56
:1028B000A11CB11CE0E98E169104A104B10409F039
:1028C00080CFDF91CF911F910F91FF90EF90DF901C
:1028D000BF90AF909F908F9008950F931F93CF93C9
:1028E000DF93EC0188819981009759F02A813B811F
:1028F0002617370730F081E0DF91CF911F910F91BC
:1029000008958B016F5F7F4F0E940B2F009759F046
:10291000998388831B830A832C813D81232B59F75C
:10292000FC011082E8CF80E0E7CFCF93DF93EC018A
:1029300088819981009711F00E94822E1982188255
:102940001D821C821B821A82DF91CF910895EF9223
:10295000FF920F931F93CF93DF93EC017B018A01CA
:10296000BA010E946D1481110BC0CE010E94951412
:10297000CE01DF91CF911F910F91FF90EF900895BD
:102980001D830C83B701888199810E94F92FF0CFB4
:10299000FB0101900020E9F73197AF01461B570B6F
:1029A0000C94A714CF93DF93EC01FB0186179707D4
:1029B00049F0608171816115710541F04481558153
:1029C0000E94A714CE01DF91CF9108950E94951423
:1029D000F9CFFC0180819181009711F00C94822E37
:1029E0000895CF931092800010928100109282007F
:1029F0001092B0001092B10061E081E10E94F606F1
:102A000061E080E10E94F60660E08CE00E94F6063C
:102A100060E08AE00E94F60661E08BE00E94F60624
:102A200060E089E00E94F60661E081E10E944207D1
:102A300061E080E10E94420761E08CE00E94420771
:102A400061E08BE00E94420760E08DE00E94420757
:102A500061E08AE00E94420760E088E00E9442074D
:102A600060E08EE00E94420760E08FE00E94420733
:102A700061E089E00E94420760E082E10E94420733
:102A800060E083E10E9442071AB8CFEFC093470786
:102A900060E08FEF0E94B40CC0936B01C09368019B
:102AA00080916C00806180936C0080916C008062EA
:102AB00080936C0080916B00806280936B0083E058
:102AC0008BBB90E080E00E942F2D863431F481E0B2
:102AD00090E00E942F2D8434D1F066E490E080E0F5
:102AE0000E94372D64E481E090E00E94372D63E47A
:102AF00082E090E00E94372D60E083E090E00E9449
:102B0000372D60E084E090E0CF910C94372D82E087
:102B100090E00E942F2D833401F7CF9108950F93F9
:102B20001F93CF93DF93182F042FC82FD0E0FE01FF
:102B3000E45BF84F6083613029F160F0643050F459
:102B400080E2FE01ED55F94F80838DE4FE01E25BEA
:102B5000FE4F808384E090E00E942F2D91E01130A1
:102B600009F090E0901719F0869586958695C558DE
:102B7000DE4F87708883812FDF91CF911F910F9156
:102B80000C94F71280E1FE01ED55F94F808383E24A
:102B9000DDCFCF93DF93CDB7DEB7CA5CD1090FB6D7
:102BA000F894DEBF0FBECDBFE091BA06F091BB0630
:102BB00082E08083E091B606F091B7061082E09142
:102BC000B806F091B90680E180831092C206E091C8
:102BD000BE06F091BF0686E08083E091BC06F091CE
:102BE000BD06808180618083E091BC06F091BD06C6
:102BF000808188608083E091BC06F091BD06808171
:102C000080688083E091BC06F091BD0680818F7D55
:102C1000808384E00E94DA0F80FD02C00C94D91EEC
:102C20000E94A1108AEA96E00E94D6068AEA96E0FF
:102C30000E94D606E091BC06F091BD0680818F7E91
:102C40008083E091BC06F091BD068081877F808300
:102C5000E091BC06F091BD0680818F778083E09182
:102C6000BC06F091BD0680818F7D80838091C40673
:102C70008093C306F89461E089E00E94F60688E03C
:102C80000E94DA0F182F1095812F8470912F917068
:102C9000512F5870A52E13FF06C0212F237021300D
:102CA00011F40C944D2B81110C94CF1ECC24C394A1
:102CB000D12CF12CE12C00E0BB24B394992311F426
:102CC0000C94C81E63E0A1100C94B91E402F0E9402
:102CD0008F1563E011FF62E0402F8B2D0E948F154E
:102CE000F701ED58FE4F83E08083F701ED57FE4F6B
:102CF00081E08083F601ED58FE4F82E08083F6018B
:102D0000ED57FE4F84E08083109272011092A70667
:102D10001092A6061092A9061092A80610926F01B2
:102D200010926E01109271011092700110927D014B
:102D300010927E0110924E0780914C07813011F065
:102D40000C94B41E809147078E7F8093470760E004
:102D50000E94B40C1AB893E09BBB16BC10926E0094
:102D600082E084BD95BD99EF97BDA99A10926D013F
:102D700010926C0180938100CC24CA94882483949F
:102D8000912CE3E0DE2EEE24EA9422242394312CCD
:102D900067E0F62E67C0D89905C080916C01882342
:102DA00009F45CC01D9B05C080916C01882309F467
:102DB00050C080916C01882309F455C100916101D4
:102DC000109162018091840090918500801B910B8D
:102DD000909385008093840080917201811150C18D
:102DE00040916D01411102C0E0926B0180914E074C
:102DF00090E0FC01E358FE4F2081880F991FFC01F1
:102E0000222309F46CC1EA55F94F608171819B015D
:102E1000220F331F260F371F3695279502171307EA
:102E200008F0A6C120915C01222371F081589E4FC9
:102E3000DC018D919C91880F991F9093890080935C
:102E4000880081E080936D0181E080935C0182E0E5
:102E500086BB80916C01811103C1D89AA99938C0B1
:102E6000B19981C0D99B97CF349950C1359B93CFED
:102E700086B18370B9B029983599FECF299AD99A2D
:102E8000813009F4D0C1882309F44CC2833009F0A1
:102E900082CF6B2D84E090E00E94372D88E00E9465
:102EA000DA0F809582FB112710F983FF04C083702D
:102EB000813009F411E0412F60914C0780E00E94BD
:102EC0008F15412F60914D0781E00E948F1563CFD0
:102ED00080916501882399F081508093650181116B
:102EE0000EC09091640181E0992309F489C10CF42A
:102EF00080E00E94730FF09265011092640180914E
:102F0000690190916A01009779F0019790936A01A5
:102F100080936901892B41F480916D0181116AC10F
:102F200030926A012092690180916E0190916F0147
:102F3000009741F0019790936F0180936E01892B68
:102F400009F429C18091700190917101009741F0BD
:102F500001979093710180937001892B09F450C0FF
:102F6000A99AB19B7FCF80916D01833009F4A7C2EC
:102F700008F0E1C0813009F48FC28230F1F5809110
:102F8000680181688093680160916B0120914E0710
:102F900030E0F901ED55F94F808190E0880F991FDD
:102FA000AC01415051096417150609F408C320917A
:102FB0006B012F5F20936B0120916B01281719067D
:102FC00011F410926B0180916B01809188009091B7
:102FD0008900CC969093890080938800D0926D01EF
:102FE0008091880090918900209184003091850023
:102FF000821B930B03970CF4CBCE82E086BBC8CE2A
:1030000080918401A40102C0440F551F8A95E2F704
:1030100010914707142B1093470760E0812F0E94FF
:10302000B40C80914D07833079F080917401B40124
:1030300002C0660F771F8A95E2F7CB01812B809340
:10304000470760E00E94B40C80914E07813009F080
:1030500087CF80916801846080936801A99A81CFAD
:1030600010926C01FBCE00918400109185001092AB
:1030700085001092840080917201882309F4B0CEFB
:103080008150809372018430C0F540915D01509170
:103090005E0160915F0170916001400F511F611DE1
:1030A000711D40935D0150935E0160935F017093C9
:1030B00060018111CCCE80914E070E94C80B109206
:1030C000720182E08093810010925C011092850071
:1030D00010928400809172018111B9CE81CEE158A5
:1030E000FE4F80819181880F991F90938900809372
:1030F000880081E080936D01AACE10925D0110924C
:103100005E0110925F0110926001A1CE86B18370C2
:10311000823009F4F4C0813009F41BC2811142C22B
:10312000809168018BB9CAB829983499FECF1AB832
:10313000299AD99A30CE843009F4E6C1853009F055
:103140005CCF10926D018091680182FD56CF809115
:1031500068018460809368018091690190916A019F
:10316000892B09F04ACF30926A012092690145CF3C
:10317000442371F081589E4FFC0180819181880F1A
:10318000991F909389008093880082E080936D015D
:1031900010925C015CCE80918301840102C0000F1B
:1031A000111F8A95E2F7C80110914707182B109359
:1031B000470760E0812F0E94B40C80914C07833058
:1031C00079F080917301940102C0220F331F8A9518
:1031D000E2F7C901812B8093470760E00E94B40C9D
:1031E00080914E078111AECE8091680184608093FA
:1031F0006801A8CE809168018B7F8093680194CE8E
:103200000E94DA0F80FFAEC18091680180648093D4
:103210006801809163018111AFC1809168018D7F48
:10322000809368016CCE8091680183FDB4CD8B2DB5
:10323000837021F08091680181FF60C3B2FC9AC263
:10324000B3FE4AC080914E0790E0FC01E45BF84F6A
:103250002081213009F440C020916801246020932E
:10326000680110926A011092690120917201222373
:1032700051F01092720182E08093810010925C0103
:1032800080914E0790E04091470750E070E060E089
:10329000FC01ED57FE4F208104C076956795579548
:1032A00047952A95D2F740FD17C0FC01EE0FFF1F8E
:1032B000DF01A259BE4F2D913C91232B69F4845B11
:1032C000984FDC018C91833009F47CC480E099E153
:1032D000E259FE4F91838083B7FE5DCD80916801F6
:1032E00082FD59CD20916D018DEF820F823008F45F
:1032F00002C4809168018E7F809368014CCD20913B
:10330000660130916701F901E157FE4F808129384C
:1033100031050CF04EC12F5F3F4F30936701209372
:10332000660100CFB7FCE4C10B2D0F70B02E11E089
:10333000101708F430CD9091680180914E0793FDED
:10334000A5C2082F10E08B1509F425CDF801ED5822
:10335000FE4F8081940102C0220F331F8A95E2F74D
:10336000A0904707A22AA092470760E08A2D0E94FA
:10337000B40C8A2D90E0B0E0A0E0F801ED57FE4FCC
:10338000208104C0B695A795979587952A95D2F781
:1033900080FD10C0F801E45BF84F8081833009F4B0
:1033A0004FC380E099E1000F111FF801E259FE4F71
:1033B00091838083B0924E070B2D10E0F801E45BFF
:1033C000F84FB08031E08A2DB312F9C28E7F80931E
:1033D000470760E00E94B40CE0926801BB2029F02E
:1033E00080916801857F80936801809172018823B4
:1033F00051F01092720182E08093810010925C0182
:1034000000914E0710E0A0904707F801ED58FE4FDD
:103410002081422E8A2D90E0B0E0A0E0022E04C070
:10342000B695A795979587950A94D2F780FF99C18D
:10343000A40102C0440F551F2A95E2F7C155DF4F82
:1034400059834883CF5AD040C155DF4F6880CF5A47
:10345000D0407A2CB42EB094BA20F801E45BF84F37
:103460008081833009F4B0C2B092470760E08B2DB1
:103470000E94B40C81E00E94DA0F80FD05C08091AB
:1034800068018F7B80936801872D86298093470789
:1034900060E00E94B40C7FCCE0926B0180916901E6
:1034A00090916A01019709F06ACD809168018B7F44
:1034B0008093680110926A011092690160CD809139
:1034C0006B01816080936B012091680180914E07B0
:1034D00090E022FDA1C02091880030918900880FE2
:1034E000991FFC01E85BF84F808191818E519048D3
:1034F000880F991F820F931F9093890080938800F3
:1035000084E080936D0179CD1092A50680916801C9
:1035100082FFB4C080914E0790E0FC01E358FE4F5B
:103520002081222309F459C020918800309189001C
:10353000880F991FFC01EA55F94F80819181880F0E
:10354000991F820F931F909389008093880085E0D4
:10355000D8CF8091680182FF02C08FEFE3CD8091C8
:103560006B01E0CD809168018F7B80936801809131
:103570006301882309F451CEE0914E07F0E0ED5845
:10358000FE4F8081940101C0220F8A95EAF7809155
:103590004707822B8093470760E00E94B40C10928B
:1035A00063013BCE8330C9F684E090E00E942F2D6A
:1035B000B9CD90916801906890936801B3CD23587C
:1035C0003E4FD9012C912111F2CC80916B01816089
:1035D00080936B0110926D0110CDFC01E558FE4FF8
:1035E000208121FF38C02091A5062223A1F120913E
:1035F000750130917601880F991FFC01E958FE4F43
:1036000080819181880F991F820F931F9093890069
:103610008093880082E075CFFC01EE0FFF1FEA5512
:10362000F94F2081318183589E4FFC018081409168
:10363000880050918900882309F452C0C901880F7D
:10364000991F280F391F240F351F309389002093AD
:10365000880085E056CF2091880030918900880F3E
:10366000991FDC01AA55B94FFC01E85BF84F8D9119
:103670009C9140815181841B950BC4CF8FE891E0D0
:103680000E94F60490E09093670180936601893868
:1036900091052CF4809168018F7780936801809167
:1036A000B20020916E0130916F0182958F7090E091
:1036B0008217930730F4281B390B30936F01209346
:1036C0006E0120917001309171018217930708F00B
:1036D00021CF281B390B30937101209370011ACF31
:1036E000C9018E519048880F991F840F951F8ECF66
:1036F00010926A011092690110926501E0926801CE
:1037000080917201882339F01092720182E08093D7
:10371000810010925C0180914E0790E04091470734
:1037200050E070E060E0FC01ED57FE4F208104C0E6
:1037300076956795579547952A95D2F740FD2BCBFF
:10374000FC01E45BF84F2081233009F43AC120E00A
:1037500039E1880F991FFC01E259FE4F3183208324
:103760001ACB81E00E94DA0F80FD15CB80916801B1
:103770008F7BC2CD60904E07712C8091680182FFD3
:10378000ACC020914707822F90E0B0E0A0E0F301A9
:10379000ED58FE4F1081AC01BD01012E04C076959D
:1037A0006795579547950A94D2F741705527662734
:1037B0007727C155DF4F488359836A837B83CF5A6C
:1037C000D040F301ED57FE4F0081A0907201002E12
:1037D00004C0B695A795979587950A94D2F780FD72
:1037E00054C1C155DF4F688179818A819B81CF5A4D
:1037F000D040672B682B692B09F051C0A1102AC05B
:1038000082E00E94DA0F80FDE0C1F301E45BF84F33
:103810008081833009F462C281E00E94DA0F80FD6A
:1038200003C081E00E94730FF301EE0FFF1FEA5502
:10383000F94F1182108210926D01809168018460AD
:1038400080936801D092810095E09093720160901E
:103850004E07712CC301880F991FF301E45BF84FE9
:1038600020814091690150916A01452B29F43091E2
:1038700068013B7F309368012130C1F182599E4F2E
:10388000DC011D921C9210926301DACC082F10E02B
:103890008B115CCDF801E45BF84FB0809DCDC40185
:1038A000012E01C0880F0A94EAF780958223809345
:1038B000470760E00E94B40CAA2009F4A1CF10923F
:1038C0006D0125E230E030936A0120936901109286
:1038D0005C01D89A60904E07712CF301E45BF84FBD
:1038E0002081C301880F991F213041F682599E4FD4
:1038F000E0E0F9E1DC01ED93FC93C5CF772473940C
:103900006B2D6270A62EB1FE712C2091470700919D
:103910004E0710E0F801ED58FE4F3081822F90E005
:10392000B0E0A0E0032E04C0B695A79597958795C3
:103930000A94D2F780FD99C010926301AA2029F061
:1039400081E00E94DA0F80FF03C0872D0E94730F71
:10395000F801E558FE4F808180FF08C0F801E35868
:10396000FE4F8081811102C010926D01809168012B
:1039700082FF06C08091690190916A01892B31F024
:1039800086E190E090936A0180936901F801E45B1D
:10399000F84F8081813009F456C0BAE0B0936501D8
:1039A00090916301992319F0833009F459C1109261
:1039B0006401809168018668809368013FCC8160D2
:1039C00006CD24E630E0C5CEB092470760E08B2DEF
:1039D0000E94B40C80917201882309F4CBC010922C
:1039E0006D018B2D90E0B0E0A0E0F801ED57FE4FA7
:1039F0002081AC01BD0104C0769567955795479528
:103A00002A95D2F740FD06C065E270E070936A0126
:103A10006093690110925C01042C04C0B695A795CF
:103A2000979587950A94D2F780FF9BCEC40101C079
:103A3000880F4A94EAF7682E7B2C8095B82214CD23
:103A400084E690E0B0CC94E0909365018FEFA110F4
:103A500081E080936401F801EE0FFF1FE259FE4FF1
:103A6000A0E0B9E1B183A083A4CFC40101C0880F55
:103A70003A95EAF7809582238093470760E00E9499
:103A8000B40C81E08093630159CF240101C0440C40
:103A90001A95EAF7142D1095CD54DF4F1883C35BA8
:103AA000D040122360E0812F0E94B40CC40101C0F9
:103AB000880F0A95EAF7809518231093470760E06E
:103AC000812F0E94B40C25E230E030936A012093EC
:103AD0006901AA2009F4DDC0C301880F991FF30111
:103AE000E45BF84F2081233009F40FC110926D017F
:103AF00010925C01C1CE80914E0790E0FC01E3582A
:103B0000FE4F7080880F991FFC01EA55F94F008124
:103B10001181243009F483C080918800909189003C
:103B20002091840030918500821B930B9695879598
:103B30006EE1681B8FE891E00E94FD0C71105EC081
:103B40002091880030918900C8018E519048880FDB
:103B5000991F820F931F909389008093880082E0C1
:103B600080936D0180916B01816080936B0182E095
:103B700086BB11C982E00E94DA0F80FF75C0F80190
:103B8000EE0FFF1FEA55F94F80819181892B09F0D3
:103B900026CF10926D018091680184608093680146
:103BA000D092810055E050937201B09047078B2D61
:103BB00090E0B0E0A0E0E0914E07F0E0ED58FE4F5D
:103BC00040802ACF84E690E083CBC301880F991F01
:103BD000FC01EA55F94F20813181232B09F42BCECA
:103BE000C155DF4F088119812A813B81CF5AD040CE
:103BF000012B022B032B09F430CE61CE20918800DB
:103C000030918900C801880F991F820F931F9093EC
:103C1000890080938800F5E0F0936D01A3CF885B65
:103C2000984FFC01A080B18080918800909189001C
:103C30002091840030918500821B930B9695879587
:103C40006A2D681B8FE891E00E94FD0C7110D6CFA1
:103C50002091880030918900C8018A199B0977CF8B
:103C6000EFE0E0936501A3CE60E0C155DF4F8881AE
:103C7000CF5AD0408A290E94B40C60E08B2D0E945C
:103C8000B40CF801EE0FFF1FEA55F94F11821082B4
:103C900080CF82E00E94DA0F80FD45C0F301E45B33
:103CA000F84F8081833009F44EC081E00E94DA0F22
:103CB00080FF45C0F301EE0FFF1FEA55F94F118257
:103CC000108210926D018091680184608093680178
:103CD000D092810035E030937201FCCDC40102C066
:103CE000880F991F1A95E2F78C011091470760E041
:103CF000812F802B0E94B40C802F8095812380938C
:103D0000470760E00E94B40C8FCDC155DF4F48815A
:103D100059816A817B81CF5AD040452B462B472B56
:103D200009F4ACCDE3CEC301880F991FFC01EA551D
:103D3000F94F20813181232B09F0D1CEC2CF81E010
:103D40000E94730FB7CF60E0812F84290E94B40CCA
:103D5000CD54DF4F8881C35BD040812380934707D8
:103D600060E00E94B40CA6CF8091470781600C945C
:103D7000A51660E0402F0E948F1560E011FF02C081
:103D80000C946C1661E0A1100C946C160C946B16DC
:103D900062E0AA2011F40C94661661E0EBCFD12CFE
:103DA000C12CEE24E394F12C01E0B12C81E00C94C1
:103DB0005E168CE299E00E94A51088E00E94DA0F5E
:103DC000182F1095012F0870F02E10FF02C00C94D0
:103DD000422B012F0270FF2011F40C94382B40E08D
:103DE00061E080E00E948F1501110C94352B61E099
:103DF00040E081E00E948F1583E08093730181E0B1
:103E00008093830182E08093740184E08093840135
:103E100087EF12FF0DC085E099E00E94A510209168
:103E2000730181E090E001C0880F2A95EAF7809540
:103E300010924E079FEF90935A0190935B0110915F
:103E4000470718231093470760E0812F0E94B40CA6
:103E500080914C07813011F00C94312B812F8E7F93
:103E60008093470760E00E94B40C10927D0110928D
:103E70007E0110925201109253011092540110923F
:103E8000550110925601109257011092580110924C
:103E9000590181E080935001809351018E010E55AC
:103EA0001F4FC755DF4F19830883C95AD0400E5F93
:103EB0001F4FC555DF4F19830883CB5AD0409E0151
:103EC0002A553F4F69010C5F1F4FC355DF4F1983C0
:103ED0000883CD5AD040E8E12E2EE2E03E2E87EF57
:103EE00098E00E94B606C456DF4F19821882CC595A
:103EF000D040C256DF4F19821882CE59D040C056EA
:103F0000DF4F19821882C05AD04050E040E06AE189
:103F100071E0CE0184569F4F0E94A71421C00E94D9
:103F2000CA2F892B09F0E2C0809052019090530172
:103F3000A0905401B090550181149104A104B104E2
:103F400009F0BBC08090560190905701A090580195
:103F5000B090590181149104A104B10409F0DCC2AC
:103F60008AEA96E00E9405068C018D30910509F4DD
:103F700018C18A30910509F414C18B31910509F4F7
:103F800009C18830910559F6C056DF4F8881998163
:103F9000C05AD040892B41F268E08AEA96E00E943C
:103FA000690660E28AEA96E00E94690668E08AEAA9
:103FB00096E00E946906C056DF4F08811981C05AF9
:103FC000D0401A8219821C821B821E821D8250E000
:103FD00040E06AE171E0CE0101960E94A714C0564C
:103FE000DF4F88819981C05AD040009741F101503C
:103FF00011098017910708F48C01C456DF4FE8813E
:10400000F981CC59D040E00FF11FF0801082C456E6
:10401000DF4F68817981CC59D040CE01019661157E
:10402000710509F4E3C20E94C814C456DF4F8881A9
:104030009981CC59D040080F191FD801FC92C45661
:10404000DF4F88819981CC59D04069817A8100976E
:1040500099F06115710561F0C256DF4F48815981B1
:10406000CE59D0402D813E814217530708F0C1C27E
:104070000E94822E69817A81C456DF4F79836883DA
:10408000CC59D0408B819C81C256DF4F9983888365
:10409000CE59D0408D819E81C056DF4F9983888351
:1040A000C05AD0401A8219821C821B821E821D8235
:1040B000CE0101960E94E91437CF0E94CB078616E5
:1040C0009706A806B90608F03DCF809147078260A1
:1040D0008093470760E00E94B40C10925201109246
:1040E000530110925401109255012CCF1A8219825B
:1040F0001C821B821E821D82CA56DF4F0883C6594E
:10410000D040C956DF4F1882C759D040BE016A5609
:104110007F4FCE0101960E94C814CA56DF4F198204
:104120001882C659D040C856DF4F19821882C85924
:10413000D040C656DF4F19821882CA59D040BE01FE
:1041400064567F4FCE018A569F4F0E94D214A98099
:10415000BA80A114B10409F4BEC1ED80FE80E1145F
:10416000F10409F0A8C1BE016A567F4FCE01845602
:104170009F4F0E94D214CE018A569F4F0E94E9148D
:10418000CE0101960E94E914602F8AEA96E00E940F
:104190006906CACE6AE171E0CE0184569F4F0E9443
:1041A000C8140E94A110C655DF4FB881CA5AD0402A
:1041B000BF93C755DF4FE881C95AD040EF93C4552C
:1041C000DF4FF881CC5AD040FF93C555DF4FE880D0
:1041D000CB5AD040EF92DF92CF92C255DF4FF8809A
:1041E000CE5AD040FF92C355DF4F0881CD5AD04000
:1041F0000F932BE131E03F932F93C356DF4F88811C
:10420000CD59D0408F93C456DF4F8881CC59D040D0
:104210008F930E9400308C010FB6F894DEBF0FBE62
:10422000CDBF181619060CF074C1C855DF4FB88001
:10423000C85AD0408B2D0B2C000C990B0E94232DBB
:10424000892B09F066C172E7B71609F47EC137E71A
:10425000B31609F4D9C18AEA8B0D823008F404C27E
:10426000F2E6BF1609F4AEC332E4E32EBE1409F43D
:10427000CDC3FDE6BF1609F472C3FDE4BF1609F411
:1042800052C029E6B21609F4D1C3BFE6BB1609F441
:104290001CC4F0E3BF1609F433C438E6E32EBE14A1
:1042A00009F48BC724E6F22EBF1409F44CC4F3E7DB
:1042B000BF1609F42AC4B9E4BB1611F40C94EE2914
:1042C000B4E5EB2EBE1411F40C946529F6E4BF1688
:1042D00009F4A2C7E0904E07F12C18E7B11609F4D3
:1042E0006FC7F701E05BFE4F8081882391F08091DA
:1042F000470790E0B0E0A0E0F701ED57FE4F2081C6
:1043000004C0B695A795979587952A95D2F780FF13
:10431000A3C2CE0184569F4F0E94E914E0CD8AEAE1
:1043200096E00E9405068AEA96E00E942706892BFD
:10433000B1F78AED95E00E94A510E0904707C154BF
:10434000DF4FE882CF5BD04080914E0790E0FC01C8
:10435000ED57FE4FF080CD53DF4FF882C35CD04065
:10436000845B984FDC018C91833069F081E090E0B0
:1043700001C0880FFA94EAF780958E218093470751
:1043800060E00E94B40C83E0809381000EC08AEA52
:1043900096E00E942706892B69F481EC95E00E9443
:1043A000B6068AEA96E00E94D60681E00E948D0950
:1043B000882369F3A0908400B0908500E090840089
:1043C000F0908500C054DF4FF982E882C05CD04095
:1043D00008E8E01603E1F00608F00BC4E0904E0791
:1043E000F12CF701E45BF84F808107E219E081309E
:1043F00011F000ED13E0C155DF4F19830883CF5A48
:10440000D04081E00E948D09882309F46ACF809111
:10441000840090918500C155DF4F08811981CF5AE2
:10442000D0408017910768F381E00E948D098823AE
:1044300009F457CF8091840090918500C155DF4FDA
:1044400008811981CF5AD0400817190768F3A09046
:104450008400B09085008AEA96E00E942706892BA6
:1044600009F4D6C38AEA96E00E940506E0904E075A
:10447000F12CC154DF4F0881CF5BD040802F90E0FA
:10448000B0E0A0E0CD53DF4F0880C35CD04004C053
:10449000B695A795979587950A94D2F780FF21CF77
:1044A000F701E45BF84F8081833009F41ACF80E094
:1044B0000E94B81297C0C656DF4F88819981CA59A9
:1044C000D040E80EF91EB701CE018A569F4F0E94D8
:1044D0006D14811106C0CE018A569F4F0E9495141B
:1044E00042CECA56DF4F28813981C659D040C656C0
:1044F000DF4F88819981CA59D040B501820F931F3F
:104500000E94F92FC656DF4FF982E882CA59D0407F
:104510002ACE0E94BD10FDCE0E94CB0786169706BC
:10452000A806B90608F01CCD8091470780618093EA
:10453000470760E00E94B40C109256011092570198
:1045400010925801109259010BCDE0904E07F12CBA
:104550000130110509F4C5CED601AD90BC900230F2
:10456000110509F096C1B7FCBCCEF701ED55F94F26
:1045700080818A151B0409F00CF4B3CE0E94D1127D
:10458000450159E8B52E63E0E62E72E0F72E64E6A9
:1045900070E080E090E00E949807EFE8F1E02B2DBA
:1045A00011922A95E9F7F894E09281000E94D70AC7
:1045B000811134C410928100789481E00E94AD0B87
:1045C000043011055CF0CE55DF4F88819981C25AC5
:1045D000D0401816190614F40C94232B8AEA96E09E
:1045E0000E940506E0904E07F12C7BCE0E949514A8
:1045F0001CCD0E94F92F8D819E81C056DF4F99837B
:104600008883C05AD04052CDE0904E07F12C013043
:10461000110509F466CED601AD90BC9002301105AB
:1046200009F062C1B7FC5DCEF701ED55F94F80810D
:104630008A151B0409F00CF454CE0E94D11264E6D2
:1046400070E080E090E00E94980780918F01806880
:1046500080938F0161E08A2D0E94080F882309F45E
:104660007BC10E94AD0BBECF10924C0110924B014A
:1046700010924A011092490110924801B7E582E078
:10468000BB1609F4B2C180934D010E94D1120E9461
:104690003610882309F49FC180914D01813009F4BF
:1046A000EBC1823009F4FBC3833009F4F5C389E818
:1046B00098E00E94A51010924A011092490140E62C
:1046C000E42E49E0F42ECE56DF4FF982E882C2593B
:1046D000D04006E619E0C057DF4F19830883C05960
:1046E000D04020E73BE2CC56DF4F39832883C459C2
:1046F000D0404FEF5FEF5A83498300E810E063E456
:10470000CE0101960E94D70789819A81019669F4AA
:10471000C057DF4FE881F981C059D04088EE93E05F
:1047200009959A838983019669F070E060E0CE0173
:1047300001960E941108882349F18EE798E00E94B3
:10474000A51050CF01501109D1F600E810E065E145
:10475000CE0101960E94D70789819A81019671F452
:10476000C057DF4FE881F981C059D04088EE93E00F
:1047700009959A838983019609F45AC061E070E033
:10478000CE0101960E9411088111D7CF0E94CB075C
:104790004B015C01B4EF8B0EB1E09B1EA11CB11C60
:1047A00006C08AEA96E00E94050697FF6CC10E9447
:1047B000CB07681579058A059B0598F38AEA96E088
:1047C0000E94050697FDFACF8DE00E94B11010916E
:1047D0004801812F0E94AD0B133009F003CF84E70D
:1047E00098E00E94B606E0914E07F0E0E65AFE4FD0
:1047F000608170E090E080E04AE00E9405118AE666
:1048000098E00E94B60680918E010E9468118BE5A7
:1048100098E00E94A5108FE891E00E94D2138FE4E7
:1048200098E00E94A51088E192E00E94D213DAC0BD
:104830000150110909F08BCFA9CF2115310509F4D9
:1048400047C72230310509F435C7F701E05BFE4F59
:104850008081882309F45DCD0E94CB07F701E45BDA
:10486000F84F2081233009F4CCC008E813E120E0A0
:1048700030E0F701EE0FFF1FEE0FFF1FEE5AFE4F65
:10488000060F171F281F391F0083118322833383CC
:1048900040CDCC55DF4F88809980C45AD040F70175
:1048A000E25BFE4F80818A151B0409F00CF419CDE0
:1048B00097FC17CDF701ED55F94F80818815190444
:1048C00009F00CF40ECD0E94D112B7FC5ACE8A2DFD
:1048D0000E947110882309F454CE0E94AD0B03305E
:1048E000110509F47BCE6FCECC55DF4F88809980BF
:1048F000C45AD040F701E25BFE4F80818A151B0449
:1049000009F00CF4EECC97FCECCCF701ED55F94F27
:1049100080818815190409F00CF4E3CC0E94D112AF
:10492000B7FC05C08A2D0E94711081119ACE64E6F1
:1049300070E080E090E00E94980780918F0180688D
:1049400080938F0161E0882D0E94080F811189CE2C
:104950000330110509F0A8C483EF98E0F0CEE09091
:104960004E07F12C8091470790E0B0E0A0E0F701FE
:10497000ED57FE4F208104C0B695A7959795879572
:104980002A95D2F781709927AA27BB2701301105F4
:1049900009F42DC2F60120813181892B8A2B8B2BC2
:1049A00009F44BCF232B09F49CCC85ED97E00E94B2
:1049B000A5100E947612E0914E07F0E0E05BFE4FFA
:1049C0001082A7CC86E398E00E94A5108FE891E0C2
:1049D0000E94D21307CE87E498E00E94B60682E0D8
:1049E0000E94AD0B0E94A110FDCD0130110509F40C
:1049F00048C0F60180819181892B09F442C083E08F
:104A000042CE04E610E020E030E033CF87E298E0C9
:104A10000E94B6060130110509F040C0EFE8F1E050
:104A200080E081938F5F8938E1F7DCCF0130110599
:104A300029F0D6010D911C9117FD0FC6E0904E078D
:104A4000F12CF701E65AFE4F20812F3F89F030E02C
:104A5000F701E25BFE4F808190E0A901400F511FFA
:104A6000481759072CF0821B930B8C010150110938
:104A7000C8010E948F0F35CC8FED98E00E94A510E1
:104A800016CE81E000CE0E94CB074B015C01E4EF23
:104A90008E0EE1E09E1EA11CB11C89CE8EE198E035
:104AA0000E94B606D6016D917C91072E000C880BF2
:104AB000990B40E10E940511F6018081EFE8F1E0D9
:104AC00081932E163F06E1F78DCF0130110529F0B5
:104AD000F6010081118117FD6CC3E0904E07F12CA7
:104AE000F701E65AFE4F80818F3F29F090E0801752
:104AF00091070CF48C0188279927801B910BB9CF63
:104B00000E94361081116ECD6ACFF09047070130B8
:104B1000110509F48CC5D6018D919C911F2D02972A
:104B200009F083C51F771093470760E0812F0E942B
:104B3000B40C85E897E00E94B60681E317FF82E394
:104B40000E94B1104FCD0130110509F44BCDD601B3
:104B50008D919C9102970CF045CD85E997E00E94DC
:104B6000B606F601808191810E94791180E00E9451
:104B7000B812E0914E07F0E0ED58FE4F8081EE2430
:104B8000E394F12C02C0EE0CFF1C8A95E2F7C701FA
:104B9000F0904707F82A60E08F2D0E94B40CD601F0
:104BA0000D911C9100934E071127F801ED58FE4F0F
:104BB0008081E1E0F0E002C0EE0FFF1F8A95E2F78E
:104BC000CF018095F822F092470760E08F2D0E9478
:104BD000B40CF801E45BF84F8081813009F022C504
:104BE0008F2D8E7F8093470760E00E94B40C780180
:104BF00078CB0FEF1FEFC155DF4F19830883CF5AD2
:104C0000D0408AEA96E00E942706892B09F02ACC38
:104C1000CD54DF4F188219821A821B82C35BD040A9
:104C2000C954DF4F19821882C75BD0400FEF1FEFC6
:104C3000C754DF4F19830883C95BD040C653DF4F89
:104C40001882CA5CD040CE53DF4F1882C25CD0407D
:104C50008AEA96E00E942706892B09F003CCC0540B
:104C6000DF4FE880F980C05CD04008E8E01603E13F
:104C7000F00608F488C080E00E948D09882309F4BA
:104C8000B1CCE0908400F0908500C853DF4FF982EA
:104C9000E882C85CD040C7018A199B09C954DF4F1C
:104CA00008811981C75BD0400817190730F4C9542F
:104CB000DF4F99838883C75BD040C754DF4FE880BC
:104CC000F980C95BD0408E159F0530F4C754DF4F83
:104CD00099838883C95BD040C653DF4FF880CA5C94
:104CE000D040EF2DF0E0EE0FFF1FE157FD4F0F2DED
:104CF0000F5FC653DF4F0883CA5CD040CE53DF4FEF
:104D00001881C25CD040112309F42CC2208131816A
:104D100091838083CD54DF4FE880F9800A811B8125
:104D2000C35BD040E80EF91E011D111DE21AF30A03
:104D300001091109CD54DF4FE882F9820A831B83F0
:104D4000C35BD040C653DF4F0881CA5CD0400034FB
:104D500009F4FDC1C653DF4F8881CA5CD04083701F
:104D600009F40DC1833009F49DC0C853DF4FA880FA
:104D7000B980C85CD0408AEA96E00E942706892B59
:104D800009F46DCF6FCB009184001091850080E015
:104D90000E948D09882309F425CC8091840090918C
:104DA0008500801B910BC155DF4FE880F980CF5AF9
:104DB000D0408E159F0538F310C0809184009091EB
:104DC0008500801B910BC155DF4F08811981CF5A97
:104DD000D0400817190708F054CF009184001091B3
:104DE000850080E00E948D098111E7CFFBCB892BE4
:104DF0008A2B8B2B81F089E098E00E94B606F701A0
:104E0000E05BFE4F8081882309F4ECCD87EE97E0CC
:104E10000E94B606E7CD88EF97E0EFCF4FE851E06C
:104E200061E0882D0E94AF09882309F4C3CBF0927A
:104E300081008FE891E00E94F6041092810078943E
:104E40008FE891E00E94D213043011050CF4C6CB18
:104E5000CE55DF4F88819981C25AD0401816190665
:104E60000CF0BCCB68EE73E080E090E00E94980705
:104E70000E94A110CE55DF4F88819981C25AD0403F
:104E8000181619060CF0AACB8AEA96E00E942706AB
:104E9000892B09F47CCBA2CB87EA98E0EFCD89EC93
:104EA00098E0ECCD70E4872E912CA12CB12CE0E49D
:104EB000EE2ECD54DF4F688179818A819B81C35B5F
:104EC000D040A50194010E94AA2DCC53DF4F288326
:104ED000C45CD040CB53DF4F3883C55CD040CA534D
:104EE000DF4F4883C65CD040C953DF4F5883C75C4F
:104EF000D040EFE8F2E08FEF8E0D90E0880F991F21
:104F0000BC016F567D4F412C512C32010191119102
:104F1000C801B0E0A0E0C554DF4F88839983AA831D
:104F2000BB83CB5BD04082179307A407B50708F07B
:104F3000F9C079018A01E81AF90A0A0B1B0BC5545A
:104F4000DF4FE882F9820A831B83CB5BD040C554D4
:104F5000DF4FE880F9800A811B81CB5BD0404E0C8B
:104F60005F1C601E711E6E177F0781F6C301B201C0
:104F7000A50194010E94AA2D29013A01F6CE10E460
:104F8000812E912CA12CB12CCD54DF4F68817981D9
:104F90008A819B81C35BD040A50194010E94AA2D08
:104FA000C554DF4F288339834A835B83CB5BD04072
:104FB0008BEA95E00E94B6064AE0C501B4010E9462
:104FC00005118DE995E00E94B60688E995E00E94FA
:104FD000B606C554DF4F88809980AA80BB80CB5B22
:104FE000D040AA24BB24C501B401660F771F881FD7
:104FF000991F660F771F881F991F0E948F1181E9E3
:1050000095E00E94B606C754DF4FE880F980C95B7F
:10501000D040B70190E080E0660F771F881F991F8E
:10502000660F771F881F991F0E948F118EE895E0E9
:105030000E94B606C554DF4FA881B981CB5BD04032
:10504000AE19BF0920EA36E841E050E00E94452D44
:10505000A50194010E94AA2DCA01B9010E948F11D5
:1050600086E895E00E94B606C954DF4F0881198191
:10507000C75BD040B80190E080E0660F771F881FC3
:10508000991F660F771F881F991F0E948F1183E851
:1050900095E00E94B606D801C554DF4F28813981BA
:1050A000CB5BD040A21BB30B20EA36E841E050E0D6
:1050B0000E94452DA50194010E94AA2DCA01B901A3
:1050C0000E948F1187E795E00E94B606C301B201E6
:1050D0000E948F1185E795E00E94B606A8EEB3E026
:1050E000A30192010E94452DCC53DF4F2881C45C5F
:1050F000D040CB53DF4F3881C55CD040CA53DF4F1F
:105100004881C65CD040C953DF4F5881C75CD0404E
:105110000E94AA2DCA01B9010E948F1185E20E9446
:10512000B11023CEC554DF4F88819981AA81BB81FC
:10513000CB5BD040821B930BA40BB50BC554DF4F48
:1051400088839983AA83BB83CB5BD04000CF80E464
:10515000882E912CA12CB12CC653DF4F1882CA5C2B
:10516000D04012CF91838083CD54DF4FE880F98007
:105170000A811B81C35BD040E80EF91E011D111D81
:10518000CD54DF4FE882F9820A831B83C35BD04092
:10519000C653DF4F0881CA5CD040003409F436C2E0
:1051A000802F837009F00DC1802E912CB12CA12C81
:1051B000EBCE11950195110990CC0E94BD1012CA39
:1051C000CE0184569F4F0E94E914F701ED58FE4F1F
:1051D0008081CC24C394D12C960102C0220F331FAE
:1051E0008A95E2F710914707122B60E0812F0E9409
:1051F000B40CF701ED57FE4F8081A60102C0440FA9
:10520000551F8A95E2F7CA01812B8093470760E01A
:105210000E94B40C0C94101684E090E00E942F2D94
:10522000F82E0230110509F4A9C00330110509F464
:105230006FC08BE297E00E94B6068F2D877090E0DA
:105240000E94791187E197E00E94B6068F2D90E0C9
:1052500095958795959587959595879587709927C5
:105260000E94791183E097E00E94B6068F2D829507
:1052700086958695837090E00E9479110130110522
:1052800009F4B0C96F2D84E090E00E94372D40E012
:1052900060914C0780E00E948F1540E060914D07BF
:1052A00081E00E948F159EC9CE55DF4F888199817C
:1052B000C25AD040892B09F44FCB61E0882D0E945F
:1052C0003513882309F448CBCCC980914E070130AF
:1052D000110509F498C140E0D6016C910E948F1528
:1052E000F60180819181019709F089C1809147077A
:1052F0008E7F8093470760E00E94B40CE0914E07D8
:10530000F0E0EE0FFF1FEA55F94F118210826ACBD1
:10531000F60180819181009709F040C0CC55DF4FA4
:105320008881C45AD0408770FF2DF87FFF2EF82A5D
:105330008BE297E00E94B6068F2D877090E00E9466
:10534000791187E197E00E94B6068F2D90E0959540
:1053500087959595879595958795877099270E944C
:10536000791183E097E00E94B6068F2D829586958D
:105370008695837090E00E94791184CFD6018D913B
:105380009C91002496958795079496958795079408
:10539000982F802DBF2DBF73FB2EC9CF019741F6EB
:1053A000CC55DF4F88819981C45AD040880F991F0E
:1053B000880F991F880F991F88730F2D077CF02E77
:1053C000B6CF833009F0D1CCC653DF4FE880CA5C3A
:1053D000D0408E2C912CB12CA12C6BCDA0904E07DF
:1053E0000130110511F0F601A080B12C4501880CA7
:1053F000991CF401EA55F94F80819181892B09F0BC
:10540000E5C08091470790E0B0E0A0E0E0914E0752
:10541000F0E0ED57FE4F208104C0B695A795979513
:1054200087952A95D2F7AC01BD01409550956095BE
:105430007095F42FF170FF2E80FFC4C00E94761289
:105440008F2D0E94B8120E94A1100130110541F465
:105450008CE597E00E94B60680914E070E94681185
:1054600085E596E00E94B606F501E45BF84F808181
:105470000E94990C0E94A11080E496E00E94B6065A
:10548000F501E558FE4F808180FDB6C08FE096E0C3
:105490000E94A5108BE296E00E94B606F501E25B41
:1054A000FE4F80810E94681186E196E00E94B60658
:1054B000F501ED55F94F80810E9468118EEE96E05E
:1054C0000E94B606F501EA5BFE4F808181118FC014
:1054D0006CE271E080E090E04AE00E94051189EE04
:1054E00096E00E94A51084ED96E00E94B606F401B5
:1054F000EA55F94F6081718190E080E04AE00E94B6
:10550000051180ED96E00E94B606F501E358FE4FC6
:105510008081882309F468C086E291E00E9494109B
:105520000E94A1108BEB96E00E94B606F401E158B0
:10553000FE4F6081718190E080E04AE00E94051199
:1055400087EB96E00E94A51082EA96E00E94B606DC
:10555000F401E958FE4F6081718190E080E04AE0FB
:105560000E9405118EE996E00E94A51089E896E058
:105570000E94B606F401E85BF84F6081718190E00B
:1055800080E04AE00E94051186E896E00E94A5109E
:1055900081E796E00E94B60683E00E94DA0F80FD64
:1055A00020C08AE696E00E94A51087E497E00E945A
:1055B000B606F501E65AFE4F80818F3F69F00E94E2
:1055C000681110CA80E00E94DD113ACF82E00E948B
:1055D000DA0F80FF16CF37CF8FE397E00E94A51038
:1055E00001CA8EE696E0DFCF86E391E097CF68E6CA
:1055F00071E080E090E070CF82E196E049CF809149
:105600004707816076CE0E94F712ECC900E4802E35
:10561000912CA12CB12C11E0CE53DF4F1883C25C2A
:10562000D0409ACD8F2D8160DDCA10687CCA8FE78B
:1056300097E00E94B60681E3F7FE82E30E94D1065E
:1056400081E797E07CC868EE73E080E090E00E941C
:1056500098070E94A1100C94EE2211950195110952
:10566000EDC9812F81600C94301F63E00C94F81E0B
:1056700040E062E080E00E948F150111F6CF62E009
:105680000C94F81E40E063E080E00E948F1511FD4D
:10569000ECCF0023A1F30C94F71E61E0911160E0C0
:1056A000D12CC12CEE24E394F12CB12C01E081E04B
:1056B0000C94BA1E86EA97E00E94A510E0904E076F
:1056C000F12CF701E05BFE4F81E080830C947721A1
:1056D00082EC97E00E94A51080E00E94B8126BC98E
:1056E000AF92BF92CF92DF92EF92FF920F931F93F0
:1056F000CF93C0914801C11117C080914E0790E02F
:10570000DC01AD55B94F6C91062F10E0E0904901D6
:10571000F0904A01825B9E4FFC018081689FC0012E
:105720001124E816F9066CF081E0C11180E0CF91F8
:105730001F910F91FF90EF90DF90CF90BF90AF90AF
:1057400008956901BA01A0904B01B0904C01A901E4
:10575000C50181579E4F0E94DE2FCA0CDB1CD092E0
:105760004C01C0924B01F8E4CF16F4E0DF06E4F2FE
:10577000D0904D01D0FC4DC0C0914801D1FC35C046
:1057800061E070E080E090E00E949807C111CCCF0A
:105790008091490190914A01089690934A01809323
:1057A000490120914E0730E0F901ED55F94F408154
:1057B000642F70E0225B3E4FF9012081429F9001EF
:1057C000112482179307E4F040914B0150914C0152
:1057D0004854544050934C0140934B0167ED75E0A1
:1057E0008FE891E00E94E72F9FCFC701B8010E9488
:1057F000962D68E00E943513C82F80934801C6CFCC
:105800000E94962D862F0E947110C82F8093480108
:10581000DBCFC701B8010E94962D68E00E94080FF7
:10582000C82F809348018111ABCFA6CF1F920F9252
:105830000FB60F9211242F933F934F935F936F9363
:105840007F938F939F93AF93BF93EF93FF938AEAD6
:1058500096E00E944706FF91EF91BF91AF919F9113
:105860008F917F916F915F914F913F912F910F9009
:105870000FBE0F901F9018951F920F920FB60F92A8
:1058800011242F938F939F93EF93FF93E091BA0688
:10589000F091BB068081E091C006F091C10682FDC7
:1058A0001BC090818091C3068F5F8F732091C406C7
:1058B000821741F0E091C306F0E0E655F94F958F6D
:1058C0008093C306FF91EF919F918F912F910F903D
:1058D0000FBE0F901F9018958081F4CF1F920F92EA
:1058E0000FB60F9211242F933F938F939F93AF93F3
:1058F000BF938091860190918701A0918801B0911A
:1059000089013091850123E0230F2D3758F5019649
:10591000A11DB11D2093850180938601909387017D
:10592000A0938801B093890180918A0190918B01A5
:10593000A0918C01B0918D010196A11DB11D8093A4
:105940008A0190938B01A0938C01B0938D01BF913C
:10595000AF919F918F913F912F910F900FBE0F901C
:105960001F90189526E8230F0296A11DB11DD2CFD6
:10597000789484B5826084BD84B5816084BD85B52A
:10598000826085BD85B5816085BDEEE6F0E08081F1
:1059900081608083E1E8F0E0108280818260808312
:1059A000808181608083E0E8F0E080818160808395
:1059B000E1EBF0E0808184608083E0EBF0E08081C7
:1059C00081608083EAE7F0E0808184608083808169
:1059D0008260808380818160808380818068808311
:1059E0001092C1000E94F1140E94C915EAEAF6E083
:1059F0001382128288EE93E0A0E0B0E08483958366
:105A0000A683B7838AE091E09183808385EC90E060
:105A10009587848784EC90E09787868780EC90E078
:105A2000918B808B81EC90E0938B828B82EC90E069
:105A3000958B848B86EC90E0978B868B118E128EE3
:105A4000138E148E089591110C942C2D803219F020
:105A500089508550C8F70895992788270895F9999E
:105A6000FECF92BD81BDF89A992780B50895262F63
:105A7000F999FECF1FBA92BD81BD20BD0FB6F89433
:105A8000FA9AF99A0FBE019608950E94872DA59F54
:105A9000900DB49F900DA49F800D911D1124089529
:105AA0002F923F924F925F926F927F928F929F922E
:105AB000AF92BF92CF92DF92EF92FF920F931F931C
:105AC000CF93DF93CDB7DEB7CA1BDB0B0FB6F894CD
:105AD000DEBF0FBECDBF09942A88398848885F840D
