:020000040000FA
:100000000C945A050C9482050C9482050C9482057C
:100010000C9482050C9482050C9482050C94820544
:100020000C9482050C9482050C9482050C94820534
:100030000C9482050C9482050C9482050C94820524
:100040000C94A3260C9482050C9471260C944B26D8
:100050000C9482050C9482050C9482050C94820504
:100060000C9482050C9482056364696E6F707375DD
:1000700078585B00756E6B6E6F776E0053687567AE
:1000800061727420534138303020283822290035DD
:100090002E323522006E6F6E65003A2000206973A3
:1000A0002074797065200044726976652000556E71
:1000B0006B6E6F6E776E206572726F723A200044BD
:1000C00069736B2069732077726974652070726F31
:1000D000746563746564005665726966792061664B
:1000E000746572207772697465206661696C6564F5
:1000F000004E6F20747261636B2030207369676EED
:10010000616C206465746563746564004461746146
:1001100020636865636B73756D206572726F720022
:1001200044617461207265636F726420686173203A
:10013000756E6578706563746564206964005365E5
:1001400063746F7220686561646572206E6F7420DD
:10015000666F756E64004E6F2073796E63206D61FB
:10016000726B7320666F756E6400447269766520E9
:100170006E6F74207265616479004E6F20657272D3
:100180006F72004572726F723A2000782020202032
:100190002020202020202020204578697420746FA2
:1001A00020636F6E74726F6C6C6572206D6F646526
:1001B0000057205B66745B2C74745D5D20202057B3
:1001C0007269746520616E64207665726966792053
:1001D000616C6C20736563746F72732066726F6DEF
:1001E00020747261636B20667420746F2074726176
:1001F000636B2074740052205B66745B2C74745DB6
:100200005D2020205265616420616C6C2073656301
:10021000746F72732066726F6D20747261636B20ED
:10022000667420746F20747261636B20747400664E
:10023000205B66745B2C74745D5D202020466F72B9
:100240006D6174206469736B2066726F6D207472C7
:1002500061636B20667420746F20747261636B201D
:100260007474004D202020202020202020202020D9
:10027000204D656173757265207370696E646C657D
:1002800020726F746174696F6E207370656564208D
:100290006F662063757272656E742064726976652C
:1002A0000054205B6E5D2020202020202020205044
:1002B00072696E74206F7220736574207479706532
:1002C000206F662063757272656E74206472697641
:1002D000650049205B302F315D2020202020202028
:1002E0005072696E7420696E666F726D6174696FA9
:1002F0006E2061626F7574202863757272656E740A
:1003000029206472697665007320302F3120202007
:10031000202020202020557365206469736B207392
:100320006964652030206F722031004420302F3105
:100330002020202020202020205573652073696E06
:10034000676C6520283029206F7220646F756265A4
:10035000202831292064656E736974790063203028
:100360002F3120202020202020202053657420447D
:10037000454E5349545920636F6E74726F6C2073ED
:1003800069676E616C20746F2030206F72203100BD
:100390006420302F31202020202020202020536571
:1003A0006C6563742064726976652030206F7220FA
:1003B000310030202020202020202020202020203C
:1003C0005374657020746F20747261636B20300009
:1003D0006F205B6E5D202020202020202020537481
:1003E0006570206E202864656661756C7420312903
:1003F00020747261636B73206F75740069205B6E8B
:100400005D20202020202020202053746570206E45
:10041000202864656661756C7420312920747261CE
:10042000636B7320696E006D205B302F315D20207F
:1004300020202020205475726E2064726976652019
:100440006D6F746F72206F6E206F72206F66662002
:100450006F722073686F772063757272656E742097
:100460007374617475730042206420202020202062
:10047000202020202046696C6C20627566666572BB
:10048000207769746820646563696D616C207661AA
:100490006C75652064006220202020202020202010
:1004A000202020205072696E742062756666657225
:1004B00020636F6E74656E740077205B742C5D73BF
:1004C0005B2C302F315D2057726974652062756630
:1004D00066657220636F6E74656E7420746F20742D
:1004E0007261636B2074202864656661756C74208A
:1004F00063757272656E742920736563746F722000
:10050000732028313D616E6420636F6D7061726588
:10051000290072205B742C5D732020202020202075
:100520005265616420747261636B20742028646575
:100530006661756C742063757272656E74292073C0
:100540006563746F72207320696E746F20627566C4
:100550006665720020696E2053494E474C45206401
:10056000656E7369747920002073696465203100B9
:10057000207369646520320020696E20444F554223
:100580004C452064656E736974792000466F726D06
:10059000617474696E6720747261636B73200046C6
:1005A0006F726D617474696E6720747261636B2021
:1005B00000756E6B6E6F776E0043757272656E7448
:1005C00020547261636B20202020203A2000437564
:1005D0007272656E74204472697665202020202036
:1005E0003A20002069732073656C65637465642E1E
:1005F0000053696465200053656C656374696E67B8
:10060000207369646520004C4F57004849474800F3
:1006100044656E736974792069732000536574743E
:10062000696E672064656E7369747920746F200049
:1006300053656C656374696E6720647269766520C2
:10064000006D7300526F746174696F6E2070657213
:10065000696F643A20004D6561737572696E672039
:100660007370696E646C6520726F746174696F6E0B
:100670002C20707265737320616E79206B65792010
:10068000746F2073746F702E2E2E0053657474690E
:100690006E67206D6F746F7220746F204155544FD8
:1006A000206D6F64652E005475726E696E67206DE3
:1006B0006F746F72204F46462E005475726E696ECD
:1006C00067206D6F746F72204F4E2E002028617569
:1006D000746F2D6F6666206D6F646529004D6F74B1
:1006E0006F722069732072756E6E696E67004D6F50
:1006F000746F72206973204E4F542072756E6E694C
:100700006E670020776974682030780046696C6CE9
:10071000696E672062756666657200427566666519
:100720007220636F6E74656E74733A00203D3E20D4
:1007300000203D3E206F6B0020736563746F722054
:1007400000566572696679696E6720747261636BC1
:100750002000203D3E2000203D3E206F6B00207396
:100760006563746F72200057726974696E672074D4
:100770007261636B20002E20436F6E74696E756525
:100780002028792F6E293F005772697465206375A0
:100790007272656E742062756666657220746F2071
:1007A000616C6C20736563746F727320696E206472
:1007B000726976652000203D3E20435243206572D9
:1007C000726F722C20747279696E6720616761693B
:1007D0006E00203D3E2000203D3E206F6B002073C8
:1007E0006563746F72200052656164696E6720747E
:1007F0007261636B20004F6B2E002D444300005D3F
:1008000020436F6D6D616E643A20002D54300000FE
:100810002D575000005344004444000D0A0D0A5B5C
:100820000049474E4F52494E4720445249564520B1
:10083000535741502053455454494E4720494E2068
:100840004D4F4E49544F52000D0A0A456E74657261
:10085000696E67206469736B206D6F6E69746F7267
:100860002E0000000000240027002A0000000000E5
:10087000250028002B0004040404040404040202DC
:10088000020202020303030303030102040810200F
:10089000408001020408102001020408102000001A
:1008A000000800020100000304070000000000002F
:1008B000000000002110422063308440A550C66033
:1008C000E770088129914AA16BB18CC1ADD1CEE10D
:1008D000EFF13112100273325222B5529442F77284
:1008E000D662399318837BB35AA3BDD39CC3FFF35D
:1008F000DEE36224433420040114E664C774A44494
:1009000085546AA54BB528850995EEE5CFF5ACC5AC
:100910008DD55336722611163006D776F666955663
:10092000B4465BB77AA719973887DFF7FEE79DD7FC
:10093000BCC7C448E5588668A778400861180228F3
:100940002338CCC9EDD98EE9AFF9488969990AA94C
:100950002BB9F55AD44AB77A966A711A500A333AC3
:10096000122AFDDBDCCBBFFB9EEB799B588B3BBB9C
:100970001AABA66C877CE44CC55C222C033C600C53
:10098000411CAEED8FFDECCDCDDD2AAD0BBD688DEC
:10099000499D977EB66ED55EF44E133E322E511EA3
:1009A000700E9FFFBEEFDDDFFCCF1BBF3AAF599F3C
:1009B000788F8891A981CAB1EBA10CD12DC14EF1DC
:1009C0006FE18010A100C230E32004502540467042
:1009D0006760B9839893FBA3DAB33DC31CD37FE36D
:1009E0005EF3B1029012F322D23235421452776292
:1009F0005672EAB5CBA5A89589856EF54FE52CD53D
:100A00000DC5E234C324A0148104667447642454E1
:100A10000544DBA7FAB79987B8975FE77EF71DC74C
:100A20003CD7D326F2369106B01657667676154631
:100A300034564CD96DC90EF92FE9C899E9898AB99C
:100A4000ABA94458654806782768C018E108823881
:100A5000A3287DCB5CDB3FEB1EFBF98BD89BBBABAC
:100A60009ABB754A545A376A167AF10AD01AB32AD1
:100A7000923A2EFD0FED6CDD4DCDAABD8BADE89DFC
:100A8000C98D267C076C645C454CA23C832CE01C21
:100A9000C10C1FEF3EFF5DCF7CDF9BAFBABFD98F8C
:100AA000F89F176E367E554E745E932EB23ED10E71
:100AB000F01E2B2711241FBECFEFD8E0DEBFCDBF25
:100AC00026E0A6E8B1E001C01D92A036B207E1F72A
:100AD00011E0A0E0B1E0EAEAF9E502C005900D926C
:100AE000A638B107D9F715E0CAE5D5E004C02197CB
:100AF000FE010E94BD27C935D107C9F70E94ED2626
:100B00000C94D32C0C9400000093B3000E94920527
:100B10004A95D1F708952093B3000E9492054A9513
:100B2000D1F70895B99BFECF31E83093B100B99A5F
:100B300008950895AF92BF92CF92DF92EF92FF9205
:100B40000F931F93CF93DF936C017B018B01040FF5
:100B5000151FEB015E01AE18BF08C017D10759F091
:100B60006991D601ED91FC910190F081E02DC601D3
:100B70000995892B79F7C501DF91CF911F910F91CD
:100B8000FF90EF90DF90CF90BF90AF900895FC0161
:100B9000538D448D252F30E0842F90E0821B930BE2
:100BA000541710F0CF96089501970895FC01918D88
:100BB000828D981761F0A28DAE0FBF2FB11D5D968B
:100BC0008C91928D9F5F9F73928F90E008958FEF2D
:100BD0009FEF0895FC01918D828D981731F0828DE1
:100BE000E80FF11D858D90E008958FEF9FEF089538
:100BF000FC01918D228D892F90E0805C9F4F821B9C
:100C000091098F73992708958EEB91E00E94F80562
:100C100021E0892B09F420E0822F089580E090E004
:100C2000892B29F00E94040681110C94000008957C
:100C3000FC01A48DA80FB92FB11DA35ABF4F2C9151
:100C4000848D90E001968F739927848FA689B78948
:100C50002C93A089B1898C91837080648C93938D3F
:100C6000848D981306C00288F389E02D80818F7DE2
:100C700080830895EF92FF920F931F93CF93DF939A
:100C8000EC0181E0888F9B8D8C8D98131AC0E889C8
:100C9000F989808185FF15C09FB7F894EE89FF8997
:100CA0006083E889F98980818370806480839FBF35
:100CB00081E090E0DF91CF911F910F91FF90EF9035
:100CC0000895F62E0B8D10E00F5F1F4F0F73112745
:100CD000E02E8C8D8E110CC00FB607FCFACFE88980
:100CE000F989808185FFF5CFCE010E941806F1CFEA
:100CF000EB8DEC0FFD2FF11DE35AFF4FF0829FB7F4
:100D0000F8940B8FEA89FB8980818062CFCF0F93A3
:100D10001F93CF93DF938C01D0E0C0E0F801EC0F7C
:100D2000FD1F6491662341F08EEB91E00E943A062C
:100D3000892B11F02196F2CFCE01DF91CF911F9137
:100D40000F910895682F8EEB91E00C943A06CF93A3
:100D5000DF93EC01888D8823B9F0AA89BB89E889E3
:100D6000F9898C9185FD03C0808186FD0DC00FB689
:100D700007FCF7CF8C9185FFF2CF808185FFEDCF07
:100D8000CE010E941806E9CFDF91CF91089590E03F
:100D9000FC01E256F74F2491FC01E657F74F3491DE
:100DA000FC01EA58F74FE491EE23C9F0222339F011
:100DB000233001F1A8F4213019F1223029F1F0E0BB
:100DC000EE0FFF1FE459F74FA591B4918FB7F89438
:100DD000EC91611126C030953E233C938FBF08955E
:100DE0002730A9F02830C9F0243049F780918000DD
:100DF0008F7D03C0809180008F7780938000DFCF4C
:100E000084B58F7784BDDBCF84B58F7DFBCF809198
:100E1000B0008F778093B000D2CF8091B0008F7DEB
:100E2000F9CF3E2BDACFCF93DF9390E0FC01E6576A
:100E3000F74F24918A58974FFC0184918823D1F071
:100E400090E0880F991FFC01EE59F74FA591B491DE
:100E5000FC01E459F74FC591D49161110EC09FB7C1
:100E6000F8948C91E22FE0958E238C932881E223D5
:100E7000E8839FBFDF91CF9108958FB7F894EC91ED
:100E8000E22BEC938FBFF6CF3FB7F8948091BA0175
:100E90009091BB01A091BC01B091BD0126B5A89B6A
:100EA00005C02F3F19F00196A11DB11D3FBFBA2FFC
:100EB000A92F982F8827BC01CD01620F711D811DBC
:100EC000911D42E0660F771F881F991F4A95D1F741
:100ED00008958F929F92AF92BF92CF92DF92EF923E
:100EE000FF926B017C010E9444074B015C01C1141D
:100EF000D104E104F104B9F00E94440768197909AA
:100F00008A099B09683E73408105910580F321E0C1
:100F1000C21AD108E108F10888EE880E83E0981E15
:100F2000A11CB11CE4CFFF90EF90DF90CF90BF9059
:100F3000AF909F908F900895DF92EF92FF920F9362
:100F40001F93D42EDB011197FC0108E218E380E027
:100F500039E2F32E3FEFE32EB09A70E040E0B09B11
:100F600005C0B09AFA9411F483E0BEC143FF4395E3
:100F7000B59922C071FD17C0349910C0359BF8CFC8
:100F8000319909C039B12998726030FF78603138E1
:100F900079F78FEFA9C129987260EACFDBB8EAB878
:100FA00029987260E5CF36B1307311F730E03AB965
:100FB000299AD99A7D7FDCCF30918600B59A632F2C
:100FC000621B232F601758F2611740F6483030F249
:100FD00071FF08C036B1307329F430E03AB9299A6C
:100FE000D99A7D7FB59BF4CF30918600B59A632F57
:100FF000621B232F611708F4B1CF71FF08C036B10F
:10100000307329F430E03AB9299AD99A7D7FB59B9B
:10101000F4CF30918600B59A632F621B232F0617F9
:1010200008F4611708F09ACF71FF08C036B1307329
:1010300029F430E03AB9299AD99A7D7FB59BF4CF4B
:1010400030918600B59A632F621B232F611708F435
:1010500085CF71FF08C036B1307329F430E03AB95A
:10106000299AD99A7D7FB59BF4CF30918600B59AA5
:10107000632F621B232F061708F4611708F06ECF49
:1010800071FF08C036B1307329F430E03AB9299ABB
:10109000D99A7D7FB59BF4CF30918600B59A632FA6
:1010A000621B232F601708F059CF71FF08C036B1BB
:1010B000307329F430E03AB9299AD99A7D7FB59BEB
:1010C000F4CF30918600B59A632F621B232F6117EE
:1010D00008F444CF71FF08C036B1307329F430E012
:1010E0003AB9299AD99A7D7FB59BF4CF3091860081
:1010F000B59A632F621B232F061708F4611708F0B7
:101100002DCF71FF08C036B1307329F430E03AB901
:10111000299AD99A7D7FB59BF4CF30918600B59AF4
:10112000632F621B232F611708F418CF71FF08C0CB
:1011300036B1307329F430E03AB9299AD99A7D7FD3
:10114000B59BF4CF30918600B59A632F621B232F95
:10115000061708F4611708F001CF71FF08C036B117
:10116000307329F430E03AB9299AD99A7D7FB59B3A
:10117000F4CF30918600B59A632F621B232F60173E
:1011800008F0ECCE71FF08C036B1307329F430E0BE
:101190003AB9299AD99A7D7FB59BF4CF30918600D0
:1011A000B59A632F621B232F611708F4D7CE71FF06
:1011B00008C036B1307329F430E03AB9299AD99A87
:1011C0007D7FB59BF4CF30918600B59A632F621B6B
:1011D000232F061708F4611708F0C0CE71FF08C06E
:1011E00036B1307329F430E03AB9299AD99A7D7F23
:1011F000B59BF4CF30918600B59A632F621B232FE5
:10120000611708F4ABCE71FF08C036B1307329F412
:1012100030E03AB9299AD99A7D7FB59BF4CF3091C5
:101220008600B59A632F621B232F061708F46117F7
:1012300008F094CE71FD92CE58E0B59BFECF309170
:101240008600B59A632F621B232F6017F0F0611799
:1012500098F0440F5A9529F4419358E0A150B040BA
:1012600052F0440F41605A9529F4419358E0A1503F
:10127000B0400AF0E2CF38C0440F5A9529F44193A8
:1012800058E0A150B040BAF30AC0440F41605A95EB
:1012900029F4419358E0A150B0406AF3CECFB59BFA
:1012A000FECF30918600B59A632F621B232F601703
:1012B00090F0440F5A9529F4419358E0A150B04062
:1012C0009AF0440F41605A9529F4419358E0A15097
:1012D000B04052F0B2CF440F5A9529F4419358E0F0
:1012E000A150B0400AF0DBCF787030919301372BDA
:1012F000309393011F910F91FF90EF90DF9008952D
:10130000DF92EF92FF920F931F93FC01862FE42E42
:10131000582F30E3D32E3FEFF32E00E078E0B59A5C
:1013200080E039E2132FB09A40E0B09B05C0B09A3C
:101330001A9511F483E0C4C143FF4395B59922C0C7
:1013400001FD17C0349910C0359BF8CF319909C001
:1013500039B12998026030FF0860313879F78FEF92
:10136000AFC129980260EACFEBB8FAB829980260B9
:10137000E5CF36B1307311F730E03AB9299AD99AEE
:101380000D7FDCCF30918600B59A632F621B232F2F
:101390006D155CF6483040F201FF08C036B130737D
:1013A00029F430E03AB9299AD99A0D7FB59BF4CF48
:1013B00030918600B59A632F621B232F6D1508F0BC
:1013C000B3CF01FF08C036B1307329F430E03AB929
:1013D000299AD99A0D7FB59BF4CF30918600B59AA2
:1013E000632F621B232F6D1508F09ECF01FF08C0ED
:1013F00036B1307329F430E03AB9299AD99A0D7F81
:10140000B59BF4CF30918600B59A632F621B232FD2
:101410006D1508F489CF01FF08C036B1307329F487
:1014200030E03AB9299AD99A0D7FB59BF4CF309123
:101430008600B59A632F621B232F6D1508F474CFB5
:1014400001FF08C036B1307329F430E03AB9299A67
:10145000D99A0D7FB59BF4CF30918600B59A632F52
:10146000621B232F6D1508F45FCF01FF08C036B152
:10147000307329F430E03AB9299AD99A0D7FB59B97
:10148000F4CF30918600B59A632F621B232F6D1520
:1014900008F04ACF01FF08C036B1307329F430E0BC
:1014A0003AB9299AD99A0D7FB59BF4CF309186002D
:1014B000B59A632F621B232F6D1508F056C001FFEC
:1014C00008C036B1307329F430E03AB9299AD99A74
:1014D0000D7FB59BF4CF30918600B59A632F621BC8
:1014E000232F6D1508F020CF01FF08C036B13073EF
:1014F00029F430E03AB9299AD99A0D7FB59BF4CFF7
:1015000030918600B59A632F621B232F6D1508F06A
:101510000BCF01FF08C036B1307329F430E03AB97F
:10152000299AD99A0D7FB59BF4CF30918600B59A50
:10153000632F621B232F6D1508F0F6CE01FF08C044
:1015400036B1307329F430E03AB9299AD99A0D7F2F
:10155000B59BF4CF30918600B59A632F621B232F81
:101560006D1508F4E1CE3EEF6CC001FF08C036B146
:10157000307329F430E03AB9299AD99A0D7FB59B96
:10158000F4CF30918600B59A632F621B232F6D151F
:1015900008F041C001FF08C036B1307329F430E0D3
:1015A0003AB9299AD99A0D7FB59BF4CF309186002C
:1015B000B59A632F621B232F6D1508F0B5CE01FF7E
:1015C00008C036B1307329F430E03AB9299AD99A73
:1015D0000D7FB59BF4CF30918600B59A632F621BC7
:1015E000232F6D1508F0A0CE01FF08C036B130736F
:1015F00029F430E03AB9299AD99A0D7FB59BF4CFF6
:1016000030918600B59A632F621B232F6D1508F069
:101610008BCE3BEF16C001FF08C036B1307329F402
:1016200030E03AB9299AD99A0D7FB59BF4CF309121
:101630008600B59A632F621B232F6D1508F474CEB4
:1016400038EF31935150B59B18C030918600B59A50
:1016500002FD10C0990F632F621B232F6D1508F038
:1016600002C004609160715071F7919378E051501D
:1016700051F726C00B7F232FE6CF01FD17C0349909
:1016800010C0359BE0CF319909C039B1299802606B
:1016900030FF08603138B9F68FEF12C02998026028
:1016A000D2CFEBB8FAB829980260CDCF36B13073FB
:1016B00009F0C9CF30E03AB9299AD99A0D7FC3CF42
:1016C00001FF07C036B13073E9F730E03AB9299A23
:1016D000D99A087030919301302B309393011F9168
:1016E0000F91FF90EF90DF900895AF92BF92CF924D
:1016F000DF92EF92FF920F931F93CF93DF93E090CF
:101700005B06109285001092840091E296BB96B31E
:101710009172E9F396B331E236BB95FF79C054EB91
:10172000B52E7DECA72E442309F46DC0F22ED42FE4
:10173000D62EC82EC3E6E094EE1CEE24EE1C0FC09D
:1017400067E070E087E991E00E949C07811111C079
:10175000909197019E3FC1F0C15009F452C04F2DA6
:10176000D111EECF67E087E991E00E9480098823DC
:1017700079F3DF91CF911F910F91FF90EF90DF9060
:10178000CF90BF90AF90089508E911E0AB2DBA2D2E
:1017900003C0F80191918F01EB2FFF27E927EE0F8E
:1017A000FF1FEE54F74F25913491BA2FAA27A22795
:1017B000B32791E00C39190761F720919C0130E0C3
:1017C000322F222790919D01290F311D2A173B07A7
:1017D00009F0C2CFFFEFCF1621F0909198019C1134
:1017E00010C0909199019E110CC09FEFD91609F479
:1017F000C0CF90919A019D1509F4BBCFC15009F05B
:10180000AECF84E0B6CFBB24BA94AA24AA948ECFDC
:1018100082E0AFCF0F931F93CF93DF93142FE90193
:101820001092800091E0909381001092820001114B
:1018300046C0F89420E00E94750B811138C0402FFB
:10184000112309F449C063E071E0CE010E949C07B6
:1018500081112BC088818B3F19F0883F09F047C068
:10186000DE019E012F5F3E4F84EB9DEC4D91E92FF1
:10187000FF27E427EE0FFF1FEE54F74F45915491D9
:10188000982F8827842795272A173B0779F7F9018E
:10189000208130E0322F2227CE5FDE4F4881240F97
:1018A000311D2817390729F580E0011101C078940E
:1018B00010928100DF91CF911F910F910895202FF9
:1018C0000E94750B882309F4BACF10928100DF9132
:1018D000CF911F910F91089563E8CE010E94800976
:1018E0008111E3CF88818B3FF9F2883FE9F285E0EF
:1018F000DCCF86E0DACF482F10928500109284006A
:1019000081E086BB80E224E031E05FEF93B190722A
:10191000981721F1B09B06C09FEF920F222369F127
:1019200036BB292F349B03C096B19370D9F0359BF9
:10193000EDCF96B1937051F799B1992311F0913889
:1019400029F729983599FECF299AD99A913899F093
:101950003093930193B190729813DCCF882361F098
:1019600080E0D8CF4BB95AB929983499FECF1AB82C
:10197000299AD99ACBCF8FEF089581E0089598B135
:10198000937F492F4860292F2460392F3C602C9881
:1019900087FD3BC098B928B986FF34C048B938B92B
:1019A00085FF2DC048B938B984FF26C048B938B979
:1019B00083FF1FC048B938B982FF18C048B938B989
:1019C00081FF11C048B938B980FF0AC048B938B999
:1019D000662321F035E03A95F1F700002C9A08953E
:1019E00098B928B9F5CF98B928B9EECF98B928B9E0
:1019F000E7CF98B928B9E0CF98B928B9D9CF98B925
:101A000028B9D2CF98B928B9CBCF48B938B9C4CF03
:101A10002F923F924F925F926F927F928F929F92FE
:101A2000AF92BF92CF92DF92EF92FF920F931F93EC
:101A3000CF93DF93CDB7DEB728970FB6F894DEBF0C
:101A40000FBECDBF6E8380905B068094881C882477
:101A5000881C9EEF998391E09D838A838B828C33CF
:101A600008F00BC120E431E038872F8390E5909394
:101A70005B029EE490935C022CE020935D02109246
:101A80005E0223E820935F0222EC2093600221E0B3
:101A9000209361022CEF2093620222E320936302E1
:101AA00090936402A5E6B2E010E0FE0136967F0155
:101AB000FCE0BF2E03E8C02E91EAD92E91E02EEF74
:101AC000722E35E1232E4EE4A42E5BEF352E6FE708
:101AD000962E05EE72E0472EE8E75E2EF7E26F2EB7
:101AE000BC9211961C9211971296CC921297139653
:101AF000DC92139714969C93149715967C921597E5
:101B000016969C93169717968C93179718969C93F6
:101B1000189719968C9219971A969C931A971F5F8B
:101B20001B961C931B971C969C931C971D969C932D
:101B30001D971C83AE014E5F5F4F6EEF24EB3DECB3
:101B400003C0FA016191AF01E32FFF27E627EE0FF3
:101B5000FF1FEE54F74F65917491322F22272627ED
:101B60003727E416F50669F71E969C931E971F9675
:101B70003C931F9750969C93509751962C93519756
:101B800052962C9252975396AC9253975496BC927D
:101B9000549755961C9255975696CC9256975796B1
:101BA000DC92579758969C93589759963C92599720
:101BB0005A969C925A975B960C935B975C969C9274
:101BC0005C975D960C935D975E964C925E975F96E0
:101BD0000C935F9790969C93909791965C929197B7
:101BE00092969C93929793966C929397F6E3949621
:101BF000FC9394979596AC92959796961A3109F026
:101C00006FCFE1E4F6E03FE72EE430833296DF0168
:101C100011972C93CF018B55924081159440ACF3D2
:101C20008E8181112FC0F894109280001092820052
:101C300083E08093810080E00E947B0C882389F1FF
:101C400010928100789481E028960FB6F894DEBF58
:101C50000FBECDBFDF91CF911F910F91FF90EF90FD
:101C6000DF90CF90BF90AF909F908F907F906F90BC
:101C70005F904F903F902F900895A0E2B1E0B88719
:101C8000AF83F4CE109280001092820083E08093A4
:101C900081008E810E947B0C882319F010928100B4
:101CA000D2CF2B9A80915B068F7B80935B0660E09E
:101CB0000E94BF0C2C9880E58CBD81E08DBDAF816A
:101CC000B8859C91EBE5F2E0CF93DF9310E020E044
:101CD00081E03FEFF32EDC90D89A30C00000000086
:101CE00000000000000000001A955AF03D2D8038D9
:101CF00008F03FEF3C9300005EBD000000000000D4
:101D00000FC08A9531F4819101915EBD0000000001
:101D100006C0029100005EBD01910000000017E0C6
:101D2000001F221F2F70ED01C20FC20F4991588171
:101D300000000000000000005F3FB1F61A9562F05D
:101D4000133024F4813809F48F7704C000000000B8
:101D500000000000000009C08A9519F481910191EA
:101D600003C002910191000017E0001F221F2F7095
:101D7000ED01C20FC20F4991588100004F3F09F495
:101D8000ADCF4EBD1A9562F0133024F4813809F4BA
:101D90008F7704C00000000000000000000009C0B0
:101DA0008A9519F48191019103C00291019100007B
:101DB00017E0001F221F2F70ED01C20FC20F4991C3
:101DC0005881D89B2EC0D89A1D9B2DC04F3FC9F675
:101DD0005F1185CF1A9562F0133024F4813809F42D
:101DE0008F7704C00000000000000000000009C060
:101DF0008A9519F48191019103C00291019100002B
:101E000017E0001F221F2F70ED01C20FC20F499172
:101E100058810000000000000000000000000000E9
:101E2000B0CF0000D3CFDF91CF911CBC9C938091A9
:101E30005B06806480935B0660E00E94BF0CBE81FD
:101E4000B11101C0789480E0FFCE10928000109212
:101E50008100109282001092B0001092B10061E0F7
:101E600081E10E94C70661E080E10E94C70660E050
:101E70008CE00E94C70660E08AE00E94C70661E02D
:101E80008BE00E94C70660E089E00E94C70661E01F
:101E900081E10E94130761E080E10E94130761E085
:101EA0008CE00E94130761E08BE00E94130760E062
:101EB0008DE00E94130761E08AE00E94130760E052
:101EC00088E00E94130760E08EE00E94130760E044
:101ED0008FE00E94130761E089E00E94130760E031
:101EE00082E10E94130760E083E10E9413071AB8A1
:101EF0008FEF80935B0660E00E94BF0CECE6F0E0A1
:101F0000808180618083808180628083EBE6F0E065
:101F100080818062808383E08BBB08958F929F9243
:101F2000BF92CF92DF92EF92FF920F931F93CF93C6
:101F3000DF93B82EF42EE901E02E1092800081E0AC
:101F40008093810010928200011101C0F894FF205B
:101F500009F404C1B3E08B2E9924939402E011E0BC
:101F6000CC24C394DC2C84EB9DEC20E031E0DE013A
:101F7000AE014F5F5F4F420F531F2D91E92FFF2797
:101F8000E227EE0FFF1FEE54F74F25913491982F63
:101F90008827822793274A175B0779F7FE01EC0D04
:101FA000FD1D9083FE01E00FF11F8083FE01E80D0F
:101FB000F91D8EE480832E2D4F2D8B2D0E94750BE5
:101FC000D82E8111B9C0F110D6C091E09093B10024
:101FD000239880EC8093B0008091B100806880935A
:101FE000B1001092B000239A909381001092850066
:101FF0001092840080EC94E1909389008093880093
:1020000082E086BBB19BFECF80915B068F7B809385
:102010005B0660E00E94BF0C1092B2008FEF8093CD
:10202000B30082E087BB82E48093B000FE010FE141
:102030002FE340E30E948B054191483F89F10093D3
:10204000B3000E9492050093B3000E949205009392
:10205000B3000E9492052093B3000E949205209342
:10206000B3000E9492052093B3000E949205009352
:10207000B3000E9492052093B3000E949205009342
:10208000B3000E9492050093B3000E949205009352
:10209000B3000E9492050093B3000E94920528C0ED
:1020A0000093B3000E9492050093B3000E94920532
:1020B0000093B3000E9492052093B3000E94920502
:1020C0002093B3000E9492052093B3000E949205D2
:1020D0000093B3000E9492052093B3000E949205E2
:1020E0002093B3000E9492052093B3000E949205B2
:1020F00050E0A3E85A9522F4A15091F0419157E0A5
:10210000441F48F40093B3000E9492050093B3006B
:102110000E949205EFCF2093B3000E949205EACF70
:102120001092B00080915B06806480935B0660E053
:102130000E94BF0C1092B000E11001C07894109280
:1021400081008D2DDF91CF911F910F91FF90EF9026
:10215000DF90CF90BF909F908F900895F3E88F2EDF
:10216000912C02E810E0A1E8CA2ED12C8FEF9FEF4E
:1021700020E830E0FCCE8BE390E4892E91E0992EAC
:102180008B1508F406C12B9A80918100886080939A
:102190008100109285001092840080E894E1909371
:1021A00089008093880082E086BBB19BFECF80913E
:1021B0005B068F7B80935B0660E00E94BF0C2C98CF
:1021C00080E58CBD81E08DBDD401FE01CF93DF930E
:1021D00010E064E071E03FEFF32E47EEEF01FD0108
:1021E00057812585FE019FE539E03A95F1F700001A
:1021F0004EBD9150C9F73FE03A95F1F74EBD35E13C
:102200003A95F1F74EBD3FE03A95F1F70000000036
:102210004EBD35E13A95F1F74EBD3FE03A95F1F705
:10222000000000005EBD3AE03A95F1F700002EBDD7
:1022300035E13A95F1F74EBD3FE03A95F1F70000F0
:1022400000004EBD35E13A95F1F74EBD3FE03A95BD
:10225000F1F7000000005EBD3AE03A95F1F70000AA
:102260002EBD35E13A95F1F74EBD3FE03A95F1F7D5
:10227000000000004EBD21E034E13A95F1F73FC087
:1022800000000000000000000000000033E03A956C
:10229000F1F75EBD1A953AF0000000000000000062
:1022A000000006C065C061507040E2F3019117E084
:1022B000001F221F2F70ED01C20FC20F49915881DC
:1022C0005F3F21F71A953AF000000000000000007F
:1022D000000006C04DC061507040E2F3019117E06C
:1022E000001F221F2F70ED01C20FC20F49915881AC
:1022F00000000000000000004F3F09F4C1CF4EBDB8
:102300001A953AF00000000000000000000006C02E
:102310002FC061507040E2F3019117E0001F221FAF
:102320002F70ED01C20FC20F4991588133E03A95E9
:10233000F1F74F3F21F75F11A4CF1A953AF0000053
:10234000000000000000000006C012C06150704094
:10235000E2F3019117E0001F221F2F70ED01C20F61
:10236000C20F4991588133E03A95F1F70000C7CF89
:10237000DF91CF911CBC80915B06806480935B06EB
:1023800060E00E94BF0C80918100877F8093810074
:10239000D3CE80E2882E81E0982EF5CECF92DF92C8
:1023A000EF92FF920F931F93CF93DF936C01142F43
:1023B000EC01219600E02EEFFE0131972083688327
:1023C00019820F5F0A831B82AE014C5F5F4FDE01F3
:1023D0007EEF8FEF9FEF01C07D91E92FFF27E72769
:1023E000EE0FFF1FEE54F74FE590F490982F8827DB
:1023F0008E259F25A417B50779F79C838D83279693
:102400000A31D1F611111AC0F8941092800010927E
:10241000820083E08093810080E00E947B0C88230F
:10242000E1F010928100789481E0DF91CF911F91CB
:102430000F91FF90EF90DF90CF9008951092800061
:102440001092820083E080938100812F0E947B0C98
:10245000882319F010928100E7CF1092B00081E03C
:102460008093B100239880EC8093B0008091B100FC
:1024700080688093B1001092B000239A80915B062F
:102480008F7B80935B0660E00E94BF0C1092B200CD
:102490008FEF8093B30082E087BB82E48093B0002B
:1024A0008AE190E0F601682F0FE12FE340EF0E94F0
:1024B0008B0540E50E948B0540E30E948B0500934D
:1024C000B3000E9492050093B3000E94920500930E
:1024D000B3000E9492052093B3000E9492050093DE
:1024E000B3000E9492050093B3000E9492052093CE
:1024F000B3000E9492050093B3000E9492050093DE
:10250000B3000E9492050093B3000E9492052093AD
:10251000B3000E9492052093B3000E94920540ED03
:102520000E948B0540E30E948B050093B3000E943C
:1025300092050093B3000E9492050093B3000E949D
:1025400092052093B3000E9492052093B3000E944D
:1025500092052093B3000E9492050093B3000E945D
:1025600092050093B3000E9492050093B3000E946D
:1025700092050093B3000E9492050093B3000E945D
:1025800092052093B3000E949205419150E0A6E08D
:102590005A9522F4A15092F0419157E0441F48F41B
:1025A0000093B3000E9492050093B3000E9492052D
:1025B000EFCF2093B3000E949205EACF48E50E9436
:1025C0008B0540E30E948B050093B3000E949205A7
:1025D0000093B3000E9492050093B3000E949205FD
:1025E0002093B3000E9492052093B3000E949205AD
:1025F0002093B3000E9492050093B3000E949205BD
:102600002093B3000E9492050093B3000E949205AC
:102610000093B3000E9492050093B3000E949205BC
:102620000093B3000E94920540E80093B3000E941B
:1026300092050093B3000E9492050093B3000E949C
:1026400092050093B3000E9492050093B3000E948C
:1026500092050093B3000E9492052093B3000E945C
:1026600092052093B3000E9492050093B3000E944C
:1026700092050093B3000E9492052093B3000E943C
:1026800092050093B3000E9492050093B3000E944C
:1026900092054A9551F62093B3000E94920500934B
:1026A000B3000E9492050093B3000E94920520930C
:1026B000B3000E9492050093B3000E94920500931C
:1026C000B3000E9492050093B3000E94920500930C
:1026D000B3000E9492050093B3000E9492050093FC
:1026E000B3000E9492052093B3000E9492050093CC
:1026F000B3000E9492050093B3000E9492052093BC
:10270000B3000E9492052093B3000E9492050093AB
:10271000B3000E9492050093B3000E9492050093BB
:10272000B3000E9492050093B3000E94920520938B
:10273000B3000E9492052093B3000E94920520935B
:10274000B3000E9492052093B3000E9492056A95FF
:1027500021F048ED0E948B05E5CE0093B3000E9466
:1027600092054091230045FDF8CF1092B000809172
:102770005B06806480935B0660E00E94BF0C1111D1
:1027800001C0789480E051CECF93C82F80915B0632
:1027900060E08F7D0E94BF0C4298C1110FC043982A
:1027A000429A80915B0661E080620E94BF0C3AE130
:1027B0003A95F1F700000000CF910895439AF0CFC9
:1027C000282F3B9842982A9A90E080E00000000071
:1027D00000000000880F33998160429A42989F5F01
:1027E0002913F4CF2A983B9A429A089583E00E94D5
:1027F000E0139091AA0180FD05C090619093AA0119
:1028000081E008959F7E9093AA0180E00895CF9380
:10281000C1E508C063E070E080E090E00E946907D5
:10282000C150C1F081E00E94E01380FF16C081E03A
:102830000E94C413E091B401F0E0E055FE4F8081A6
:10284000823041F76AE070E080E090E00E94690722
:10285000C15041F780E0CF91089581E0CF91089574
:102860001F93CF93DF93192F111F1127111FEC0115
:1028700097FF04C0CC27DD27C81BD90B2197892BD4
:1028800091F0112329F081E00E94E01380FF03C042
:10289000812F0E94C4136AE070E080E090E00E9403
:1028A0006907219770F76AE570E080E090E0DF91BA
:1028B000CF911F910C946907CF93DF9382E00E9420
:1028C000E01380FD18C08091B40190E0FC01E05558
:1028D000FE4F2081223091F081E00E94E01380FDC4
:1028E00028C081E090E00E9430148FEF9FEFDF91CD
:1028F000CF910C943014DF91CF91089583559E4F62
:10290000FC018081C1E0D0E001C0CC0F8A95EAF7DC
:10291000D0915B0660E08C2F8D2B0E94BF0C8C2F1A
:1029200080958D2380935B0660E0DF91CF910C94BE
:10293000BF0C8FEF9FEF0E94301481E090E0DF9199
:10294000CF910C943014CF93DF93C091B401D0E0B9
:10295000FE01EE54FE4F208181E090E001C0880F1F
:102960002A95EAF7809590915B06892380935B0610
:1029700060E00E94BF0CC055DE4F8881823071F04C
:1029800068E572E080E090E00E94690782E00E94C2
:10299000E01380FF0EC0DF91CF91089563E270E0F5
:1029A00080E090E00E94690782E00E94E01380FDD1
:1029B000F2CFDF91CF910C945C1480915B0690E094
:1029C000B0E0A0E0E091B401F0E0EE54FE4F2081D1
:1029D00004C0B695A795979587952A95D2F780FD5F
:1029E00002C080E008950E94A3146CE271E080E0D0
:1029F00090E00E94690781E0089581110C94A3146E
:102A0000E091B401F0E0EE54FE4F208181E090E0CF
:102A1000AC0102C0440F551F2A95E2F780915B0676
:102A2000842B80935B0660E00C94BF0C1F93CF93C4
:102A3000DF93182FD62F1092800081E080938100C1
:102A400010928200F89420E0462F6FEF8FEF0E94E3
:102A5000750BC82F811106C080919801811799F0DC
:102A60008D34F8F078940E940714882391F0812F18
:102A700090E00E943014F89420E04D2F6FEF812FEA
:102A80000E94750BC82F78948C2FDF91CF911F91E6
:102A90000895F894C7E078948C2FDF91CF911F911F
:102AA0000895789480919801212F281B330BC90138
:102AB0000E943014F89420E04D2F6FEF812F0E9478
:102AC000750B8111CFCF78948C2FDF91CF911F910F
:102AD00008958F929F92AF92BF920F931F93CF93BF
:102AE000DF93CDB7DEB7A1970FB6F894DEBF0FBE68
:102AF000CDBF19A2423008F44AE08E010F5D1F4F8E
:102B0000842E912CB12CA12CA50194010E949B270D
:102B1000E62FB901CA01EA3044F5E05DD801EE9331
:102B20008D01232B242B252B79F790E080E0109743
:102B300069F0FD0101900020E9F73197AF014A1BD0
:102B40005B0BBD018EEB91E00E949A05A1960FB63A
:102B5000F894DEBF0FBECDBFDF91CF911F910F91D3
:102B6000BF90AF909F908F900895E95CD7CF462F8C
:102B7000682F70E090E080E00C946915CF93C82F27
:102B800083E891E00E948706CA3050F08EEA90E018
:102B90000E9487066AE070E08C2FCF910C94B715E5
:102BA000EC2FF0E0EA52FA4E0C94BD27E515C6155D
:102BB000EA15EF15F415F915FE1503160816E015BC
:102BC0008FEB90E0CF910C9487068AE791E0CF914C
:102BD0000C9487068AE691E0CF910C94870686E5EF
:102BE00091E0CF910C9487068EE391E0CF910C9405
:102BF000870680E291E0CF910C9487068CE091E00B
:102C0000CF910C94870681EF90E0CF910C948706CA
:102C100087ED90E0CF910C948706CF92DF92EF92F0
:102C2000FF92CF93DF936B017C018DE20E94A2069D
:102C3000EC0166277727CB016C197D098E099F0966
:102C40004AE00E9469158C0F9D1FDF91CF91FF9084
:102C5000EF90DF90CF90089542E050E068E771E098
:102C60008EEB91E00C949A05CF93DF930E94870638
:102C7000EC010E942C168C0F9D1FDF91CF910895BF
:102C80000E942C1682E195E00E94341689EB94E0B4
:102C90000E94341686E994E00E94341687E694E098
:102CA0000E94341687E294E00E9434168CEF93E081
:102CB0000E94341680ED93E00E94341682EB93E07C
:102CC0000E94341680E993E00E9434168DE593E06B
:102CD0000E9434168BE293E00E94341688E093E061
:102CE0000E94341682ED92E00E94341681EA92E04E
:102CF0000E94341683E692E00E9434168FE292E03E
:102D00000E94341686EF91E00E94341681EB91E028
:102D10000E9434168BE891E00E9434160C942C1615
:102D2000CF93DF93C82F87EA90E00E9487066AE07E
:102D300070E08C2F0E94B7158DE990E00E94870605
:102D4000D0E0C055DE4F6AE070E088810E94B71580
:102D50008AE990E00E94870688818130D9F090F05E
:102D6000823041F084E790E00E948706DF91CF91A6
:102D70000C942C168CE790E00E948706DF91CF918F
:102D80000C942C1685E990E00E948706DF91CF9184
:102D90000C942C168FE890E00E948706DF91CF916B
:102DA0000C942C16FF920F931F93CF93DF93CDB704
:102DB000DEB7C450D1400FB6F894DEBF0FBECDBF12
:102DC000F42E00E09E012F5F3F4F0E940A0C182F47
:102DD00081110DC040E850E0F11017C0BE016E5FD8
:102DE0007F4F8CE592E00E94AE29892B89F4812FD8
:102DF000CC5FDE4F0FB6F894DEBF0FBECDBFDF91C4
:102E0000CF911F910F91FF90089540E051E0E6CFE0
:102E100018E0EDCFAF92BF92CF92DF92EF92FF9288
:102E20000F931F93CF93DF932CE5E22E22E0F22E37
:102E30000197807F9C0124593D4F690100E060E3C8
:102E40008EEB91E00E943A0660E170E080E00E9423
:102E5000B715003128F460E38EEB91E00E943A064A
:102E600060E170E0802F0E94B7156AE38EEB91E07D
:102E70000E943A065701D0E0C0E018C0F501119158
:102E80005F01103128F460E38EEB91E00E943A0676
:102E900060E170E0812F0E94B71560E28EEB91E057
:102EA0000E943A062196C031D10559F0CE018770B3
:102EB0009927892B19F760E28EEB91E00E943A0680
:102EC000DDCF60E28EEB91E00E943A065701D0E040
:102ED000C0E013C0F50111915F01812F90E00E94C5
:102EE000A729892B09F41EE2612F8EEB91E00E9445
:102EF0003A062196C031D10559F0CE018770992745
:102F0000892B41F760E28EEB91E00E943A06E2CF16
:102F10000E942C16005FF0E1EF0EF11CEC14FD0492
:102F200009F08DCFDF91CF911F910F91FF90EF901E
:102F3000DF90CF90BF90AF9008950F931F93CF93E2
:102F4000DF93EC0188819981009759F02A813B81B8
:102F50002617370730F081E0DF91CF911F910F9155
:102F600008958B016F5F7F4F0E94E828009759F00A
:102F7000998388831B830A832C813D81232B59F7F6
:102F8000FC011082E8CF80E0E7CFCF93DF93EC0124
:102F900088819981009711F00E945F281982188218
:102FA0001D821C821B821A82DF91CF910895EF92BD
:102FB000FF920F931F93CF93DF93EC017B018A0164
:102FC000BA010E949D1781110BC0CE010E94C51746
:102FD000CE01DF91CF911F910F91FF90EF90089557
:102FE0001D830C83B701888199810E94C429F0CF89
:102FF000FB0101900020E9F73197AF01461B570B09
:103000000C94D717CF93DF93EC01FB01861797073A
:1030100049F0608171816115710541F044815581EC
:103020000E94D717CE01DF91CF9108950E94C51756
:10303000F9CFFC0180819181009711F00C945F28F9
:103040000895CF93DF93CDB7DEB76F970FB6F8949F
:10305000DEBF0FBECDBFE091CE01F091CF0182E087
:103060008083E091CA01F091CB011082E091CC0104
:10307000F091CD0180E180831092D601E091D201E0
:10308000F091D30186E08083E091D001F091D101ED
:10309000808180618083E091D001F091D1018081B5
:1030A00088608083E091D001F091D10180818068B7
:1030B0008083E091D001F091D10180818F7D808368
:1030C00084E00E94E01380FF7DC50E942C168EEBE9
:1030D00091E00E94A7068EEB91E00E94A706E09186
:1030E000D001F091D10180818F7E8083E091D00169
:1030F000F091D1018081877F8083E091D001F091B0
:10310000D10180818F778083E091D001F091D1014E
:1031100080818F7D80838091D8018093D701F8943E
:1031200061E089E00E94C70688E00E94E013182F42
:10313000109513FB882780F98093AF0112FD3AC5E3
:10314000EE24E394F12CD12CC12C01E080E092E03C
:1031500010FF91E0F601E055FE4F90830E9490161B
:1031600082E011FF81E0F701E055FE4F8083802F60
:103170000E949016F601E355FE4F83E08083F6012E
:10318000EE54FE4F91E09083F701E355FE4F92E03D
:103190009083F701EE54FE4F24E020831092AC019F
:1031A0001092AB0120E22093AA012FEF2093B401EB
:1031B0001092A8011092A9011AB88BBB1092A70116
:1031C00016BC10926E0094BD85BD89EF87BDA99A8B
:1031D000612CF9E17F2EA5E18A2E912C74E1C72E96
:1031E000D12CEE24E394F12C0FC01091AA01012FF1
:1031F0000170002339F08091A5019091A601892BDF
:1032000009F444C0A99981C0D99BEFCF349B14C065
:1032100086B1837009F0BCC08091A701811128C1DB
:103220008091AA018BB98FEF8AB929983499FECF82
:103230001AB8299AD99AD9CF359BD7CF86B183703E
:1032400059B029983599FECF299AD99A882309F43B
:103250001FC11091AA01012F0170813051F65092C7
:1032600092018091AF01882321F28091AC018160AD
:10327000813309F0BECF80919401E82FF0E0E05A4D
:10328000FC4F50828F5F80939401B3CFA090B40124
:10329000B12CF501E855FE4F55245394508200910E
:1032A000A001073009F45BC208F490C00D3009F4A6
:1032B000CEC00F3009F490C0093009F0D5C080911C
:1032C0009F01882309F48AC2F501E055FE4F008171
:1032D000813009F4E4C280919301882339F0809110
:1032E000AC018E7F8093AC011092930180ED97E04A
:1032F000023011F080E099E1F501EE0FFF1FEF556C
:10330000FE4F91838083A99B7FCF0091B40102304F
:1033100008F440C08091A5019091A601009729F082
:1033200001979093A6018093A5018091A1019091AE
:10333000A201009741F001979093A2018093A1010F
:10334000892B09F4F7C18091A3019091A401009702
:1033500039F001979093A4018093A301892B11F078
:10336000A99A3CCF2091B30181E090E0FC0102C01A
:10337000EE0FFF1F2A95E2F780915B068E2B80935C
:103380005B0660E00E94BF0C1092A901A99A26CFAB
:103390008FEF48CF809102018150809302018823F2
:1033A00009F4FDC110E0F801E055FE4F8081813045
:1033B00009F4EDC1D89BF9C184EB80930101D89A3F
:1033C0008091AA018F7D8093AA01A4CF033009F4D4
:1033D00000C2053009F048C00E94F6138111F3C104
:1033E0009091AB01292F207180919E011091AA012B
:1033F00095FD46C29BEF053009F098EF90935F036F
:1034000041E0211101C040E0012F2FE533E0609140
:1034100000010E948E0F109294011E7F1093AA014A
:103420008F3F09F47DC1823009F4FAC1882339F055
:103430008091AA0185FD03C088608093AA01A090B5
:10344000B401B12CF501E055FE4F008144CFF501E8
:10345000E055FE4F008180919F01882309F4D2C17D
:103460001E7F1093AA0137CF1E7F1093AA01EACFC7
:1034700090919501E92FF0E0E55AFD4F818120916F
:10348000AF01222309F4CECE9F5F90939501CACE5F
:103490008091AC015092AC0180FD10C1052D0170EE
:1034A00050FE0CC1EDEFE50DEF3708F007C1F0E07D
:1034B000E45AF54E0C94BD276E1B5E1B6E1B5E1B03
:1034C0006E1B5E1B6E1B5E1B641B5E1B6E1B5E1BFE
:1034D0006E1B5E1B5A1B5E1B5E1B5E1B4C1B5E1B2A
:1034E0005E1B5E1B5E1B5E1B5E1B5E1B5E1B5E1B14
:1034F0005E1B5E1B1C1B5E1B5E1B5E1B5E1B5E1B46
:103500005E1B5E1B5E1B5E1B5E1B5E1B5E1B5E1BF3
:103510005E1B5E1B041B5E1B5E1B5E1B5E1B5E1B3D
:103520005E1B5E1B5E1B5E1B5E1B5E1B5E1B5E1BD3
:103530005E1B5E1BF31A5E1B5E1B5E1B5E1B5E1B2F
:103540005E1B5E1B5E1B5E1B5E1B5E1B5E1B5E1BB3
:103550005E1B5E1B5E1B5E1B5E1B5E1B5E1B5E1BA3
:103560005E1B5E1B5E1B5E1B5E1B5E1B5E1B5E1B93
:103570005E1B5E1B5E1B5E1B5E1B5E1B5E1B5E1B83
:103580005E1B5E1B5E1B5E1B5E1B5E1B5E1B5E1B73
:103590005E1B5E1B5E1B5E1B5E1B5E1B5E1B5E1B63
:1035A0005E1B5E1B5E1B5E1B5E1B5E1B5E1B5E1B53
:1035B0005E1B5E1BDB1A1092950110929401109114
:1035C000AA0116771093AA018091AF0100E0882329
:1035D00021F0E89450F85092AC0156FA552450F876
:1035E0005092A70106CE809195018F5F809395013F
:1035F0001091AA01012F01709091AF019111E9CFB3
:103600008F7780939501E9CF80919401E82FF0E0C6
:10361000E05AFC4F9091920190838F5F80939401C8
:103620001091AA01012F01709091AF019111D1CF9A
:103630008F7780939401D1CFB0909201AB2CA2945C
:10364000A694A69463E0A6222091B4010A2D10E06E
:103650008091AF019091AA01A21671F0223008F476
:1036600048C2A092B401F1E09091AA0190628091C9
:10367000AF01FA1508F0F9C1000F111F997F192F3A
:10368000102B1093AA018111B2C19B2D9F719093B1
:103690000001012F01709BCF1091AA01012F017031
:1036A0008091AF01882309F498CF80919201809393
:1036B000AB018FCF80919201809396018091AF01F1
:1036C0001091AA01012FE6CF0091AA01102F1777C0
:1036D0001093AA018091AF01017079CF1091AA01D6
:1036E000812F897029F48091B401823008F493C14C
:1036F0008091AF01012F0170882309F46ECF8FEF05
:103700008093A001D092A601C092A50111601093F0
:10371000AA01852D8E7F8093AC011092A70172CDF6
:1037200010929501109294011092A7018091AA0124
:10373000867783CE2091B20181E090E0AC0102C097
:10374000440F551F2A95E2F780915B06842B8093E6
:103750005B0660E00E94BF0C1092A801F4CD63E606
:10376000A62E64E0B62E4091AB0142954170012F28
:1037700095016091000180919E010E940A0CF50163
:103780009081983F09F410681092950146CE80917F
:103790000101815009F451C080930101BBCD0E9409
:1037A000F6138AEF80930201FDCD809101018823F9
:1037B00009F4B0CD8150809301018111ABCD80918E
:1037C000AA01806200CE8091AA018E7F8093AA0117
:1037D00039CE7BE5A72E72E0B72EC5CF81E00E94DF
:1037E000E01380FD77C010929E01F501E055FE4F79
:1037F000008180919601882309F432CE81E0809384
:103800009F0169CD81E00E94E01380FD79C0109294
:103810009E0150929F019092A6018092A5015BCDDE
:103820008091AA01A090B401B12CF501E055FE4FA2
:10383000008180628093AA014ECD82E380930101D2
:10384000F090AA01F5FE60C0D89B64CDD89A809113
:10385000AA018F7D8093AA018091B40190E0FC01C0
:10386000E055FE4F2081223009F49DC020E039E16F
:10387000880F991FFC01EF55FE4F318320834ACDFD
:103880002223B9F1612F0E94080D982FF501E05510
:10389000FE4F0081812F8E7F913061F6CACF10914B
:1038A0009E0180919601181709F45FC0181708F05F
:1038B00052C080E00E94C4131F5F10939E0184E0F9
:1038C00090E0023011F48BE090E09093A601809399
:1038D000A50101CD8091AB0185FF4AC0F501E055FE
:1038E000FE4F00819091960180919E01981386CFA2
:1038F000B7CD412F682F83E694E00E94CE11C5CF4B
:1039000081E00E94C413DBCF82E00E94E01380FDBF
:1039100001CD8F2D80628093AA010E945C14F80172
:10392000EE0FFF1FEF55FE4F11821082F801EE548B
:10393000FE4F208181E090E001C0880F2A95EAF7D0
:10394000809590915B06892380935B0660E00E94DE
:10395000BF0CD89ADFCC81E00E94E01380FFAFCF8C
:1039600081E00E94C4131150A8CF10929F0153CF41
:103970001092800091E0909381001092820084FB6D
:10398000442740F9212F6FEF8FEF0E94750B909124
:10399000980190939E01882349F09091AA019E7FFF
:1039A0009093AA013DCD20ED37E062CF8091960142
:1039B000981741F0A090B401B12CF501E055FE4FED
:1039C00000811CCF8091AA018E7F37CD8091AF01FD
:1039D0009091AA01882309F486C0B090920150907A
:1039E000AC019064192F197F102B1093AA018091BC
:1039F0005B06B5FE06C087FF02C00C946E2581E011
:103A000044CE87FDFCCF806880935B0660E00E9417
:103A1000BF0C81E03ACE5092A00110929F0110920B
:103A2000A6011092A50111601093AA01A82EB12C35
:103A3000F501E055FE4F4080F501E855FE4F8081CD
:103A4000882311F40C94242582E0481611F40C9478
:103A5000202580E099E1F501EE0FFF1FEF55FE4FA5
:103A6000918380838091AF01B2CDF801E355FE4F81
:103A70008081970102C0220F331F8A95E2F7C901A6
:103A8000809590915B06892380935B0660E00E949D
:103A9000BF0C0E94F613F801E057FE4F8081882387
:103AA00009F482C08091AA01B82EE894B5F8B092CA
:103AB000AA0182E00E94E01380FF39C0B5FC3DC03E
:103AC000000F111FD89A84EB80930101E091B4019B
:103AD000F0E0E055FE4F8081823009F477CF80918D
:103AE000AF019091AA019F7BB09092015090AC01E0
:103AF000C5CD30E0F901E057FE4F8091AA0185FB6A
:103B0000882780F991E08927808323553E4FF9016A
:103B10008081970101C0220F8A95EAF780915B06A8
:103B2000822B80935B0660E00E94BF0C9ACD8B2DA8
:103B300080628093AA010E945C14F801E055FE4F58
:103B40008081813009F4CDC78AED98E2000F111F02
:103B500024E02093810010928500109284009093BD
:103B600089008093880082E086BBD89A02C0D899E9
:103B700002C0B19BFCCFD89B05C08091AA018F7D6C
:103B80008093AA018091B40190E0FC01E055FE4FC2
:103B90002081213009F096CF880F991FFC01EF5545
:103BA000FE4F118210828ECF8091AA01B82E6894A8
:103BB000B5F87DCFF12CE12CCC24C394D12C00E0BE
:103BC00081E0C5CA88E498E00E94341688E00E942B
:103BD000E013182F109582E010FF81E08093B00170
:103BE00080E00E94901682E011FF81E08093B10195
:103BF00081E00E94901683E08093AD0181E0809384
:103C0000B20182E08093AE0184E08093B30187EF3C
:103C100012FF0DC081E298E00E9434162091AD01A0
:103C200081E090E001C0880F2A95EAF78095109214
:103C3000B40190915B06892380935B0660E00E944B
:103C4000BF0C109288011092890110928A01109283
:103C50008B0110928C0110928D0110928E011092A6
:103C60008F0181E08093860180938701912C7724D6
:103C700073949E012D5E3F4F3B8F2A8FAE014B5EAA
:103C80005F4F5D8F4C8FCE0147966C01FE01799698
:103C90005F018BE198E00E9487066AE070E0892D61
:103CA0000E94B7158AE30E94A20688E198E071108D
:103CB00002C085E198E00E94870683E00E94E0133D
:103CC00080FF77C284E198E00E94870681E00E942D
:103CD000E01380FF6BC28FE098E00E94870682E0CD
:103CE0000E94E01380FF5FC28EEF97E00E9487067C
:103CF0008FEF97E00E9487061E861D86188A1F8612
:103D00001A8A198A50E040E06AE771E0CE010D9608
:103D10000E94D7171FC00E94A729892B09F0C5C090
:103D20008091880190918901A0918A01B0918B01C5
:103D3000892B8A2B8B2B09F08EC080918C0190915E
:103D40008D01A0918E01B0918F01892B8A2B8B2B35
:103D500009F047C28EEB91E00E94D6058C018D30B0
:103D6000910509F4E5C08A30910509F4E1C08B3171
:103D7000910509F4D7C08830910569F689899A8937
:103D8000892B71F268E08EEB91E00E943A0660E2C6
:103D90008EEB91E00E943A0668E08EEB91E00E9483
:103DA0003A0609891A891A8219821C821B821E828C
:103DB0001D8250E040E06AE771E0CE0101960E946A
:103DC000D71789899A890097E1F001501109801766
:103DD000910708F48C01ED85FE85E00FF11FF0805E
:103DE00010826D857E85CE0101966115710509F4FD
:103DF0003AC20E94F8178D859E85080F191FF80199
:103E0000F0828D859E8569817A81009779F06115B0
:103E1000710541F04F8558892D813E814217530726
:103E200008F024C20E945F2869817A817E876D87AD
:103E30008B819C81988B8F878D819E819A8B898BBA
:103E40001A8219821C821B821E821D82CE0101965B
:103E50000E94191865CF2FB7F8948091B601909100
:103E6000B701A091B801B091B9012FBF409188016D
:103E70005091890160918A0170918B01481759070F
:103E80006A077B0708F059CF80915B0682608093B8
:103E90005B0660E00E94BF0C1092880110928901BD
:103EA00010928A0110928B0148CF1A8219821C82CB
:103EB0001B821E821D820F831886BE01695F7F4FA1
:103EC000CE0101960E94F81718861F821A8619865D
:103ED0001C861B86BE01635F7F4FCE0107960E9442
:103EE000021889809A808114910409F457C1ED80E9
:103EF000FE80E114F10409F046C1BE01695F7F4F05
:103F0000CE010D960E940218CE0107960E94191844
:103F1000CE0101960E941918602F8EEB91E00E944D
:103F20003A06FECE6AE771E0CE010D960E94F817C0
:103F30000E942C16FB8DFF932A8D2F933D8D3F936E
:103F40004C8D4F93DF92CF92BF92AF928BE791E06F
:103F50009F938F938E858F938D858F930E94CB290E
:103F60007C010FB6F894DEBF0FBECDBF1816190640
:103F70000CF02EC1898C882D082C000C990B0E9406
:103F800058278C01892B09F023C192E7891609F47F
:103F900052C137E7831609F470C192E5891609F416
:103FA000F0C237E5831609F4BCC1E2E68E1609F4C7
:103FB00068C2F2E48F1609F442C23DE6831609F4A2
:103FC000A6C25DE4851609F454C0E9E68E1609F42C
:103FD000B7C32FE6821609F4C3C340E3841609F47D
:103FE00005C458E6851609F4FEC384E6881609F46C
:103FF0001DC4F4E48F1609F406C433E7831609F4EC
:10400000B7C459E4851609F465C494E5891609F422
:1040100032C6F6E68F1609F48FC59090B401092DCB
:1040200010E088E7881609F4E0C4F801EA57FE4F6B
:1040300080818823A9F080915B0690E0B0E0A0E049
:104040000E541E4FF801208104C0B695A795979590
:1040500087952A95D2F780FF3AC12091B401922E1C
:10406000CE010D960E94191814CE8EEB91E00E949D
:10407000D6058EEB91E00E94F805892BB1F786E515
:1040800096E00E9434168EEB91E00E94F805892B91
:1040900009F074C084E496E00E94870610928000C4
:1040A00083E0809381001092820080E00E947B0C6C
:1040B00014E0212C312C21018111D9C180E00E9412
:1040C0007B0C8111D4C18091840090918500280ED1
:1040D000391E411C511C115089F710928100C201F8
:1040E000B10128EE33E040E050E00E949B277901C7
:1040F0008A01C201B10124E630E040E050E00E94B4
:104100009B27CA01B9012AE030E040E050E00E945C
:104110009B2780E3882E860EC201B1012AE030E0A1
:1041200040E050E00E949B27962ECA01B9012AE088
:1041300030E040E050E00E949B2790E3692E660E3D
:1041400090E3990E4AE0C801B7010E9469158EE21A
:104150000E94A206882D0E94A206862D0E94A20619
:10416000892D0E94A20681E496E00E9434168EEB0F
:1041700091E00E94F805892B09F48CCF8EEB91E039
:104180000E94D6056BC08B859C85E80EF91EB70191
:10419000CE0107960E949D1781110EC0CE01079691
:1041A0000E94C517AACE8AEF97E0A0CD8BE098E0D9
:1041B00094CD80E198E088CD2F8138858B859C85D2
:1041C000B401820F931F0E94C429FC86EB8695CE12
:1041D0000E944016CE010D960E9419189090B401CD
:1041E00058CD2FB7F8948091B6019091B701A09166
:1041F000B801B091B9012FBF40918C0150918D0150
:1042000060918E0170918F01481759076A077B07EB
:1042100008F0A0CD80915B06806180935B0660E032
:104220000E94BF0C10928C0110928D0110928E0191
:1042300010928F018FCDE1E0EE16F10479F08F88B6
:10424000988CF2E0EF16F10409F4E7C0182D8D8880
:104250009E8883EB810F823B08F017C49090B401D5
:10426000092D10E0E2CE0E94C517C5CD0E94C429D9
:104270008D819E819A8B898BE7CD41E0E416F10414
:1042800069F38F88988C52E0E516F10409F006C1B5
:10429000C40101974A9710F70E94DD148BEF8093B9
:1042A0005B0200E02BE532E0472D682D8FEF0E9486
:1042B0008E0F811129C186EF97E00E943416CECF70
:1042C000F801EA57FE4F8081882309F4C9CE8FB7E1
:1042D000F8944091B6015091B7016091B801709186
:1042E000B9018FBF9090B401892D90E0FC01E05599
:1042F000FE4F2081223009F405C208E813E120E0D6
:1043000030E0880F991F880F991FFC01E857FE4F76
:10431000400F511F621F731F408351836283738359
:104320009FCEECE44E2E512C41E0E416F10449F00E
:104330000F89188D280152E0E516F10411F04D881F
:104340005E8888E897E00E9487066AE070E08091C6
:10435000B4010E94B71586E797E00E9434168EEBF1
:1043600091E00E94D60587FDFACF893709F076CF14
:104370000E94DD148BEF80935B02902E04151504D0
:1043800011F00CF06BCF672D892D0E94161581114D
:1043900065CF1AE1EE24E394F12C11C087E597E094
:1043A0000E94341682E0E80EF11C9BE1E916F1044C
:1043B0001CF062E0E62EF12C115009F45EC187E694
:1043C00097E00E9487066AE070E0892D0E94B71589
:1043D0008EE597E00E9487064AE0B7010F2C000C9B
:1043E000880B990B0E9469158EEB91E00E94A7063D
:1043F00000E02BE532E0472D6E2D892D0E948E0FB7
:10440000082F882359F282E597E00E948706802FC3
:104410000E94BE150E942C16C5CFC40101974A9771
:1044200008F01CCF0E94DD1483E091E0EBE5F2E0A0
:104430009C01119221503040E1F71FEF3EC300E094
:1044400011E0711002C000E810E08CE097E00E94DB
:104450008706EA94EF2809F05AC1ECE5F2E080E023
:1044600081938F5F8013FCCF0E942C16F7CE20E340
:10447000922E30E3632E40E3842EE12CF12C870151
:1044800061CE8BE197E00E94341680E091E07110DC
:1044900002C080E890E00E940A17E0CE182D83EB5E
:1044A000880D823B08F4DACE4D885E88C201019700
:1044B0004A9708F0D3CE0E94DD148BEF80935B0205
:1044C0001F3F31F0672D882D0E94161581111CC0E9
:1044D00000E02BE532E0472D642D882D0E948E0FE1
:1044E000811112C083E0E816F10409F4E4CE8B894F
:1044F0009C89892B09F4DFCE472D642D882D0E94DD
:10450000D216882309F4D7CE0E94BE15A7CE2091DB
:10451000B401922E022F10E080915B0690E0B0E093
:10452000A0E0F801EE54FE4F308104C0B695A79587
:10453000979587953A95D2F781709927AA27BB2737
:10454000EA94EF2809F422C14F89588D892B8A2BD0
:104550008B2B09F012C14115510509F43EC24230BE
:10456000510509F0ADCE8BE896E00E9434162091FB
:10457000B401022F10E0F801EA57FE4F81E080837A
:104580005ACD0E94DD14E1E0EE16F10409F414C1E5
:104590008F89988DF2E0EF16F10409F413C12D898B
:1045A0003E893F8F2E8FF82E4E8D5F8D8417150616
:1045B00011F00CF053CE672D8F2D0E94161581112E
:1045C0004DCEAAE16A2E88248394912CE82C140104
:1045D000092C000C440855081BE004C086EB97E04A
:1045E0000E94341687EE97E00E9487066AE070E02A
:1045F0008F2D0E94B7158EED97E00E9487064AE046
:10460000C201B1010E9469158EEB91E00E94A706DC
:1046100000E02BE532E0472D6E2D8F2D0E940A0C15
:10462000082F882329F18BEF800F823010F411506E
:10463000A9F682ED97E00E948706802F0E94BE15A2
:104640000E942C1692E0890E911CEBE18E169104CB
:104650001CF0F2E08F2E912C6A946110B7CFF39486
:104660002E8D3F8DF216130609F00CF4A4CFF6CD73
:1046700087ED97E00E943416E5CF5AE1F52E01E070
:1046800010E00EC081E397E00E9434160E5F1F4FCA
:104690000B31110514F002E010E0FA94FF2059F1FB
:1046A00081E497E00E9487066AE070E0892D0E940D
:1046B000B71588E397E00E9487064AE0B801012E0B
:1046C000000C880B990B0E9469158EEB91E00E94FB
:1046D000A706472D602F892D0E94D216E82E882329
:1046E00089F28CE297E00E9487068E2D0E94BE150B
:1046F0000E942C16CBCF93949414150409F00CF45B
:1047000042CEACCD04E610E020E030E0FACD83E00C
:1047100097E00E9487066F89788D072E000C880B22
:10472000990B40E10E9469158F89ECE5F2E0045A8B
:104730001D4F81930E171F07E1F70E942C168ECD97
:10474000F1E0EF16F10421F0EF88F88CF7FC04C0DB
:10475000C7010E94301482CDF194E194F108F8CFA2
:104760008FEF9FEFEA94EF28A1F38F89988D97FD43
:1047700030C1919581959109ECCF452B31F5F80128
:10478000EA57FE4F808181116ACC6ACC892B8A2B33
:104790008B2BB1F18EEE96E00E948706F801EA5766
:1047A000FE4F8081882309F45FCE8CEC96E00E9456
:1047B00087060E942C1652CDF12C8CE490E09F8F3E
:1047C0008E8FF9CE8E8F9F8FEECE8AEB96E00E9471
:1047D00034160E94A3149090B401E92DF0E0EA573A
:1047E000FE4F10823DCC0E94401638CD0E94071427
:1047F000811134CD87E00E94BE150E942C162ECD6B
:104800008DED96E0C9CFEA94EF2809F459C08CE108
:1048100096E00E948706772473948F89988D892B60
:1048200009F055C0712C87E096E047CDEA94EF2857
:1048300009F414CD8F89988D02970CF00FCD80E389
:1048400096E00E9487066F89788D072E000C880BF2
:10485000990B97FD40C14AE00E9469150E942C16F1
:1048600080E00E94FD14E091B401F0E0E355FE4FBA
:104870008081EE24E394F12CF70102C0EE0FFF1FBC
:104880008A95E2F780905B068E2A60E0882D0E9470
:10489000BF0C0F89188D902E0093B4011127F801D9
:1048A000E355FE4F808101C0EE0C8A95EAF7E09453
:1048B0008E2D882180935B0660E00E94BF0CB5CBF3
:1048C00080E196E00E948706772009F4ACCF8BE068
:1048D00096E0F3CC82E00E94E01380FD19C0809145
:1048E0005B0690E0B0E0A0E0E091B401F0E0EE54AF
:1048F000FE4F208104C0B695A795979587952A9578
:10490000D2F780959095A095B09581700E94FD1486
:104910000E942C16EA94EF2861F48EEC95E00E9438
:1049200087066AE070E08091B4010E94B7150E948A
:104930002C1689EB95E00E9487061092800081E09A
:10494000809381001092820020E0472D6FEF8FEF5F
:104950000E94750B90919801811134C06AE070E05B
:10496000892F0E94B7150E942C160E942C1676CC17
:1049700010915B06EA94EF28C9F08F89988D029711
:1049800099F41F7710935B0660E0812F0E94BF0CA3
:1049900087EF95E00E94870681E317FF82E30E947C
:1049A000A2060E942C165ACC1068ECCF81EF95E03D
:1049B0000E94870681E317FF82E30E94A20683EE2E
:1049C00095E07BCC81EB95E00E9434160E942C167A
:1049D00045CC919581959109CCCE87EA96E00E94CD
:1049E000341680E00E94FD14F6CECE010D960E9492
:1049F0001918F801E355FE4F8081CC24C394D12CC3
:104A0000960102C0220F331F8A95E2F7F0905B06F1
:104A1000F22A60E08F2D0E94BF0C0E541E4FF80149
:104A20008081960102C0220F331F8A95E2F7C901E7
:104A30008F2980935B0660E00E94BF0C0C94651880
:104A400080ED97E00C942B1DF501EE54FE4F808114
:104A5000A70102C0440F551F8A95E2F7CA0180954D
:104A600090915B06892380935B0660E00E94BF0CF7
:104A700052E088E592E0451202C085E290E0909312
:104A8000A6018093A5010C94241DC40101974A97A7
:104A900008F0E4CB0E94DD1483E091E0EBE5F2E066
:104AA0009C01119221503040E1F71F3F31F0672DFA
:104AB000812F0E941615811127CD00E02BE532E0F1
:104AC000472D682D812F0E940A0C882309F4DDCC24
:104AD0000E94BE15C3CB0E940D16C0CE8F770C94DA
:104AE000041D20915B06F801EE54FE4F3081822FA9
:104AF00090E0B0E0A0E0032E04C0B695A79597958E
:104B000087950A94D2F780FF1FC8000F111FF80184
:104B1000EF55FE4F71826082C70101C0880F3A9540
:104B2000EAF78095822380935B0660E00E94BF0CC9
:104B300086EE93EA0C94A81D21E0E216F10409F434
:104B40008CC00F89188D32E0E316F10409F480C09F
:104B50008D880E94DD1443E0E416F10409F47BC063
:104B6000992493948B899C89892B09F4912CE02EAC
:104B700060905B060E9407145CE4581510F4ACE4E6
:104B80008A2E112781115FC017E0E81409F44FC085
:104B90008CE895E00E9487066AE070E08E2D0E9406
:104BA000B7158DE20E94A2066AE070E0882D0E948F
:104BB000B715882D8E2CE82E84E595E0992051F0CC
:104BC00080E795E067FE02C088E695E00E948706D0
:104BD00088E795E00E9487068EEB91E00E94A70689
:104BE000111112C0E81408F43FCC9920C9F060E01C
:104BF000882D0E94080D182F8EE20E94A2068E14A6
:104C000048F08394112371F30E942C16812F0E9487
:104C1000BE1524CB81E090E00E9430148394F2CF43
:104C200040E0682D8BE592E00E94CE11E4CF8FE941
:104C300095E00E9487066AE070E08E2D0E94B7150D
:104C4000BBCFFCE48F2EC8010E94301410E09DCF32
:104C50000E94DD14802E972C8ACF0E94DD14609074
:104C60005B060E940714972CE12C8111EACF17E014
:104C70008CE4882E8DCF8091B401EA94EF2831F036
:104C8000E82FF0E0E055FE4F9F8990830E94901638
:104C90000E942C16E3CA1F920F920FB60F92112496
:104CA0002F933F934F935F936F937F938F939F9334
:104CB000AF93BF93EF93FF938EEB91E00E941806A2
:104CC000FF91EF91BF91AF919F918F917F916F91E4
:104CD0005F914F913F912F910F900FBE0F901F90BA
:104CE00018951F920F920FB60F9211242F938F9346
:104CF0009F93EF93FF93E091CE01F091CF018081DC
:104D0000E091D401F091D50182FD1BC0908180918A
:104D1000D7018F5F8F732091D801821741F0E09106
:104D2000D701F0E0E254FE4F958F8093D701FF91B9
:104D3000EF919F918F912F910F900FBE0F901F9029
:104D400018958081F4CF1F920F920FB60F92112405
:104D50002F933F938F939F93AF93BF938091B6010F
:104D60009091B701A091B801B091B9013091B5010E
:104D700023E0230F2D3758F50196A11DB11D209377
:104D8000B5018093B6019093B701A093B801B09399
:104D9000B9018091BA019091BB01A091BC01B09181
:104DA000BD010196A11DB11D8093BA019093BB0175
:104DB000A093BC01B093BD01BF91AF919F918F9122
:104DC0003F912F910F900FBE0F901F90189526E8DE
:104DD000230F0296A11DB11DD2CF789484B58260B5
:104DE00084BD84B5816084BD85B5826085BD85B58F
:104DF000816085BDEEE6F0E0808181608083E1E83E
:104E0000F0E0108280818260808380818160808375
:104E1000E0E8F0E0808181608083E1EBF0E0808178
:104E200084608083E0EBF0E0808181608083EAE74A
:104E3000F0E08081846080838081826080838081D3
:104E4000816080838081806880831092C1000E948D
:104E5000250F0E942118EEEBF1E01382128288EEFA
:104E600093E0A0E0B0E084839583A683B7838AE6CD
:104E700091E09183808385EC90E09587848784EC32
:104E800090E09787868780EC90E0918B808B81EC17
:104E900090E0938B828B82EC90E0958B848B86ECF8
:104EA00090E0978B868B118E128E138E148E089540
:104EB00091110C946127803219F089508550C8F700
:104EC00008959927882708952F923F924F925F92D5
:104ED0006F927F928F929F92AF92BF92CF92DF920A
:104EE000EF92FF920F931F93CF93DF93CDB7DEB76F
:104EF000CA1BDB0B0FB6F894DEBF0FBECDBF099403
:104F00002A88398848885F846E847D848C849B8459
:104F1000AA84B984C884DF80EE80FD800C811B8167
:104F2000AA81B981CE0FD11D0FB6F894DEBF0FBE96
:104F3000CDBFED010895A1E21A2EAA1BBB1BFD01F6
:104F40000DC0AA1FBB1FEE1FFF1FA217B307E40768
:104F5000F50720F0A21BB30BE40BF50B661F771FC0
:104F6000881F991F1A9469F76095709580959095A0
:104F70009B01AC01BD01CF010895EE0FFF1F05900D
:104F8000F491E02D09940F931F93CF93DF93823018
:104F9000910510F482E090E0E0915E06F0915F06EA
:104FA00030E020E0B0E0A0E0309799F42115310521
:104FB00009F44AC0281B390B24303105D8F58A8101
:104FC0009B816115710589F1FB0193838283FE0149
:104FD00011C0408151810281138148175907E0F0C7
:104FE0004817590799F4109761F012960C9312978D
:104FF00013961C933296CF01DF91CF911F910F91A1
:10500000089500935E0610935F06F4CF21153105D5
:1050100051F04217530738F0A901DB019A01BD0195
:10502000DF01F801C1CFEF01F9CF90935F068093C4
:105030005E06CDCFFE01E20FF31F819391932250C4
:10504000310939832883D7CF20915C0630915D06E2
:10505000232B41F4209162013091630130935D066E
:1050600020935C062091600130916101211531058A
:1050700041F42DB73EB74091640150916501241B66
:10508000350BE0915C06F0915D06E217F307A0F4A2
:105090002E1B3F0B2817390778F0AC014E5F5F4F8E
:1050A0002417350748F04E0F5F1F50935D0640935D
:1050B0005C06819391939FCFF0E0E0E09CCFCF938B
:1050C000DF930097E9F0FC01329713821282A091DE
:1050D0005E06B0915F06ED0130E020E01097A1F48C
:1050E00020813181820F931F20915C0630915D06F3
:1050F0002817390709F061C0F0935D06E0935C065C
:10510000DF91CF910895EA01CE17DF07E8F54A81D4
:105110005B819E0141155105B1F7E901FB83EA83EB
:1051200049915991C40FD51FEC17FD0761F4808197
:1051300091810296840F951FE9019983888382816A
:1051400093819B838A83F0E0E0E012968D919C919D
:1051500013970097B9F52D913C911197CD010296C7
:10516000820F931F20915C0630915D062817390746
:1051700039F6309751F510925F0610925E06B093A3
:105180005D06A0935C06BCCFD383C283408151816E
:10519000840F951FC817D90761F44E5F5F4F888150
:1051A0009981480F591F518340838A819B81938342
:1051B00082832115310509F0B0CFF0935F06E093AB
:1051C0005E069ECFFD01DC01C0CF13821282D7CFD5
:1051D000B0E0A0E0EEEEF8E20C9466278C010097B8
:1051E00051F4CB010E94C3278C01C801CDB7DEB7B3
:1051F000E0E10C948227FC01E60FF71F9C0122508E
:105200003109E217F30708F49DC0D901CD91DC9173
:105210001197C617D70798F0C530D10530F3CE01E6
:1052200004978617970708F3C61BD70B2297C193DD
:10523000D1936D937C93CF010E945F28D6CF5B0101
:10524000AC1ABD0A4C018C0E9D1EA0915E06B09159
:105250005F06512C412CF12CE12C109731F58091F7
:105260005C0690915D068815990509F05CC04616AC
:10527000570608F058C08091600190916101009735
:1052800041F48DB79EB74091640150916501841B34
:10529000950BE817F90708F055C0F0935D06E09309
:1052A0005C06F90171836083A0CF8D919C91119769
:1052B00012966C90129713967C901397A815B905C7
:1052C00059F56C0142E0C40ED11CCA14DB0420F174
:1052D000AC014A195B09DA011296159780F06282D7
:1052E000738251834083D9016D937C93E114F1045F
:1052F00071F0D7011396FC93EE93129776CF229616
:105300008C0F9D1FF90191838083F301EFCFF09300
:105310005F06E0935E0669CF4816590608F42C0133
:105320007D01D3019ACFCB010E94C3277C01009756
:1053300049F0AE01B8010E94BB29C8010E945F2854
:10534000870153CF10E000E050CF803209F0911177
:105350000C94612780528F55D8F70895FB01DC012A
:1053600004C08D910190801921F441505040C8F73C
:10537000881B990B0895FB01DC0102C001900D927E
:1053800041505040D8F70895FB01DC0101900D9287
:105390000020E1F70895AEE0B0E0E1EDF9E20C9411
:1053A000742785E08C838B899C899A838983AE01DD
:1053B000495E5F4F6D897E89CE0101960E946F2BF9
:1053C0002E96E2E00C94902720FD09C0FC0123FDFD
:1053D00005C022FF02C07383628351834083089516
:1053E00044FD17C046FD1DC0DB01FC01AA0FBB1F19
:1053F000EE1FFF1F1094D1F76A0F7B1F8E1F9F1F98
:10540000660F771F881F991F620F711D811D911DE7
:10541000089533E0660F771F881F991F3150D1F729
:10542000F3CF34E0F7CF0F931F93CF93DF938C012B
:10543000C8010E947F2CEC0197FD08C00E945827EC
:10544000892BB1F7B801CE010E94BB2CCE01DF91B0
:10545000CF911F910F9108958F929F92AF92BF921B
:10546000EF92FF920F931F93CF93DF938C01D62F70
:105470007A01B22E0E947F2C9C0133272B323105FA
:1054800029F02D323105A9F46894B7F8D15061F4B0
:1054900080E0DF91CF911F910F91FF90EF90BF902F
:1054A000AF909F908F900895C8010E947F2C97FD28
:1054B000EFCFCB2DCD7F2B2D2073F9F48033E9F482
:1054C000AA24AA94AD0E89F0C8010E947F2C97FDF2
:1054D0000CC0282F2F7D283561F4C264D25029F0EA
:1054E000C8010E947F2C97FF08C0812C912C540189
:1054F0001BC0B6FE2BC0C260DA2D812C912C54014A
:1055000020ED280F283028F1C4FD09C02A3008F109
:10551000C6FF05C02F7D3FEE320F3630C8F0B80110
:105520000E94BB2CC1FFB4CFC7FF08C0B094A094A9
:1055300090948094811C911CA11CB11C2C2FB5014E
:10554000A401C7010E94E42981E0A3CFC261D4CFA6
:1055500027504C2FC501B4010E94F0294B015C017A
:10556000C260D15009F3C8010E947F2C97FFC8CFB9
:10557000D9CFA0E2B0E0EFEBFAE20C9469275C012E
:10558000962E7A01CE0101966C0180E2F60111920D
:105590008A95E9F7F501B381890130E020E0712CAB
:1055A000812CA0E041E050E0F801B3FD8591B3FF0C
:1055B0008191982F8F01811107C010E000E0C80190
:1055C000A096EDE00C9485278E3519F42115310550
:1055D00041F1A21713064CF48D3549F18D3229F4AF
:1055E000811006C0882483941DC0882009F464C0FB
:1055F000E92FE695E695E695EC0DFD2DF11D892F39
:105600008770BA0101C0660F8A95EAF78081682B1E
:105610006083791651F0971510F49F5FE9CF915090
:10562000E7CFA1E02F5F3F4FBFCF812CFBCF88207A
:1056300019F08E8180628E83AA2359F0F6019E01B3
:105640002F5D3F4F8081809580833196E217F3076D
:10565000C9F788248394C5010E947F2C97FD16C04A
:10566000E82FE695E695E695EC0DFD2DF11D2081E0
:1056700030E0AC014770552702C0359527954A9513
:10568000E2F720FD06C0B5010E94BB2C882069F01E
:1056900094CFE114F10429F0F7018083C70101964A
:1056A0007C019A94812C9110D6CFE114F10409F475
:1056B00086CFF701108283CFE82FE695E695E69531
:1056C000EC0DFD2DF11D982F9770BA0101C0660FEA
:1056D0009A95EAF79081692B6083782EA3CFB0E08A
:1056E000A0E0E5E7FBE20C9467276C01EB015A01AF
:1056F000FC0117821682512CF601E380FE01E3FCC7
:105700008591E3FE8191182FEF018823E9F090E065
:105710000E945827892B21F0C6010E94132AECCF42
:10572000153241F4FE01E3FC1591E3FE1191EF0106
:10573000153269F4C6010E947F2C97FD8EC01817A0
:10574000D9F2B6010E94BB2C852D90E08AC000E002
:105750001A3231F4E3FC1591E3FE1191EF0101E0FF
:10576000F12C20ED210F2A3048F101FF37C0FF2036
:1057700059F31836B1F11C3609F43DC0112321F359
:10578000612F70E088E690E00E94742C892BE1F292
:10579000912C812C00FD06C0F50180809180C5010F
:1057A00002965C011E3679F5F6014681578170E05C
:1057B00060E0202FC4010E94E4299ECF02606F2D7B
:1057C00070E090E080E040E20E94F029F62EFE01B9
:1057D000E3FC1591E3FE1191EF01C3CFFF24FA948E
:1057E000C8CFFE01E3FC1591E3FE1191EF011836DD
:1057F00009F0C4CF08600460FE01E3FC1591E3FEEC
:105800001191EF01BBCF1336C1F401FD02C0FF249B
:10581000F394C6010E947F2C97FD1FC08114910450
:1058200029F0F4018083C40101964C01FA94F1102F
:10583000F0CF00FD61CF53945FCF1B35B9F49E01CB
:10584000A4016F2DC6010E94B92AEC01892B89F7AA
:10585000F6018381807309F477CF8FEF9FEF5110AA
:1058600073CFCDB7DEB7EFE00C948327C6010E945B
:10587000132A97FDF2CF1F36A9F130F4143641F008
:10588000193639F0006405C01337B9F01537D1F770
:105890000062202FA4016F2DC6010E942C2A8111C5
:1058A000C8CFD6CF8114910429F0F4016082C401DD
:1058B00001964C01FA94FF2071F0C6010E947F2CE2
:1058C0003C0197FD08C00E945827892B59F3B60167
:1058D000C3010E94BB2C8114910409F4AACFF401E6
:1058E0001082A7CF0061D5CFFC010590061621F0EC
:1058F0000020D9F7C00108953197CF010895CF93C3
:10590000DF93EC012B8120FF1AC026FF0CC02F7BF8
:105910002B838E819F8101969F838E838A8190E065
:10592000DF91CF91089522FF18C0E881F98180812D
:10593000082E000C990B009729F420622B838FEF1F
:105940009FEFEECF3196F983E8832E813F812F5F61
:105950003F4F3F832E839927E3CFEA85FB85099547
:1059600097FFF3CF2B81019621F080E2822B8B836E
:10597000E6CF80E1FBCFFB01238120FF11C026FD94
:105980000FC08F3F980771F082832F7D206423839F
:10599000268137812150310937832683992708953D
:1059A0008FEF9FEF0895F894FFCF01B4010000003E
:1059B00000000000000000000000000000000000E7
:1059C00000000000000000000000E7FFCFFFFFE73D
:1059D000FFF3FFFFFFFFFFCFFFE7F3FFE7FFFFE767
:1059E000FFF3FFFFFFFFFFCFFFE7E7FFE7FFFFE763
:1059F000FFE7FFFFFFFFFFE7FFE7E7FFE7FFFFE747
:105A0000FFE7FFFFFFFFFFE7FFE700006006800002
:105A1000000000003A069A05C705A706F805D60556
:105A2000EA050D0A00256325692C25692C256900E6
:107800000C94343C0C94513C0C94513C0C94513CE1
:107810000C94513C0C94513C0C94513C0C94513CB4
:107820000C94513C0C94513C0C94513C0C94513CA4
:107830000C94513C0C94513C0C94513C0C94513C94
:107840000C94513C0C94513C0C94513C0C94513C84
:107850000C94513C0C94513C0C94513C0C94513C74
:107860000C94513C0C94513C11241FBECFEFD8E036
:10787000DEBFCDBF11E0A0E0B1E0ECE9FFE702C060
:1078800005900D92A230B107D9F712E0A2E0B1E065
:1078900001C01D92AD30B107E1F70E942D3D0C945F
:1078A000CC3F0C94003C982F959595959595959582
