:100000000C949E040C94C6040C94C6040C94C60470
:100010000C94C6040C94C6040C94C6040C94C60438
:100020000C94C6040C94C6040C94C6040C94C60428
:100030000C94C6040C94C6040C94C6040C94C60418
:100040000C94FE150C94C6040C94CC150C94A615B7
:100050000C94C6040C94C6040C94C6040C94C604F8
:100060000C94C6040C94C6046364696E6F70737557
:1000700078585B00756E6B6E6F776E0053687567AE
:1000800061727420534138303020283822290035DD
:100090002E323522006E6F6E65003A2000206973A3
:1000A0002074797065200044726976652000000034
:1000B0002110422063308440A550C660E77008815B
:1000C00029914AA16BB18CC1ADD1CEE1EFF13112D2
:1000D000100273325222B5529442F772D6623993AB
:1000E00018837BB35AA3BDD39CC3FFF3DEE3622422
:1000F000433420040114E664C774A44485546AA5FB
:100100004BB528850995EEE5CFF5ACC58DD55336B1
:10011000722611163006D776F6669556B4465BB74A
:100120007AA719973887DFF7FEE79DD7BCC7C44881
:10013000E5588668A7784008611802282338CCC99A
:10014000EDD98EE9AFF9488969990AA92BB9F55A11
:10015000D44AB77A966A711A500A333A122AFDDBEA
:10016000DCCBBFFB9EEB799B588B3BBB1AABA66CE1
:10017000877CE44CC55C222C033C600C411CAEED3A
:100180008FFDECCDCDDD2AAD0BBD688D499D977EF1
:10019000B66ED55EF44E133E322E511E700E9FFF8A
:1001A000BEEFDDDFFCCF1BBF3AAF599F788F889140
:1001B000A981CAB1EBA10CD12DC14EF16FE1801024
:1001C000A100C230E3200450254046706760B98327
:1001D0009893FBA3DAB33DC31CD37FE35EF3B10274
:1001E0009012F322D2323542145277625672EAB537
:1001F000CBA5A89589856EF54FE52CD50DC5E234C4
:10020000C324A01481046674476424540544DBA706
:10021000FAB79987B8975FE77EF71DC73CD7D32613
:10022000F2369106B01657667676154634564CD996
:100230006DC90EF92FE9C899E9898AB9ABA9445863
:10024000654806782768C018E1088238A3287DCB66
:100250005CDB3FEB1EFBF98BD89BBBAB9ABB754AB3
:10026000545A376A167AF10AD01AB32A923A2EFDF6
:100270000FED6CDD4DCDAABD8BADE89DC98D267C03
:10028000076C645C454CA23C832CE01CC10C1FEF46
:100290003EFF5DCF7CDF9BAFBABFD98FF89F176E53
:1002A000367E554E745E932EB23ED10EF01E556EC4
:1002B0006B6E6F6E776E206572726F723A200044BB
:1002C00069736B2069732077726974652070726F2F
:1002D0007465637465640056657269667920616649
:1002E000746572207772697465206661696C6564F3
:1002F000004E6F20747261636B2030207369676EEB
:10030000616C206465746563746564004461746144
:1003100020636865636B73756D206572726F720020
:1003200044617461207265636F7264206861732038
:10033000756E6578706563746564206964005365E3
:1003400063746F7220686561646572206E6F7420DB
:10035000666F756E64004E6F2073796E63206D61F9
:10036000726B7320666F756E6400447269766520E7
:100370006E6F74207265616479004E6F20657272D1
:100380006F72004572726F723A2000782020202030
:100390002020202020202020204578697420746FA0
:1003A00020636F6E74726F6C6C6572206D6F646524
:1003B0000054205B6E5D2020202020202020205033
:1003C00072696E74206F7220736574207479706521
:1003D000206F662063757272656E74206472697630
:1003E000650049205B302F315D2020202020202017
:1003F0005072696E7420696E666F726D6174696F98
:100400006E2061626F7574202863757272656E74F8
:1004100029206472697665006420302F3120202005
:1004200020202020202053656C656374206472694D
:1004300076652030206F722031003020202020206F
:1004400020202020202020205374657020746F20ED
:10045000747261636B2030006F205B6E5D20202022
:1004600020202020202053746570206E2028646591
:100470006661756C7420312920747261636B73201E
:100480006F75740069205B6E5D2020202020202085
:10049000202053746570206E202864656661756C39
:1004A0007420312920747261636B7320696E006D52
:1004B000205B302F315D20202020202020547572B9
:1004C0006E206472697665206D6F746F72206F6E36
:1004D000206F72206F6666206F722073686F7720BE
:1004E00063757272656E7420737461747573004203
:1004F0002064202020202020202020202046696CFD
:100500006C20627566666572207769746820646520
:1005100063696D616C2076616C7565206400622092
:100520002020202020202020202020205072696EB2
:10053000742062756666657220636F6E74656E7492
:100540000077205B742C5D735B2C302F315D20575E
:10055000726974652062756666657220636F6E7479
:10056000656E7420746F20747261636B2074202830
:1005700064656661756C742063757272656E74294A
:1005800020736563746F7220732028313D616E643F
:1005900020636F6D70617265290072205B742C5D41
:1005A0007320202020202020526561642074726115
:1005B000636B2074202864656661756C74206375B4
:1005C0007272656E742920736563746F7220732074
:1005D000696E746F206275666665720000000000C7
:1005E000240027002A0000000000250028002B001E
:1005F00004040404040404040202020202020303C9
:1006000003030303010204081020408001020408D0
:100610001020010204081020000000080002010060
:1006200000030407000000000000000020696E20A5
:1006300053494E474C452064656E736974792000B8
:10064000207369646520310020736964652032007D
:1006500020696E20444F55424C452064656E736995
:1006600074792000466F726D617474696E672074CE
:100670007261636B732000466F726D617474696E92
:100680006720747261636B2000756E6B6E6F776E9E
:100690000043757272656E7420547261636B202022
:1006A0002020203A200043757272656E74204472D7
:1006B00069766520202020203A200020697320736D
:1006C000656C65637465642E00536964652000532E
:1006D000656C656374696E67207369646520004C9E
:1006E0004F5700484947480044656E736974792044
:1006F0006973200053657474696E672064656E7356
:1007000069747920746F200053656C656374696E39
:100710006720647269766520006D7300526F7461A2
:1007200074696F6E20706572696F643A20004D6560
:1007300061737572696E67207370696E646C652091
:10074000726F746174696F6E2C20707265737320A0
:10075000616E79206B657920746F2073746F702ED1
:100760002E2E0053657474696E67206D6F746F72FE
:1007700020746F204155544F206D6F64652E0054D6
:1007800075726E696E67206D6F746F72204F46468A
:100790002E005475726E696E67206D6F746F7220D3
:1007A0004F4E2E0020286175746F2D6F6666206D88
:1007B0006F646529004D6F746F72206973207275C4
:1007C0006E6E696E67004D6F746F72206973204E94
:1007D0004F542072756E6E696E6700207769746879
:1007E0002030780046696C6C696E672062756666B9
:1007F00065720042756666657220636F6E74656E21
:1008000074733A00203D3E2000203D3E206F6B0077
:1008100020736563746F722000566572696679692A
:100820006E6720747261636B2000203D3E200020C3
:100830003D3E206F6B0020736563746F722000571C
:10084000726974696E6720747261636B20002E2078
:10085000436F6E74696E75652028792F6E293F008D
:1008600057726974652063757272656E7420627563
:100870006666657220746F20616C6C2073656374AA
:100880006F727320696E2064726976652000203D66
:100890003E20435243206572726F722C207472792D
:1008A000696E6720616761696E00203D3E2000200F
:1008B0003D3E206F6B0020736563746F72200052A1
:1008C000656164696E6720747261636B20004F6BB1
:1008D0002E002D444300005D20436F6D6D616E64FA
:1008E0003A20002D543000002D5750000053440092
:1008F0004444000D0A0D0A5B0049474E4F52494ED1
:10090000472044524956452053574150205345549F
:1009100054494E4720494E204D4F4E49544F5200A6
:100920000D0A0A456E746572696E67206469736B9F
:10093000206D6F6E69746F722E00B82211241FBE75
:10094000CFEFD8E0DEBFCDBF26E0A6E8B1E001C022
:100950001D92A036B207E1F711E0A0E0B1E0E4ECAF
:10096000F0E502C005900D92A638B107D9F714E062
:10097000CEE9D4E004C02197FE010E944A23CD397C
:10098000D107C9F70E9448160C9460280C94000007
:100990000093B3000E94D6044A95D1F7089520939E
:1009A000B3000E94D6044A95D1F70895B99BFECFB3
:1009B00031E83093B100B99A08950895AF92BF928B
:1009C000CF92DF92EF92FF920F931F93CF93DF931B
:1009D0006C017B018B01040F151FEB015E01AE184A
:1009E000BF08C017D10759F06991D601ED91FC916C
:1009F0000190F081E02DC6010995892B79F7C50199
:100A0000DF91CF911F910F91FF90EF90DF90CF90EA
:100A1000BF90AF900895FC01538D448D252F30E099
:100A2000842F90E0821B930B541710F0CF960895FB
:100A300001970895FC01918D828D981761F0A28D28
:100A4000AE0FBF2FB11D5D968C91928D9F5F9F73EE
:100A5000928F90E008958FEF9FEF0895FC01918DA4
:100A6000828D981731F0828DE80FF11D858D90E011
:100A700008958FEF9FEF0895FC01918D228D892FAE
:100A800090E0805C9F4F821B91098F739927089596
:100A90008FEB95E00E943C0521E0892B09F420E0D2
:100AA000822F089580E090E0892B29F00E9448056C
:100AB00081110C9400000895FC01A48DA80FB92F9A
:100AC000B11DA35ABF4F2C91848D90E001968F7376
:100AD0009927848FA689B7892C93A089B1898C9195
:100AE000837080648C93938D848D981306C00288E4
:100AF000F389E02D80818F7D80830895EF92FF92AE
:100B00000F931F93CF93DF93EC0181E0888F9B8D30
:100B10008C8D98131AC0E889F989808185FF15C0EA
:100B20009FB7F894EE89FF896083E889F98980810D
:100B30008370806480839FBF81E090E0DF91CF91DC
:100B40001F910F91FF90EF900895F62E0B8D10E0FE
:100B50000F5F1F4F0F731127E02E8C8D8E110CC06D
:100B60000FB607FCFACFE889F989808185FFF5CFB8
:100B7000CE010E945C05F1CFEB8DEC0FFD2FF11D36
:100B8000E35AFF4FF0829FB7F8940B8FEA89FB89F5
:100B900080818062CFCF0F931F93CF93DF938C011F
:100BA000D0E0C0E0F801EC0FFD1F6491662341F036
:100BB0008FEB95E00E947E05892B11F02196F2CFF4
:100BC000CE01DF91CF911F910F910895682F8FEB88
:100BD00095E00C947E05682F8FEB95E00C947E05D4
:100BE000CF93DF93EC01888D8823B9F0AA89BB8964
:100BF000E889F9898C9185FD03C0808186FD0DC04F
:100C00000FB607FCF7CF8C9185FFF2CF808185FF6F
:100C1000EDCFCE010E945C05E9CFDF91CF91089521
:100C200090E0FC01E85EF94F2491FC01EC5FF94F84
:100C30003491FC01E051FA4FE491EE23C9F02223F4
:100C400039F0233001F1A8F4213019F1223029F1D3
:100C5000F0E0EE0FFF1FEA51FA4FA591B4918FB764
:100C6000F894EC91611126C030953E233C938FBFE0
:100C700008952730A9F02830C9F0243049F7809131
:100C800080008F7D03C0809180008F7780938000EB
:100C9000DFCF84B58F7784BDDBCF84B58F7DFBCF6D
:100CA0008091B0008F778093B000D2CF8091B00058
:100CB0008F7DF9CF3E2BDACFCF93DF9390E0FC010D
:100CC000EC5FF94F249180519A4FFC018491882365
:100CD000D1F090E0880F991FFC01E452FA4FA591E2
:100CE000B491FC01EA51FA4FC591D49161110EC043
:100CF0009FB7F8948C91E22FE0958E238C932881F6
:100D0000E223E8839FBFDF91CF9108958FB7F894D6
:100D1000EC91E22BEC938FBFF6CF3FB7F894809124
:100D2000870190918801A0918901B0918A0126B52F
:100D3000A89B05C02F3F19F00196A11DB11D3FBF13
:100D4000BA2FA92F982F8827BC01CD01620F711DE2
:100D5000811D911D43E0660F771F881F991F4A95DB
:100D6000D1F708958F929F92AF92BF92CF92DF9268
:100D7000EF92FF926B017C010E948D064B015C019A
:100D8000C114D104E104F104B9F00E948D06681980
:100D900079098A099B09683E73408105910580F3B2
:100DA00021E0C21AD108E108F10888EE880E83E03C
:100DB000981EA11CB11CE4CFFF90EF90DF90CF9064
:100DC000BF90AF909F908F9008951092A5011092C0
:100DD000A4011092B0018091B40186778093B40190
:100DE0000895DF92EF92FF920F931F93D42EDB01B1
:100DF0001197FC0108E218E380E039E2F32E3FEF9F
:100E0000E32EB09A70E040E0B09B05C0B09AFA942F
:100E100011F483E0BEC143FF4395B59922C071FD33
:100E200017C0349910C0359BF8CF319909C039B13A
:100E30002998726030FF7860313879F78FEFA9C157
:100E400029987260EACFDBB8EAB829987260E5CFDA
:100E500036B1307311F730E03AB9299AD99A7D7FCB
:100E6000DCCF30918600B59A632F621B232F601769
:100E700058F2611740F6483030F271FF08C036B1C1
:100E8000307329F430E03AB9299AD99A7D7FB59B1D
:100E9000F4CF30918600B59A632F621B232F611720
:100EA00008F4B1CF71FF08C036B1307329F430E0D7
:100EB0003AB9299AD99A7D7FB59BF4CF30918600B3
:100EC000B59A632F621B232F061708F4611708F0E9
:100ED0009ACF71FF08C036B1307329F430E03AB9C7
:100EE000299AD99A7D7FB59BF4CF30918600B59A27
:100EF000632F621B232F611708F485CF71FF08C091
:100F000036B1307329F430E03AB9299AD99A7D7F05
:100F1000B59BF4CF30918600B59A632F621B232FC7
:100F2000061708F4611708F06ECF71FF08C036B1DC
:100F3000307329F430E03AB9299AD99A7D7FB59B6C
:100F4000F4CF30918600B59A632F621B232F601770
:100F500008F059CF71FF08C036B1307329F430E082
:100F60003AB9299AD99A7D7FB59BF4CF3091860002
:100F7000B59A632F621B232F611708F444CF71FFCA
:100F800008C036B1307329F430E03AB9299AD99AB9
:100F90007D7FB59BF4CF30918600B59A632F621B9D
:100FA000232F061708F4611708F02DCF71FF08C032
:100FB00036B1307329F430E03AB9299AD99A7D7F55
:100FC000B59BF4CF30918600B59A632F621B232F17
:100FD000611708F418CF71FF08C036B1307329F4D7
:100FE00030E03AB9299AD99A7D7FB59BF4CF3091F8
:100FF0008600B59A632F621B232F061708F461172A
:1010000008F001CF71FF08C036B1307329F430E029
:101010003AB9299AD99A7D7FB59BF4CF3091860051
:10102000B59A632F621B232F601708F0ECCE71FF77
:1010300008C036B1307329F430E03AB9299AD99A08
:101040007D7FB59BF4CF30918600B59A632F621BEC
:10105000232F611708F4D7CE71FF08C036B1307363
:1010600029F430E03AB9299AD99A7D7FB59BF4CF1B
:1010700030918600B59A632F621B232F061708F460
:10108000611708F0C0CE71FF08C036B1307329F483
:1010900030E03AB9299AD99A7D7FB59BF4CF309147
:1010A0008600B59A632F621B232F611708F4ABCE1D
:1010B00071FF08C036B1307329F430E03AB9299A8B
:1010C000D99A7D7FB59BF4CF30918600B59A632F76
:1010D000621B232F061708F4611708F094CE71FDE8
:1010E00092CE58E0B59BFECF30918600B59A632F23
:1010F000621B232F6017F0F0611798F0440F5A9588
:1011000029F4419358E0A150B04052F0440F41609F
:101110005A9529F4419358E0A150B0400AF0E2CF2B
:1011200038C0440F5A9529F4419358E0A150B0407B
:10113000BAF30AC0440F41605A9529F4419358E02C
:10114000A150B0406AF3CECFB59BFECF3091860060
:10115000B59A632F621B232F601790F0440F5A95A6
:1011600029F4419358E0A150B0409AF0440F4160F7
:101170005A9529F4419358E0A150B04052F0B2CFB3
:10118000440F5A9529F4419358E0A150B0400AF019
:10119000DBCF78703091A301372B3093A3011F91DF
:1011A0000F91FF90EF90DF900895DF92EF92FF9202
:1011B0000F931F93FC01862FE42E582F30E3D32E7C
:1011C0003FEFF32E00E078E0B59A80E039E2132F8C
:1011D000B09A40E0B09B05C0B09A1A9511F483E034
:1011E000C4C143FF4395B59922C001FD17C034998E
:1011F00010C0359BF8CF319909C039B129980260E8
:1012000030FF0860313879F78FEFAFC1299802605D
:10121000EACFEBB8FAB829980260E5CF36B130735F
:1012200011F730E03AB9299AD99A0D7FDCCF309185
:101230008600B59A632F621B232F6D155CF648302C
:1012400040F201FF08C036B1307329F430E03AB9FA
:10125000299AD99A0D7FB59BF4CF30918600B59A23
:10126000632F621B232F6D1508F0B3CF01FF08C059
:1012700036B1307329F430E03AB9299AD99A0D7F02
:10128000B59BF4CF30918600B59A632F621B232F54
:101290006D1508F09ECF01FF08C036B1307329F4F8
:1012A00030E03AB9299AD99A0D7FB59BF4CF3091A5
:1012B0008600B59A632F621B232F6D1508F489CF22
:1012C00001FF08C036B1307329F430E03AB9299AE9
:1012D000D99A0D7FB59BF4CF30918600B59A632FD4
:1012E000621B232F6D1508F474CF01FF08C036B1BF
:1012F000307329F430E03AB9299AD99A0D7FB59B19
:10130000F4CF30918600B59A632F621B232F6D15A1
:1013100008F45FCF01FF08C036B1307329F430E024
:101320003AB9299AD99A0D7FB59BF4CF30918600AE
:10133000B59A632F621B232F6D1508F04ACF01FF6A
:1013400008C036B1307329F430E03AB9299AD99AF5
:101350000D7FB59BF4CF30918600B59A632F621B49
:10136000232F6D1508F056C001FF08C036B1307349
:1013700029F430E03AB9299AD99A0D7FB59BF4CF78
:1013800030918600B59A632F621B232F6D1508F0EC
:1013900020CF01FF08C036B1307329F430E03AB9EC
:1013A000299AD99A0D7FB59BF4CF30918600B59AD2
:1013B000632F621B232F6D1508F00BCF01FF08C0B0
:1013C00036B1307329F430E03AB9299AD99A0D7FB1
:1013D000B59BF4CF30918600B59A632F621B232F03
:1013E0006D1508F0F6CE01FF08C036B1307329F450
:1013F00030E03AB9299AD99A0D7FB59BF4CF309154
:101400008600B59A632F621B232F6D1508F4E1CE79
:101410003EEF6CC001FF08C036B1307329F430E0F4
:101420003AB9299AD99A0D7FB59BF4CF30918600AD
:10143000B59A632F621B232F6D1508F041C001FF81
:1014400008C036B1307329F430E03AB9299AD99AF4
:101450000D7FB59BF4CF30918600B59A632F621B48
:10146000232F6D1508F0B5CE01FF08C036B13073DB
:1014700029F430E03AB9299AD99A0D7FB59BF4CF77
:1014800030918600B59A632F621B232F6D1508F0EB
:10149000A0CE01FF08C036B1307329F430E03AB96C
:1014A000299AD99A0D7FB59BF4CF30918600B59AD1
:1014B000632F621B232F6D1508F08BCE3BEF16C0F8
:1014C00001FF08C036B1307329F430E03AB9299AE7
:1014D000D99A0D7FB59BF4CF30918600B59A632FD2
:1014E000621B232F6D1508F474CE38EF31935150E1
:1014F000B59B18C030918600B59A02FD10C0990FB7
:10150000632F621B232F6D1508F002C004609160E9
:10151000715071F7919378E0515051F726C00B7FCD
:10152000232FE6CF01FD17C0349910C0359BE0CFC3
:10153000319909C039B12998026030FF086031380B
:10154000B9F68FEF12C029980260D2CFEBB8FAB883
:1015500029980260CDCF36B1307309F0C9CF30E0A1
:101560003AB9299AD99A0D7FC3CF01FF07C036B186
:101570003073E9F730E03AB9299AD99A0870309176
:10158000A301302B3093A3011F910F91FF90EF9097
:10159000DF900895482F109285001092840081E01A
:1015A00086BB80E294E031E05FEF23B12072281324
:1015B00003C0882371F180E0B09B06C02FEF290F94
:1015C000992321F136BB922F349B0CC026B1237096
:1015D00049F44BB95AB929983499FECF1AB8299AC7
:1015E000D99AE3CF359BE1CF26B12370F1F629B12B
:1015F000222311F02138C9F629983599FECF299A6E
:10160000D99A213829F03093A301CFCF81E00895F2
:101610008FEF0895382F292F8FEF9FEF442311F07C
:1016200084EB9DECA32FB22F6A0F7B1FA617B70781
:1016300079F02D91E92FFF27E227EE0FFF1FE255EA
:10164000FF4F25913491982F882782279327EECF3B
:101650000895DF92EF92FF920F931F93CF93DF9342
:10166000D091BE05109285001092840091E296BB45
:1016700096B39172E9F396B331E236BBC2E095FFBF
:101680000EC0E22EF42E162F082F34E6D32ED0955E
:10169000DD1FDD27DD1FDA94D1100AC0C4E08C2FD6
:1016A000DF91CF911F910F91FF90EF90DF90089500
:1016B0004E2DFF2089F167E070E08CE991E00E94F7
:1016C000F106C82F8111EBCF80919C018E3F19F755
:1016D0004F2D65E070E08CE991E00E940A0BE091EB
:1016E000A101F0E0FE2FEE273091A201E30FF11DE2
:1016F0008E179F0781F60F3F21F080919D01801387
:10170000CDCF80919E018D13C9CF1F3F41F28091B3
:101710009F018113C0CFC3CF67E08CE991E00E94A5
:10172000D508CFCFDF92EF92FF920F931F93CF9305
:10173000DF93D42EE9011092800091E09093810014
:1017400010928200011101C0F894202F4D2D0E94AB
:10175000290B182F811130C0402FDD2049F063E0A4
:1017600071E0CE010E94F1068823A1F1182F24C058
:1017700063E8CE010E94D50860E8E62EF12C8111C5
:10178000F5CF88818B3F11F0883F41F5DD20A1F036
:10179000B7016F5F7F4F41E0CE010E940A0BCE0D73
:1017A000DF1D298130E0322F22274A81240F311D8D
:1017B0008217930709F016E0011101C07894109286
:1017C0008100812FDF91CF911F910F91FF90EF90BA
:1017D000DF900895E12CFF24F394D3CF15E0ECCFF4
:1017E00098B1937F492F4860292F2460392F3C609E
:1017F0002C9887FF26C048B938B986FF25C048B95C
:1018000038B985FF24C048B938B984FF23C048B926
:1018100038B983FF22C048B938B982FF21C048B91E
:1018200038B981FF20C048B938B980FF1FC048B916
:1018300038B9662321F035E03A95F1F700002C9A8B
:10184000089598B928B9D9CF98B928B9DACF98B9F5
:1018500028B9DBCF98B928B9DCCF98B928B9DDCF42
:1018600098B928B9DECF98B928B9DFCF98B928B987
:10187000E0CFCF93C82F8091BE0560E08F7D0E949E
:10188000F00B4298CC2379F0439A429A8091BE059E
:1018900061E080620E94F00B3AE13A95F1F70000B6
:1018A0000000CF9108954398F0CF21E030E0A901E6
:1018B00002C0440F551F8A95E2F7CA012091BE0568
:1018C000662341F0822B8093BE0560E08091BE05C7
:1018D0000C94F00B80958223F6CF2F923F924F927B
:1018E0005F926F927F928F929F92AF92BF92CF92B0
:1018F000DF92EF92FF920F931F93CF93DF9300D06D
:1019000000D01F92CDB7DEB7682E862EC090BE05E0
:10191000C094CC1CCC24CC1C8EEF898381E08D83B9
:101920006A82CB828BE3E0E2AE2EE1E0BE2E86152A
:1019300020F070E4A72E71E0B72E80E58093BE0101
:101940008EE48093BF019CE09093C0011092C1018E
:1019500093E89093C20192EC9093C30191E090932D
:10196000C4019CEF9093C50192E39093C6018093CC
:10197000C70108EC11E0912C8CE0382E93E8492E39
:1019800021EA522EFF24F3943EEF232E4EE4E42E60
:101990005FE7D52E65EE762ED8013C9211961C920B
:1019A000119712964C92129713965C921397149675
:1019B000FC92149715962C9215971696FC921697F2
:1019C00017966C9217971896FC9218971996CC92C6
:1019D00019971A96FC921A9793941B969C921B97B0
:1019E0001C96FC921C971D96FC929C8241E065E03F
:1019F00070E0CE0101960E940A0BF801F6869787E7
:101A0000F08A818B85E1828BE38A348A158A468A43
:101A1000578AF08EABEFA18FD28E738ED48E758ED7
:101A2000B2E0B68F778EF0A288E781A3F2A287E2B8
:101A300083A386E384A3E5A20A5D1F4FAAE19A125D
:101A4000ABCFD092A405E092A505D092A605E09276
:101A5000A705D092A805E092A905D092AA05E09228
:101A6000AB05D092AC05E092AD05D092AE05E09208
:101A7000AF05811001C0F89410928000109282008E
:101A800083E080938100882D0E94CA0A8823F1F0A8
:101A900010928100811001C0789481E00F900F9026
:101AA0000F900F900F90DF91CF911F910F91FF90AA
:101AB000EF90DF90CF90BF90AF909F908F907F90EE
:101AC0006F905F904F903F902F9008952B9A60E019
:101AD00086E00E94550C2C9880E58CBD81E08DBD80
:101AE000EEEBF1E0D501CF93DF9310E020E081E051
:101AF0003FEFF32EDC90D89A30C0000000000000C9
:101B00000000000000001A955AF03D2D803808F0C2
:101B10003FEF3C9300005EBD0000000000000FC0DE
:101B20008A9531F4819101915EBD0000000006C0EC
:101B3000029100005EBD01910000000017E0001F4F
:101B4000221F2F70ED01C20FC20F49915881000072
:101B50000000000000005F3FB1F61A9562F01330FC
:101B600024F4813809F48F7704C0000000000000DD
:101B70000000000009C08A9519F48191019103C009
:101B800002910191000017E0001F221F2F70ED014C
:101B9000C20FC20F4991588100004F3F09F4ADCFE9
:101BA0004EBD1A9562F0133024F4813809F48F7712
:101BB00004C00000000000000000000009C08A9579
:101BC00019F48191019103C002910191000017E085
:101BD000001F221F2F70ED01C20FC20F49915881C3
:101BE000D89B2FC0D89A1D9B2EC04F3FC9F65F11BE
:101BF00085CF1A9562F0133024F4813809F48F7779
:101C000004C00000000000000000000009C08A9528
:101C100019F48191019103C002910191000017E034
:101C2000001F221F2F70ED01C20FC20F4991588172
:101C300000000000000000000000000000000000A4
:101C4000AFCF0000D2CFDF91CF911CBC61E086E026
:101C50000E94550C811001C0789480E01FCFAF9294
:101C6000BF92CF92DF92EF92FF920F931F93CF9389
:101C7000DF93B82EA62E142F6901E02E109280005B
:101C800081E08093810010928200011101C0F894DC
:101C9000C0E8D0E0112311F0C0E0D1E0BE016F5FD9
:101CA0007F4F412FC6010E940A0BCC0DDD1D998389
:101CB0008A838EE48B832E2D412F6A2D8B2D0E94DB
:101CC000290BC82F811108C1112309F41BC18BE313
:101CD0008B1508F012C190E2A92E91E0B92E2B9A33
:101CE000809181008860809381001092850010921D
:101CF000840080E894E1909389008093880082E0DA
:101D000086BBB19BFECF60E086E00E94550C2C980C
:101D100080E58CBD81E08DBDD501F601CF93DF93C9
:101D200010E064E071E03FEFF32E47EEEF01FD01BC
:101D300057812585FE019FE539E03A95F1F70000CE
:101D40004EBD9150C9F73FE03A95F1F74EBD35E1F0
:101D50003A95F1F74EBD3FE03A95F1F700000000EB
:101D60004EBD35E13A95F1F74EBD3FE03A95F1F7BA
:101D7000000000005EBD3AE03A95F1F700002EBD8C
:101D800035E13A95F1F74EBD3FE03A95F1F70000A5
:101D900000004EBD35E13A95F1F74EBD3FE03A9572
:101DA000F1F7000000005EBD3AE03A95F1F700005F
:101DB0002EBD35E13A95F1F74EBD3FE03A95F1F78A
:101DC000000000004EBD21E034E13A95F1F73FC03C
:101DD00000000000000000000000000033E03A9521
:101DE000F1F75EBD1A953AF0000000000000000017
:101DF000000006C065C061507040E2F3019117E039
:101E0000001F221F2F70ED01C20FC20F4991588190
:101E10005F3F21F71A953AF0000000000000000033
:101E2000000006C04DC061507040E2F3019117E020
:101E3000001F221F2F70ED01C20FC20F4991588160
:101E400000000000000000004F3F09F4C1CF4EBD6C
:101E50001A953AF00000000000000000000006C0E3
:101E60002FC061507040E2F3019117E0001F221F64
:101E70002F70ED01C20FC20F4991588133E03A959E
:101E8000F1F74F3F21F75F11A4CF1A953AF0000008
:101E9000000000000000000006C012C06150704049
:101EA000E2F3019117E0001F221F2F70ED01C20F16
:101EB000C20F4991588133E03A95F1F70000C7CF3E
:101EC000DF91CF911CBC61E086E00E94550C8091AF
:101ED0008100877F80938100E11001C07894109287
:101EE00081008C2FDF91CF911F910F91FF90EF9088
:101EF000DF90CF90BF90AF90089580E4A82E81E04E
:101F0000B82EEDCE91E09093B100239880EC8093B1
:101F1000B0008091B10080688093B1001092B00051
:101F2000239A90938100109285001092840080EC97
:101F300094E1909389008093880082E086BBB19BF6
:101F4000FECF60E086E00E94550C1092B2008FEF49
:101F50008093B30082E087BB82E48093B000F601F7
:101F60000FE12FE340E30E94CF044191483F89F104
:101F70000093B3000E94D6040093B3000E94D604DD
:101F80000093B3000E94D6042093B3000E94D604AD
:101F90002093B3000E94D6042093B3000E94D6047D
:101FA0000093B3000E94D6042093B3000E94D6048D
:101FB0000093B3000E94D6040093B3000E94D6049D
:101FC0000093B3000E94D6040093B3000E94D6048D
:101FD00028C00093B3000E94D6040093B3000E946F
:101FE000D6040093B3000E94D6042093B3000E944D
:101FF000D6042093B3000E94D6042093B3000E941D
:10200000D6040093B3000E94D6042093B3000E942C
:10201000D6042093B3000E94D6042093B3000E94FC
:10202000D60450E0A3E85A9522F4A15091F04191D2
:1020300057E0441F48F40093B3000E94D604009375
:10204000B3000E94D604EFCF2093B3000E94D604C1
:10205000EACF1092B00061E086E00E94550C109229
:10206000B0003ACFCF92DF92EF92FF920F931F937F
:10207000CF93DF937C01D62E142FEC0100E08EEF7E
:10208000C82EC882D9821A820F5F0B831C8240E05F
:1020900065E070E0CE010E940A0B9D838E83279637
:1020A0000A3179F7111101C0F89410928000109252
:1020B000820083E080938100812F0E94CA0A8823D6
:1020C00079F010928100111101C0789481E0DF91C4
:1020D000CF911F910F91FF90EF90DF90CF900895D7
:1020E0001092B00081E08093B100239880EC80933F
:1020F000B0008091B10080688093B1001092B00070
:10210000239A60E086E00E94550C1092B2008FEF97
:102110008093B30082E087BB82E48093B0008AE1C1
:1021200090E0F701682F0FE12FE340EF0E94CF040A
:1021300040E50E94CF0440E30E94CF040093B30027
:102140000E94D6040093B3000E94D6040093B3000B
:102150000E94D6042093B3000E94D6040093B300DB
:102160000E94D6040093B3000E94D6042093B300CB
:102170000E94D6040093B3000E94D6040093B300DB
:102180000E94D6040093B3000E94D6042093B300AB
:102190000E94D6042093B3000E94D60440ED0E9412
:1021A000CF0440E30E94CF040093B3000E94D60402
:1021B0000093B3000E94D6040093B3000E94D6049B
:1021C0002093B3000E94D6042093B3000E94D6044B
:1021D0002093B3000E94D6040093B3000E94D6045B
:1021E0000093B3000E94D6040093B3000E94D6046B
:1021F0000093B3000E94D6040093B3000E94D6045B
:102200002093B3000E94D604419150E0A6E05A9575
:1022100022F4A15092F0419157E0441F48F40093FA
:10222000B3000E94D6040093B3000E94D604EFCFFF
:102230002093B3000E94D604EACF48E50E94CF0461
:1022400040E30E94CF040093B3000E94D6040093A1
:10225000B3000E94D6040093B3000E94D6042093DA
:10226000B3000E94D6042093B3000E94D6042093AA
:10227000B3000E94D6040093B3000E94D6042093BA
:10228000B3000E94D6040093B3000E94D6040093CA
:10229000B3000E94D6040093B3000E94D6040093BA
:1022A000B3000E94D60440E80093B3000E94D60415
:1022B0000093B3000E94D6040093B3000E94D6049A
:1022C0000093B3000E94D6040093B3000E94D6048A
:1022D0000093B3000E94D6042093B3000E94D6045A
:1022E0002093B3000E94D6040093B3000E94D6044A
:1022F0000093B3000E94D6042093B3000E94D6043A
:102300000093B3000E94D6040093B3000E94D60449
:102310004A9551F62093B3000E94D6040093B3006F
:102320000E94D6040093B3000E94D6042093B30009
:102330000E94D6040093B3000E94D6040093B30019
:102340000E94D6040093B3000E94D6040093B30009
:102350000E94D6040093B3000E94D6040093B300F9
:102360000E94D6042093B3000E94D6040093B300C9
:102370000E94D6040093B3000E94D6042093B300B9
:102380000E94D6042093B3000E94D6040093B300A9
:102390000E94D6040093B3000E94D6040093B300B9
:1023A0000E94D6040093B3000E94D6042093B30089
:1023B0000E94D6042093B3000E94D6042093B30059
:1023C0000E94D6042093B3000E94D6046A9521F09F
:1023D00048ED0E94CF04E5CE0093B3000E94D604DE
:1023E0004091230045FDF8CF1092B00061E086E0F7
:1023F0000E94550C111101C0789480E068CE282FFE
:102400003B9842982A9A90E080E00000000000008B
:102410000000880F33998160429A42989F5F291388
:10242000F4CF2A983B9A429A089583E00E94FF11C4
:102430009091B40180FF08C09F7E9093B401809179
:10244000B4018295817008959061F7CFCF93C2E572
:10245000C150E1F081E00E94FF1180FF1AC081E0CD
:102460000E94390CE091B301F0E0E554FE4F808109
:10247000823039F063E070E080E090E00E94B206C4
:10248000E7CF6AE070E080E090E0F8CF80E0CF91A5
:10249000089581E0FCCF1F93CF93DF93192F111F75
:1024A0001127111FEC0197FF03C0D195C195D109E8
:1024B000219790F011110AC0812F0E94390C6AE017
:1024C00070E080E090E00E94B206F2CF81E00E94CE
:1024D000FF1180FDF1CFF3CF6AE570E080E090E07E
:1024E000DF91CF911F910C94B206CF9382E00E94AE
:1024F000FF1180FD2BC08091B30190E0FC01E554F9
:10250000FE4F2081223069F487549E4FFC01C08128
:1025100061E08C2F0E94550C60E08C2FCF910C94C1
:10252000550C81E00E94FF1180FF09C08FEF9FEFE3
:102530000E944B1281E090E0CF910C944B1281E00D
:1025400090E00E944B128FEF9FEFF6CFCF9108954E
:10255000CF93DF93C091B301D0E0FE01E954FE4F69
:1025600060E080810E94550CC554DE4F8881823026
:1025700079F068E572E080E090E00E94B20682E0C7
:102580000E94FF1180FD09C0DF91CF910C9475125C
:1025900063E270E080E090E0F0CFDF91CF910895AA
:1025A0008091BE0590E0B0E0A0E0E091B301F0E0E2
:1025B000E954FE4F208104C0B695A795979587955D
:1025C0002A95D2F780FF0AC00E94A8126CE271E03F
:1025D00080E090E00E94B20681E0089580E00895D6
:1025E00081110C94A812E091B301F0E0E954FE4F80
:1025F00061E080810C94550C1F93CF93DF93C82F1B
:10260000162F1092800081E080938100109282004A
:10261000F89420E0462F6FEF8FEF0E94290BD82F00
:10262000882341F078940E942612811121C0F894E9
:10263000D7E018C080919D018C17A1F08D3490F7E0
:10264000789480919D012C2F281B330BC9010E9487
:102650004B12F89420E0412F6FEF8C2F0E94290B32
:102660008111E0CF78948D2FDF91CF911F91089544
:102670008C2F90E00E944B12F89420E0412F6FEFD6
:102680008C2F0E94290BD82FEDCF8F929F92AF9263
:10269000BF920F931F93CF93DF93CDB7DEB7A19770
:1026A0000FB6F894DEBF0FBECDBF19A2423008F4BA
:1026B0004AE08E010F5D1F4F842E912CB12CA12C6E
:1026C000A50194010E942823E62FB901CA01EA302E
:1026D00044F5E05DD801EE938D01232B242B252BAF
:1026E00079F790E080E0109769F0FD0101900020FB
:1026F000E9F73197AF014A1B5B0BBD018FEB95E00A
:102700000E94DE04A1960FB6F894DEBF0FBECDBFC7
:10271000DF91CF911F910F91BF90AF909F908F90BD
:102720000895E95CD7CF462F682F70E090E080E0F5
:102730000C944513CF93C82F83E893E00E94CB05F8
:10274000CA3068F5EC2FF0E0E855FC4E0C944A23B3
:10275000B213CF13B713BA13BD13C013C313C613E9
:10276000C913CC138AE793E0CF910C94CB058AE68A
:1027700093E0FACF86E593E0F7CF8EE393E0F4CFD2
:1027800080E293E0F1CF8CE093E0EECF81EF92E036
:10279000EBCF87ED92E0E8CF8FEB92E0E5CF8EEACA
:1027A00092E00E94CB056AE070E08C2FCF910C94F0
:1027B0009313CF93C82F803120F480E390E00E94E0
:1027C000E60560E170E08C2FCF910C949313CF92CB
:1027D000DF92EF92FF92CF93DF936B017C018DE24A
:1027E0000E94EB05EC0166277727CB016C197D0968
:1027F0008E099F094AE00E9445138C0F9D1FDF91AF
:10280000CF91FF90EF90DF90CF90089542E050E09D
:1028100068E771E08FEB95E00C94DE04CF93DF93D3
:102820000E94CB05EC010E9406148C0F9D1FDF91C6
:10283000CF9108950E9406148AE995E00E940E1433
:1028400081E495E00E940E148EE195E00E940E1442
:102850008FEE94E00E940E148FEA94E00E940E1412
:1028600084E894E00E940E1488E594E00E940E141F
:102870008AE394E00E940E1488E194E00E940E1412
:1028800082EE93E00E940E1481EB93E00E940E14FE
:102890008BE893E00E940E140C940614CF93DF9300
:1028A000C82F87EA90E00E94CB056AE070E08C2F89
:1028B0000E9493138DE990E00E94CB05D0E0C554AF
:1028C000DE4F6AE070E088810E9493138AE990E00D
:1028D0000E94CB058881813071F028F0823071F040
:1028E00084E790E002C085E990E00E94CB05DF918B
:1028F000CF910C9406148FE890E0F7CF8CE790E02E
:10290000F4CFAF92BF92CF92DF92EF92FF920F93EC
:102910001F93CF93DF935C01D0E0C0E080E00E9482
:10292000D9138C2F0E94D9138AE390E00E94E60508
:10293000CE0181549E4F6C017C0110E000E0C80183
:1029400087709927892B21F480E290E00E94E605A8
:10295000F70181917F010E94D91380E290E00E94EB
:10296000E6050F5F1F4F0031110549F780E290E047
:102970000E94E605F12CE12CC70187709927892B6D
:1029800021F480E290E00E94E605F60101916F01DA
:1029900010E0C8010E943425892B11F40EE210E0EA
:1029A000C8010E94E605FFEFEF1AFF0A80E1E81672
:1029B000F10411F70E9406146096CA15DB050CF4A9
:1029C000ADCFDF91CF911F910F91FF90EF90DF90EE
:1029D000CF90BF90AF900895FF920F931F93CF9326
:1029E000DF93CDB7DEB7C450D1400FB6F894DEBF49
:1029F0000FBECDBFF42E00E09E012F5F3F4F0E941F
:102A0000920B182F811110C040E850E0FF2011F008
:102A100040E051E0BE016E5F7F4F8FEB91E00E947E
:102A20003B25892B09F018E0812FCC5FDE4F0FB6D4
:102A3000F894DEBF0FBECDBFDF91CF911F910F91F4
:102A4000FF900895CF93DF93EC01888199810097DF
:102A500011F00E94EC23198218821D821C821B82B5
:102A60001A82DF91CF910895FC01808191810097B6
:102A700011F00C94EC2308950F931F93CF93DF93E1
:102A8000EC0188819981009759F02A813B812617B2
:102A9000370730F081E0DF91CF911F910F910895BA
:102AA0008B016F5F7F4F0E947524009759F09983C7
:102AB00088831B830A832C813D81232B59F7FC01DA
:102AC0001082E8CF80E0E7CFEF92FF920F931F9341
:102AD000CF93DF93EC017B018A01BA010E943C1580
:102AE00081110BC0CE010E942215CE01DF91CF9142
:102AF0001F910F91FF90EF9008951D830C83B701F4
:102B0000888199810E945125F0CFFB01019000201E
:102B1000E9F73197AF01461B570B0C946415CF931F
:102B2000DF93EC01FB018617970749F06081718103
:102B30006115710541F0448155810E946415CE01F3
:102B4000DF91CF9108950E942215F9CF1F920F9225
:102B50000FB60F9211242F933F934F935F936F9370
:102B60007F938F939F93AF93BF93EF93FF938FEBDD
:102B700095E00E945C05FF91EF91BF91AF919F910D
:102B80008F917F916F915F914F913F912F910F9016
:102B90000FBE0F901F9018951F920F920FB60F92B5
:102BA00011242F938F939F93EF93FF93E091CF0581
:102BB000F091D0058081E091D505F091D60582FD98
:102BC0001BC090818091D8058F5F8F732091D905AC
:102BD000821741F0E091D805F0E0E154FA4F958F6B
:102BE0008093D805FF91EF919F918F912F910F9036
:102BF0000FBE0F901F9018958081F4CF1F920F92F7
:102C00000FB60F9211242F933F938F939F93AF93FF
:102C1000BF9380918B0190918C01A0918D01B09117
:102C20008E013091860126E0230F2D3758F502964C
:102C3000A11DB11D2093860180938B0190938C017F
:102C4000A0938D01B0938E018091870190918801AE
:102C5000A0918901B0918A010196A11DB11D8093B7
:102C6000870190938801A0938901B0938A01BF9155
:102C7000AF919F918F913F912F910F900FBE0F9029
:102C80001F90189529E8230F0396A11DB11DD2CFDF
:102C9000CF93DF93CDB7DEB76D970FB6F894DEBF55
:102CA0000FBECDBF789484B5826084BD84B5816049
:102CB00084BD85B5826085BD85B5816085BD809107
:102CC0006E00816080936E0010928100809181007F
:102CD0008260809381008091810081608093810077
:102CE000809180008160809380008091B100846039
:102CF0008093B1008091B00081608093B00080919A
:102D00007A00846080937A0080917A008260809358
:102D10007A0080917A008E7F80937A0080917A0089
:102D2000806880937A001092C10010928000109207
:102D30008100109282001092B0001092B10061E008
:102D400081E10E94100661E080E10E94100660E0CF
:102D50008CE00E94100660E08AE00E94100661E0AC
:102D60008BE00E94100660E089E00E94100661E09E
:102D700081E10E945C0661E080E10E945C0661E006
:102D80008CE00E945C0661E08BE00E945C0660E0E3
:102D90008DE00E945C0661E08AE00E945C0660E0D3
:102DA00088E00E945C0660E08EE00E945C0660E0C5
:102DB0008FE00E945C0661E089E00E945C0660E0B2
:102DC00082E10E945C0660E083E10E945C061AB822
:102DD0008FEF8093BE0560E00E94F00B80916C0045
:102DE000806180936C0080916C00806280936C00A5
:102DF00080916B00806280936B0083E08BBBE091DD
:102E0000CF05F091D00582E08083E091CB05F09171
:102E1000CC051082E091CD05F091CE0588E080834D
:102E20001092D705E091D305F091D40586E0808318
:102E3000E091D105F091D205808180618083E0919D
:102E4000D105F091D205808188608083E091D10521
:102E5000F091D205808180688083E091D105F09166
:102E6000D20580818F7D808384E00E94FF1180FDE8
:102E700012C780E299E00E940E1488E00E94FF11C0
:102E8000182F109582E010FF81E08093BB0180E055
:102E90000E944E1482E011FF81E08093BC0181E02A
:102EA0000E944E1483E08093B90181E08093B701C2
:102EB00082E08093BA0184E08093B80112FF04C0DD
:102EC00089EF98E00E940E1411E01093B30160E0C6
:102ED0008091BA010E94550C1092910110929201BA
:102EE0001092930110929401109295011092960104
:102EF000109297011092980110938F0110939001F6
:102F0000FF24F3941E0123E1220E311C6AE0462EB9
:102F1000512C612C712C83EF98E00E94CB056AE064
:102F200070E08091B3010E9493138AE30E94EB0545
:102F300080EF98E0F11002C08DEE98E00E94CB0582
:102F400083E00E94FF1180FF66C08CEE98E00E9433
:102F5000CB0581E00E94FF1180FF60C087EE98E002
:102F60000E94CB0582E00E94FF1180FF5AC086EDCF
:102F700098E00E94CB0587ED98E00E94CB051E8665
:102F80001D86188A1F861A8A198A50E040E06AE76F
:102F900071E0CE010D960E9464158FEB95E00E94C2
:102FA0001A058C018D30910519F08A309105E1F5F3
:102FB0000E9406143F922F92CE0145969F938F93C5
:102FC00002969F938F9302969F938F938BE791E046
:102FD0009F938F938E858F938D858F930E94582515
:102FE0006C010FB6F894DEBF0FBECDBF18161906E0
:102FF0005CF4B98C8B2D0B2C000C990B0E94E522F4
:103000008C01892B09F450C10E941A14CE010D962F
:103010000E94341580CF88EE98E099CF83EE98E037
:103020009FCF82ED98E0A5CF8B31910539F46AE707
:1030300071E0CE010D960E948515BACF88309105BA
:1030400009F0D9C089899A89892B09F45BC088E085
:1030500090E00E94E60580E290E00E94E60588E0AC
:1030600090E00E94E60509891A891A8219821C8259
:103070001B821E821D8250E040E06AE771E0CE01B3
:1030800001960E94641589899A890097E1F00150A0
:1030900011098017910708F48C01ED85FE85E00F7A
:1030A000F11FD08010826D857E85CE01019661155D
:1030B000710509F48AC00E9485158D859E85080FCB
:1030C000191FD801DC928D859E85009709F482C076
:1030D00069817A816115710509F47AC04F85588933
:1030E0002D813E814217530708F472C00E9451257A
:1030F0008D819E819A8B898B1E821D82CE010196C5
:103100000E9434158091910190919201A0919301B8
:10311000B0919401892B8A2B8B2B21F12FB7F89436
:1031200080918B0190918C01A0918D01B0918E01C5
:103130002FBF409191015091920160919301709144
:103140009401481759076A077B0760F461E081E042
:103150000E94550C109291011092920110929301CD
:10316000109294018091950190919601A091970100
:10317000B0919801892B8A2B8B2B09F40ECF2FB796
:10318000F89480918B0190918C01A0918D01B09168
:103190008E012FBF4091950150919601609197014A
:1031A00070919801481759076A077B0708F0F5CE18
:1031B00061E084E00E94550C1092950110929601F6
:1031C0001092970110929801E8CE0E94221575CFB7
:1031D0000E94EC2389819A819E878D878B819C81B7
:1031E000988B8F878D819E819A8B898B1A82198209
:1031F0001C821B8281CF0E943425892B09F482CF47
:103200001A8219821C821B821E821D820F831886DD
:10321000BE01695F7F4FCE0101960E948515188619
:103220001F821A8619861C861B86BE01635F7F4F2C
:10323000CE0107960E948F15A980BA80A114B1040F
:1032400071F1CD80DE80C114D104B1F08B859C85F5
:10325000C80ED91EB601CE0107960E943C158823E0
:10326000F1F02F8138858B859C85B501820F931FE6
:103270000E945125DC86CB86BE01695F7F4FCE015F
:103280000D960E948F15CE0107960E943415CE012F
:1032900001960E943415C8010E94E60533CFCE0185
:1032A00007960E942215E8CFF2E7BF123CC021E04A
:1032B000C216D10409F4CEC1AF88B88C1FEF32E03A
:1032C000C316D10419F01A2DAD88BE8883EB810F87
:1032D000823B08F4BFC1C50101974A9708F0BAC103
:1032E0000E94D012EEEBF1E083E091E0DF019C015F
:1032F0001D9221503040E1F71F3F71F400E02EEBAA
:1033000031E04F2D6A2D812F0E94920B882309F402
:1033100099C10E949A139EC16F2D812F0E94FC12A9
:10332000882361F3F6CF37E7B31246C081E0C816B1
:10333000D10409F48FC1AF88B88C1FEF92E0C91691
:10334000D10419F01A2DAD88BE8883EB810F823B22
:1033500008F480C1C50101974A9708F07BC10E941B
:10336000D0128BEF8093BE011F3F99F400E02EEB4B
:1033700031E04F2D6A2D812F0E942F0E8111C9CF70
:10338000A4E0CA16D10464F48EEC98E00E940E14F6
:1033900061C16F2D812F0E94FC12882339F3B9CFB0
:1033A0008B899C89892B81F34F2D6A2D812F0E9457
:1033B000EC14882349F3ADCFB2E5BB127CC00E9468
:1033C000D0125CE4852E912CE1E0CE16D10459F0A8
:1033D0009F89888D092F182F4801F2E0CF16D1045C
:1033E00011F08D889E88102F1815190411F00CF01B
:1033F00031C16F2D812F0E94FC1281112BC13AE146
:10340000B32ECC24C394D12C2BE0A22EC6010D2CBC
:10341000000CAA0BBB0B8A8F9B8FAC8FBD8F8FEBE1
:1034200098E00E94CB056AE070E0812F0E94931320
:1034300086EB98E00E94CB054AE06A8D7B8D8C8DEF
:103440009D8D0E9445138FEB95E00E94F00500E0F2
:103450002EEB31E04F2D6C2D812F0E94920B082F07
:10346000811113C08FEA98E00E940E1492E0C90EF9
:10347000D11CABE1CA16D1041CF092E0C92ED12CAC
:10348000BA94B110C1CF1F5FAFCF8BEF800F8230E6
:1034900018F4AA94A1100AC08AEA98E00E94CB0509
:1034A000802F0E949A130E940614E0CF8EE898E0C5
:1034B0000E940E14B4CFB7E5BB12BDC0E1E0CE163A
:1034C000D10409F49EC00F89188DF2E0CF16D10403
:1034D00009F49BC0CD88DE8880E698E00E94CB0589
:1034E0006AE070E08091B3010E9493138EE498E04B
:1034F0000E940E148FEB95E00E941A0587FDFACF0B
:10350000893709F0A7C00E94D0128BEF8093BE01CB
:10351000902E9C141D0411F00CF09CC06F2D892D71
:103520000E94FC12811196C01AE1AA24A394B12C26
:103530008FE398E00E94CB056AE070E0892D0E943D
:10354000931386E398E00E94CB054AE0B5010B2C6B
:10355000000C880B990B0E9445138FEB95E00E949D
:10356000F00500E02EEB31E04F2D6A2D892D0E94F1
:103570002F0E082F81114BC08FE298E00E940E148D
:1035800022E0A20EB11C3BE1A316B1041CF0B2E094
:10359000AB2EB12C115061F6AAE1BA2E01E010E079
:1035A00089E198E00E94CB056AE070E0892D0E94D5
:1035B000931380E198E00E94CB054AE0B801012E08
:1035C000000C880B990B0E9445138FEB95E00E942D
:1035D000F0054F2D602F892D0E94EC14A82E81112B
:1035E00020C089E098E00E940E140E5F1F4F0B313F
:1035F000110514F002E010E0BA94B110D1CF939409
:1036000088CF8CE4C82ED12C67CF680165CF8AE2C1
:1036100098E00E94CB05802F0E949A130E94061406
:10362000AFCF84E098E00E94CB058A2D0E949A13C8
:103630000E940614DACF82E6B81251C083EF97E0F9
:103640000E940E1480E091E0F11002C080E890E04A
:103650000E9481148091B30190E0FC01E157FE4F7C
:103660002081222309F4D2CC4091BE0550E070E0C5
:1036700060E089549E4FFC01808104C07695679577
:10368000579547958A95D2F740FDC0CC8FB7F894EF
:1036900000918B0110918C0120918D0130918E0150
:1036A0008FBF8091B30190E0FC01E554FE4F408153
:1036B000423009F0C9C344E650E060E070E0880F92
:1036C000991F880F991FFC01EF56FE4F400F511FA5
:1036D000621F731F408351836283738397CC92E48C
:1036E000B91232C000E011E0F11002C000E810E0B1
:1036F00084EE97E00E94CB05CA94CD2861F4EFEBED
:10370000F1E090E080E08193019608171907D9F75E
:103710000E9406149FCF8BED97E00E94CB056F8926
:10372000788D072E000C880B990B40E10E94451301
:103730002F89EEEBF1E021833196CF018E5B914032
:1037400080179107C4F3E4CFBDE6BB1262C00091BD
:10375000B30110E08091BE0590E0B0E0A0E0F80178
:10376000E954FE4F208104C0B695A795979587959B
:103770002A95D2F781709927AA27BB27CA94CD280A
:10378000B9F4892B8A2B8B2B81F086EC97E00E9471
:10379000CB05F801E157FE4F8081882309F4B8CFAB
:1037A00084EA97E00E94CB05B3CF85EB97E0EFCF9B
:1037B0002F89388D892B8A2B8B2B81F0232B09F4B1
:1037C00049CF82E997E00E940E140E94A812E0916E
:1037D000B301F0E0E157FE4F10823CCF21153105D7
:1037E00041F48FE797E00E940E1480E00E94F012EF
:1037F000EECF2230310509F02DCF83E697E00E940D
:103800000E14E091B301F0E0E157FE4F81E08083B8
:1038100021CFFDE4BF1281C08FEB95E00E943C05F3
:10382000892B29F08FEB95E00E941A05F5CF8EE2E7
:1038300097E00E940E1403E08FEB95E00E943C0598
:10384000892B09F065C08CE197E00E94CB051092AE
:103850008000009381001092820080E00E94CA0ADA
:1038600014E0812C912C5401882309F43FC0812C51
:10387000912C5401C501B40128EE33E040E050E042
:103880000E942823CA01B9014AE00E9445138EE232
:103890000E94EB05C501B40124E630E040E050E0B1
:1038A0000E942823CA01B901A30192010E94282382
:1038B00080E3860F0E94EB05C501B401A3019201CC
:1038C0000E942823162FCA01B901A30192010E9468
:1038D000282380E3860F0E94EB0580E3810F0E947E
:1038E000EB0589E197E00E940E14A6CF80E00E94CC
:1038F000CA0A8111BCCF8091840090918500880E06
:10390000991EA11CB11C115089F710928100B2CFF1
:103910008FEB95E00E941A059DCE29E6B2120FC0EA
:1039200031E0C316D10439F0CF88D88CD7FE03C05C
:10393000D194C194D108C6010E944B128BCE8FE660
:10394000B81210C091E0C916D10439F0CF88D88CD4
:10395000D7FE03C0D194C194D108882799278C1928
:103960009D09EACFA0E3BA1208C00E942612811175
:1039700071CE87E00E949A13CBCEB8E6BB1203C08B
:103980000E941A1467CEE4E6BE1236C0CA94CD284F
:1039900009F460CE8F89988D02970CF05BCE88E099
:1039A00097E00E94CB056F89788D072E000C880B5D
:1039B000990B97FF1DC00E94E7130E94061480E038
:1039C0000E94F012E091B301F0E0E754FE4F61E095
:1039D00080810E94550C8F89988D8093B30199271F
:1039E000FC01E754FE4F60E080810E94550C32CE0E
:1039F0004AE00E944513E1CF24E4B2121AC0CA94EF
:103A0000CD2871F084EF96E00E94CB05FF24F3945B
:103A10008F89988D892B51F4F12C8FED96E0B6CCDF
:103A200088EE96E00E94CB05FF20B9F383EE96E086
:103A3000ADCC83E7B8122AC0CA94CD28B9F061E0B2
:103A40008F89988D029709F460E087E00E94550CF9
:103A50008FEC96E00E94CB058091BE0587FF04C0E5
:103A600081E30E94EB0554CE82E3FBCF89EC96E024
:103A70000E94CB058091BE0587FF06C081E30E94AE
:103A8000EB058BEB96E082CC82E3F9CFA9E4BA1286
:103A900051C082E00E94FF1180FD19C08091BE05D7
:103AA00090E0B0E0A0E0E091B301F0E0E954FE4F17
:103AB000208104C0B695A795979587952A95D2F74A
:103AC00080959095A095B09581700E94F0120E940B
:103AD0000614CA94CD2861F486EA96E00E94CB05CC
:103AE0006AE070E08091B3010E9493130E94061473
:103AF00081E996E00E94CB051092800081E08093DE
:103B000081001092820020E04F2D6FEF8FEF0E9416
:103B1000290B90919D01811108C06AE070E0892F06
:103B20000E9493130E940614F3CD89E896E00E9448
:103B30000E14EECDE4E5BE120FC08091B301CA941D
:103B4000CD2819F40E944E14E3CDE82FF0E0E5549F
:103B5000FE4F9F899083F6CF26E6B21284C0FCE424
:103B6000BF2E31E0C316D10441F00F89188DBD88F6
:103B700082E0C816D10409F4B02E0E94D01294E05D
:103B8000C916D1040CF44DC0CC24C3948B899C89F4
:103B9000892B09F4C12CD02EA090BE050E942612BC
:103BA000882309F440C0C80199270E944B1200E005
:103BB0001B2D1D3408F01CE4D11237C087E796E0B6
:103BC0000E94CB056AE070E08D2D0E9493138CE279
:103BD00096E0CC2051F088E496E0A7FE02C080E495
:103BE00096E00E94CB0580E596E00E94CB058FEB26
:103BF00095E00E94F00501112FC01D1568F1CC2041
:103C000021F160E08D2D0E946D0C082F8EE20E9444
:103C1000EB05D11620F481E090E00E944B12D39482
:103C2000EACFCF2CB8CF07E0C3CF84E696E00E945E
:103C3000CB056AE070E08D2D0E9493138DE20E9407
:103C4000EB056AE070E0812FC0CF40E06D2D8EEB78
:103C500091E00E943210D9CF0E940614002309F48B
:103C6000F9CC802F56CBA8E7BA12F4CCCE010D9632
:103C70000E9434150091B30110E0F801E754FE4FA3
:103C800061E080810E94550CF801E954FE4F61E02B
:103C900080810E94550C0E9406148FEB95E00E94D3
:103CA000F0058FEB95E00E94F005E091D105F091D1
:103CB000D20580818F7E8083E091D105F091D2057D
:103CC0008081877F8083E091D105F091D20580814A
:103CD0008F778083E091D105F091D20580818F7D2F
:103CE00080838091D9058093D805F89461E089E0BC
:103CF0000E94100688E00E94FF11182F109513FBF8
:103D0000882780F98093BD01FF24F39480E012FF9F
:103D100002C0F12C81E092E010FF91E0C82ED12C7E
:103D2000F601E554FE4F90830E944E1482E011FF8D
:103D300081E00F2D10E0F801E554FE4F80838F2DB8
:103D40000E944E14F601E754FE4F83E08083F60193
:103D5000E954FE4F91E09083F801E754FE4F92E062
:103D60009083F801E954FE4F24E020831092B601BD
:103D70001092B50120E22093B4012FEF2093B301FC
:103D80001092B1011092B2011AB88BBB1092B0011F
:103D900016BC10926E0094BD85BD89EF87BDA99AAF
:103DA000C12C89E1D82E94E1A92EB12CFF24FA94DC
:103DB00005E1802E912CD99B22C0349B4AC086B14C
:103DC00083709FEFA1F48091B0019091B40188239A
:103DD00071F08091A501E82FF0E0E254FE4F91814F
:103DE0002091BD01222319F08F5F8093A5019BB91B
:103DF000FAB829983499FECF1AB8299AD99A10910D
:103E0000B40110FF59C28091AE019091AF01892B8E
:103E100009F052C26090B301712CF301EF54FE4FD0
:103E20005524539450820091A901073009F4FCC233
:103E300008F0DEC1033009F4DDC2053009F4F9C22F
:103E40001E7F1093B4011AC248E853E160E070E0AD
:103E500036CC359BD4CF96B1937089B129983599DA
:103E6000FECF299AD99A9111A8C19091B601809359
:103E7000B60190FD5AC080FF58C08F3059F008F04D
:103E800065C0873039F008F047C0833019F08530BD
:103E900009F04BC09091B401292F297009F07EC11F
:103EA0000091B301023008F079C18093A90110920A
:103EB000A8011092AF011092AE0191609093B401ED
:103EC00010E0F801E554FE4F7080F801EF54FE4F0A
:103ED0008081811112C060E0F801E954FE4F8081B9
:103EE0000E94550CE2E088E592E07E1202C085E275
:103EF00090E09093AF018093AE01F2E080ED97E007
:103F00007F1611F080E099E1000F111FF801E655CE
:103F1000FE4F9183808309C08B3009F442C08D30FD
:103F200009F4B8CF893009F4B5CF8091BD01882359
:103F300029F08091B6018E7F8093B6018091B60101
:103F400086FB882780F98093B00159CF8132B9F17F
:103F500068F4813179F1853141F78091BD01882381
:103F600069F380919B018093B501DFCF813409F41F
:103F700008C18138E1F08133C1F68091A401E82FB6
:103F8000F0E0ED53FD4F90919B0190838F5F809304
:103F9000A4019091BD019111CCCF8F778093A401A2
:103FA000C4CF8091B40187778093B401BECF0E94C3
:103FB000E506BBCF80919B018093A601B6CF7090A0
:103FC0009B0172947694769413E071228091B301F0
:103FD000072D10E0781609F4ADC0823098F490E017
:103FE000FC01E756FE4F2091B40125FB222720F962
:103FF00031E02327208387549E4F61E0DC018C91C0
:104000000E94550C7092B301B1E08091B4018062BE
:10401000B71508F48DC060E0F801E754FE4F8081C9
:104020000E94550C0E941512F801E756FE4F908130
:104030008091B401992309F496C08F7D8093B401D7
:1040400082E00E94FF1180FD07C08091B401806270
:104050008093B4010E9475128091B40185FF55C010
:10406000F801E554FE4F8081813009F07EC0F801EF
:10407000E954FE4F80814091BE0550E070E060E061
:10408000082E04C076956795579547950A94D2F700
:1040900040FF6BC0F801EE0FFF1FE655FE4FD182C7
:1040A000C08260E00E94550C8AE992E024E02093EF
:1040B000810010928500109284004FE3489F900188
:1040C000499F300D1124309389002093880082E0AD
:1040D00086BBD89AB19902C0D89BFCCFD89B05C0AB
:1040E0008091B4018F7D8093B4018091B30190E001
:1040F000FC01E554FE4F2081213039F4880F991FCF
:10410000FC01E655FE4F11821082D89A84EB809311
:104110000101E091B301F0E0E554FE4F9081809100
:10412000B401923029F59091BD01992309F1806481
:104130008093B4018091B401897F000F111F082B77
:104140000093B40110919B018091BD01882339F047
:104150008091BE0515FF0EC060E087FD0EC01F7187
:1041600010930001E2CE806269CF86EA90E09ECF94
:104170008F7BDECF87FDF3CF61E087E00E94550C97
:10418000EECF8091A5018F5F8093A5019091BD0135
:104190009111CFCE8F778093A501C7CE8091BD01BD
:1041A000882309F4CBCEF092A901B092AF01A0927E
:1041B000AE0191609093B401B8CE913009F01FCE5A
:1041C00080939B019091BD01992309F418CE9091A1
:1041D000B6019160913309F012CE9091A401E92FBC
:1041E000F0E0ED53FD4F80839F5F9093A40107CED5
:1041F0000D3009F4EAC00F3009F41BC1093009F091
:104200001FCE8091A8018111ADC081E00E94FF11F5
:1042100080FD0EC01092A7019091A7018091A60188
:10422000981329C08091B4018E7F8093B40126C079
:104230004091B50145FDF0CF1092800081E0809360
:1042400081001092820042954170212F6FEF8FEF15
:104250000E94290B90919D019093A7018823E1F280
:104260009091B4019E7F9093B4018F3F09F014C1E7
:104270000E94E50603C081E08093A8018091A3011C
:10428000882339F08091B6018E7F8093B601109219
:10429000A3018091B30190E0FC01E554FE4F208121
:1042A000223009F008C120ED37E0880F991FFC018A
:1042B000E655FE4F31832083A99B7DCD0091B3014C
:1042C0000230D8F480910201815080930201811163
:1042D00005C00E9415128AEF8093020110E0F801D8
:1042E000E554FE4F8081813009F028C180910101A1
:1042F000815009F4E3C0809301018091AE01909157
:10430000AF01009729F001979093AF018093AE0120
:104310008091AA019091AB01009771F00197909361
:10432000AB018093AA01892B39F461E08091B70138
:104330000E94550C1092B1018091AC019091AD0199
:10434000009771F001979093AD018093AC01892B98
:1043500039F461E08091B8010E94550C1092B201CD
:10436000A99A24CD813009F089CF9091A70180913D
:10437000A601981307C01092A8019092AF018092F5
:10438000AE017CCF9817A8F480E00E94390C809190
:10439000A7018F5F8093A701F301E554FE4F808151
:1043A000823029F58BE090E09093AF018093AE01CD
:1043B00065CF81E00E94FF1180FFEECF81E00E9477
:1043C000390C8091A7018150E5CF8091A80181111E
:1043D00037CD81E00E94FF1180FD05C01092A7013A
:1043E0005092A801CACF81E00E94390CD5CF84E059
:1043F00090E0DACF7EEB672E71E0772E4091B50129
:1044000042954170012F9301609100018091A701B5
:104410000E94920BD3019C91983F19F4106810935D
:10442000B4011092A5011CCF66EC662E63E0762ED7
:10443000E5CF0E941512811124C02091B501922F61
:1044400090716091B4018091A70125FD14C02BEFFC
:10445000053009F028EF2093C20241E0911101C01C
:1044600040E0062F22EC32E0609100010E942F0E06
:104470001092A401F5CE992331F00E946D0C813089
:1044800049F080E0EDCE462F682F86EC93E00E9445
:104490003210F5CF82E0E4CE823021F48091B40175
:1044A0008062C3CE882309F4E9CE8091B40185FDF2
:1044B000E5CE8860BACE20E039E1F7CE82E3809382
:1044C0000101F090B401F5FE1EC0D89B16CFD89A1A
:1044D0008091B4018F7D8093B4018091B30190E00D
:1044E000FC01E554FE4F2081223051F420ED37E0ED
:1044F000880F991FFC01E655FE4F31832083FDCEC6
:1045000020E039E1F5CF82E00E94FF1180FDF5CE79
:104510008F2D80628093B4010E947512F801EE0F16
:10452000FF1FE655FE4F11821082F801E954FE4F3D
:1045300060E080810E94550CD89ADFCED89B0AC0DB
:1045400084EB80930101D89A8091B4018F7D809390
:10455000B401D3CE80910101882309F4CECE8150DD
:10456000809301018111C9CE8091B4018062EFCFA7
:10457000EFEBF5E01382128288EE93E0A0E0B0E06A
:1045800084839583A683B7838AE691E091838083B1
:1045900085EC90E09587848784EC90E09787868708
:1045A00080EC90E0918B808B81EC90E0938B828B00
:1045B00082EC90E0958B848B86EC90E0978B868BD9
:1045C000118E128E138E148E089591110C94EE227A
:1045D000803219F089508550C8F7089599278827A7
:1045E00008952F923F924F925F926F927F928F9297
:1045F0009F92AF92BF92CF92DF92EF92FF920F9372
:104600001F93CF93DF93CDB7DEB7CA1BDB0B0FB67B
:10461000F894DEBF0FBECDBF09942A883988488838
:104620005F846E847D848C849B84AA84B984C884CE
:10463000DF80EE80FD800C811B81AA81B981CE0FC5
:10464000D11D0FB6F894DEBF0FBECDBFED010895AA
:10465000A1E21A2EAA1BBB1BFD010DC0AA1FBB1F86
:10466000EE1FFF1FA217B307E407F50720F0A21BF8
:10467000B30BE40BF50B661F771F881F991F1A9465
:1046800069F760957095809590959B01AC01BD018F
:10469000CF010895EE0FFF1F0590F491E02D0994CE
:1046A0000F931F93CF93DF938230910510F482E034
:1046B00090E0E0915E06F0915F0630E020E0B0E02F
:1046C000A0E0309799F42115310509F44AC0281B60
:1046D000390B24303105D8F58A819B81611571052C
:1046E00089F1FB0193838283FE0111C040815181D6
:1046F0000281138148175907E0F04817590799F4C8
:10470000109761F012960C93129713961C933296A1
:10471000CF01DF91CF911F910F91089500935E0615
:1047200010935F06F4CF2115310551F0421753075E
:1047300038F0A901DB019A01BD01DF01F801C1CF09
:10474000EF01F9CF90935F0680935E06CDCFFE0117
:10475000E20FF31F8193919322503109398328830B
:10476000D7CF20915C0630915D06232B41F4209138
:1047700062013091630130935D0620935C062091C5
:104780006001309161012115310541F42DB73EB72B
:104790004091640150916501241B350BE0915C064A
:1047A000F0915D06E217F307A0F42E1B3F0B2817CC
:1047B000390778F0AC014E5F5F4F2417350748F09A
:1047C0004E0F5F1F50935D0640935C06819391935B
:1047D0009FCFF0E0E0E09CCFCF93DF930097E9F02C
:1047E000FC01329713821282A0915E06B0915F069F
:1047F000ED0130E020E01097A1F420813181820F9B
:10480000931F20915C0630915D062817390709F047
:1048100061C0F0935D06E0935C06DF91CF9108954F
:10482000EA01CE17DF07E8F54A815B819E01411559
:104830005105B1F7E901FB83EA8349915991C40F0E
:10484000D51FEC17FD0761F4808191810296840FDA
:10485000951FE90199838883828193819B838A8351
:10486000F0E0E0E012968D919C9113970097B9F5D6
:104870002D913C911197CD010296820F931F2091AB
:104880005C0630915D062817390739F6309751F5E7
:1048900010925F0610925E06B0935D06A0935C06D0
:1048A000BCCFD383C28340815181840F951FC81729
:1048B000D90761F44E5F5F4F88819981480F591F76
:1048C000518340838A819B819383828321153105A3
:1048D00009F0B0CFF0935F06E0935E069ECFFD0136
:1048E000DC01C0CF13821282D7CFB0E0A0E0EBE7AB
:1048F000F4E20C94F3228C01009751F4CB010E9456
:1049000050238C01C801CDB7DEB7E0E10C940F2332
:10491000FC01E60FF71F9C0122503109E217F30753
:1049200008F49DC0D901CD91DC911197C617D70726
:1049300098F0C530D10530F3CE010497861797075C
:1049400008F3C61BD70B2297C193D1936D937C9329
:10495000CF010E94EC23D6CF5B01AC1ABD0A4C01FB
:104960008C0E9D1EA0915E06B0915F06512C412CCD
:10497000F12CE12C109731F580915C0690915D0649
:104980008815990509F05CC04616570608F058C00E
:104990008091600190916101009741F48DB79EB7BD
:1049A0004091640150916501841B950BE817F9074C
:1049B00008F055C0F0935D06E0935C06F901718341
:1049C0006083A0CF8D919C91119712966C90129755
:1049D00013967C901397A815B90559F56C0142E020
:1049E000C40ED11CCA14DB0420F1AC014A195B09C6
:1049F000DA011296159780F06282738251834083A8
:104A0000D9016D937C93E114F10471F0D7011396F1
:104A1000FC93EE93129776CF22968C0F9D1FF9018F
:104A200091838083F301EFCFF0935F06E0935E06FE
:104A300069CF4816590608F42C017D01D3019ACF9D
:104A4000CB010E9450237C01009749F0AE01B801D0
:104A50000E944825C8010E94EC23870153CF10E033
:104A600000E050CF803209F091110C94EE22805278
:104A70008F55D8F70895FB01DC0104C08D9101909A
:104A8000801921F441505040C8F7881B990B0895B4
:104A9000FB01DC0102C001900D9241505040D8F75B
:104AA0000895FB01DC0101900D920020E1F70895CB
:104AB000AEE0B0E0EEE5F5E20C94012385E08C83F6
:104AC0008B899C899A838983AE01495E5F4F6D898A
:104AD0007E89CE0101960E94FC262E96E2E00C947F
:104AE0001D2320FD09C0FC0123FD05C022FF02C0DB
:104AF0007383628351834083089544FD17C046FD4C
:104B00001DC0DB01FC01AA0FBB1FEE1FFF1F10948D
:104B1000D1F76A0F7B1F8E1F9F1F660F771F881F9D
:104B2000991F620F711D811D911D089533E0660F5D
:104B3000771F881F991F3150D1F7F3CF34E0F7CF9B
:104B40000F931F93CF93DF938C01C8010E940C2811
:104B5000EC0197FD08C00E94E522892BB1F7B8014E
:104B6000CE010E944828CE01DF91CF911F910F9175
:104B700008958F929F92AF92BF92EF92FF920F9300
:104B80001F93CF93DF938C01D62F7A01B22E0E9410
:104B90000C289C0133272B32310529F02D323105A9
:104BA000A9F46894B7F8D15061F480E0DF91CF9117
:104BB0001F910F91FF90EF90BF90AF909F908F90BB
:104BC0000895C8010E940C2897FDEFCFCB2DCD7F13
:104BD0002B2D2073F9F48033E9F4AA24AA94AD0EA6
:104BE00089F0C8010E940C2897FD0CC0282F2F7D4A
:104BF000283561F4C264D25029F0C8010E940C2803
:104C000097FF08C0812C912C54011BC0B6FE2BC00D
:104C1000C260DA2D812C912C540120ED280F283010
:104C200028F1C4FD09C02A3008F1C6FF05C02F7D58
:104C30003FEE320F3630C8F0B8010E944828C1FF5D
:104C4000B4CFC7FF08C0B094A09490948094811C06
:104C5000911CA11CB11C2C2FB501A401C7010E94FD
:104C6000712581E0A3CFC261D4CF27504C2FC5015D
:104C7000B4010E947D254B015C01C260D15009F353
:104C8000C8010E940C2897FFC8CFD9CFA0E2B0E09E
:104C9000ECE4F6E20C94F6225C01962E7A01CE0149
:104CA00001966C0180E2F60111928A95E9F7F5010F
:104CB000B381890130E020E0712C812CA0E041E03B
:104CC00050E0F801B3FD8591B3FF8191982F8F01DA
:104CD000811107C010E000E0C801A096EDE00C943F
:104CE00012238E3519F42115310541F1A21713064F
:104CF0004CF48D3549F18D3229F4811006C0882499
:104D000083941DC0882009F464C0E92FE695E695D8
:104D1000E695EC0DFD2DF11D892F8770BA0101C0BC
:104D2000660F8A95EAF78081682B6083791651F0C7
:104D3000971510F49F5FE9CF9150E7CFA1E02F5F67
:104D40003F4FBFCF812CFBCF882019F08E8180622E
:104D50008E83AA2359F0F6019E012F5D3F4F80817B
:104D6000809580833196E217F307C9F788248394EE
:104D7000C5010E940C2897FD16C0E82FE695E69520
:104D8000E695EC0DFD2DF11D208130E0AC01477062
:104D9000552702C0359527954A95E2F720FD06C0B4
:104DA000B5010E944828882069F094CFE114F104ED
:104DB00029F0F7018083C70101967C019A94812C28
:104DC0009110D6CFE114F10409F486CFF7011082D7
:104DD00083CFE82FE695E695E695EC0DFD2DF11DC8
:104DE000982F9770BA0101C0660F9A95EAF79081E3
:104DF000692B6083782EA3CFB0E0A0E0E2E0F7E279
:104E00000C94F4226C01EB015A01FC01178216820A
:104E1000512CF601E380FE01E3FC8591E3FE8191D4
:104E2000182FEF018823E9F090E00E94E522892BFA
:104E300021F0C6010E94A025ECCF153241F4FE01FD
:104E4000E3FC1591E3FE1191EF01153269F4C601FF
:104E50000E940C2897FD8EC01817D9F2B6010E9447
:104E60004828852D90E08AC000E01A3231F4E3FC36
:104E70001591E3FE1191EF0101E0F12C20ED210FDE
:104E80002A3048F101FF37C0FF2059F31836B1F13D
:104E90001C3609F43DC0112321F3612F70E088E630
:104EA00090E00E940128892BE1F2912C812C00FDD9
:104EB00006C0F50180809180C50102965C011E3616
:104EC00079F5F6014681578170E060E0202FC4013A
:104ED0000E9471259ECF02606F2D70E090E080E00F
:104EE00040E20E947D25F62EFE01E3FC1591E3FED3
:104EF0001191EF01C3CFFF24FA94C8CFFE01E3FC68
:104F00001591E3FE1191EF01183609F0C4CF086046
:104F10000460FE01E3FC1591E3FE1191EF01BBCFAC
:104F20001336C1F401FD02C0FF24F394C6010E94B0
:104F30000C2897FD1FC08114910429F0F40180838F
:104F4000C40101964C01FA94F110F0CF00FD61CF3D
:104F500053945FCF1B35B9F49E01A4016F2DC60198
:104F60000E944626EC01892B89F7F6018381807324
:104F700009F477CF8FEF9FEF511073CFCDB7DEB726
:104F8000EFE00C941023C6010E94A02597FDF2CFFC
:104F90001F36A9F130F4143641F0193639F00064A7
:104FA00005C01337B9F01537D1F70062202FA401DF
:104FB0006F2DC6010E94B9258111C8CFD6CF8114AB
:104FC000910429F0F4016082C40101964C01FA9425
:104FD000FF2071F0C6010E940C283C0197FD08C01B
:104FE0000E94E522892B59F3B601C3010E9448288B
:104FF0008114910409F4AACFF4011082A7CF0061B3
:10500000D5CFFC010590061621F00020D9F7C0018C
:1050100008953197CF010895CF93DF93EC012B8151
:1050200020FF1AC026FF0CC02F7B2B838E819F810F
:1050300001969F838E838A8190E0DF91CF910895BE
:1050400022FF18C0E881F9818081082E000C990B9D
:10505000009729F420622B838FEF9FEFEECF3196DC
:10506000F983E8832E813F812F5F3F4F3F832E835B
:105070009927E3CFEA85FB85099597FFF3CF2B812D
:10508000019621F080E2822B8B83E6CF80E1FBCF7B
:10509000FB01238120FF11C026FD0FC08F3F980721
:1050A00071F082832F7D20642383268137812150F4
:1050B000310937832683992708958FEF9FEF08954D
:0450C000F894FFCF92
:1050C40001B4010000000000000000000000000026
:1050D40000000000000000000000000000000000CC
:1050E400E7FFCFFFFFE7FFF3FFFFFFFFFFCFFFE780
:1050F400F3FFE7FFFFE7FFF3FFFFFFFFFFCFFFE74C
:10510400E7FFE7FFFFE7FFE7FFFFFFFFFFE7FFE73B
:10511400E7FFE7FFFFE7FFE7FFFFFFFFFFE7FFE72B
:10512400000060068000000000007E05DE040B0520
:10513400F0053C051A052E050D0A00256325692C8A
:0651440025692C2569001D
:00000001FF
